:100000000C94A0060C94C8060C94C8060C94C80660
:100010000C94C8060C94C8060C94C8060C94C80628
:100020000C94C8060C94C8060C9417150C948915EA
:100030000C94C8060C94C8060C94C8060C94C80608
:100040000C94C8060C94C8060C94C8060C94C806F8
:100050000C94C8060C94C8060C94C8060C94AC18F2
:100060000C94C8060C94C8060C94C8060C94C806D8
:100070000C94C8060C94C8060C94C8060C94C806C8
:100080000C943F0A0C94C8060C94C8060C94C8063D
:100090000C94C8060C94C8060C94C8060C94C806A8
:1000A0000C94C8060C94C8060C94C80605A84CCD40
:1000B000B2D44EB93836A9020C50B9918688083CA2
:1000C000A6AAAA2ABE000000803FF0F89C8E878373
:1000D000878E9CF8F00000FEFF0303030303070E66
:1000E000FCF80000FEFF0303030303070EFCF80007
:1000F00000FFFF00000000000000FFFF0000FEFF07
:100100008383838383C7EE7C380000F8FC0E0703EB
:100110000303070EFCF800003F7FE0C08080C0E0D2
:100120007F3FFFFF01010101010101FFFF0000FF0F
:10013000FF0C0C0C0C1C3E77E3C100007FFFC0C01D
:10014000C0C0C0E0703F1F00001F3F70E0C0C0C0D3
:10015000E0703F1F00007FFFC1C1C1C1C1E3773E16
:100160001C00001F3F70E0C0C0C0E0703F1F0000D7
:1001700000000001FFFF01000000D5F08D14A1C8B0
:1001800081CFD9F1AF2000804000000000000000C6
:10019000000000000000000000000000000000005F
:1001A000000000000000000000000000000000004F
:1001B000000000000000000000000000000000003F
:1001C000000000000000000000000000000000002F
:1001D000000000000000000000000000000000001F
:1001E000000000000000000000000000000000000F
:1001F00000000000000000000000000000000000FF
:1002000000000000000000000000000000000000EE
:1002100000000000000000000000000000000000DE
:1002200000000000000000000000000000000000CE
:1002300000000000000000000000000000000000BE
:1002400000000000000000000000000000000000AE
:10025000000000000000000000000000000000009E
:10026000000000000000000000000000000000008E
:10027000000000000000000000000000000000007E
:10028000000000000000000000000000000000006E
:1002900000000000000000000000008080808080DE
:1002A00080808000808080808080808080C080000E
:1002B000000000808080800000000000008000803E
:1002C0008080808080808000C0800000000080806E
:1002D000008080808080808080008080000000001E
:1002E000000000008000808080808080808000800E
:1002F000808080808080800000000000000000007E
:1003000000000000000000000000000000000000ED
:1003100000000000000000000000006F6F6D6D6DB8
:100320006D7D7D406171797D6F67636100010307B9
:100330007E7E070301007F7F0E1C1C0E7F7F007FE7
:100340007F616161617F7F007F7F070E1C387FFFC7
:1003500000FDFD0D0D0D0D0F0F007F7F60606060D3
:100360006060007F7F007F7F6D6D6D6D7F7F007FA0
:100370007F6D6D6D6D7F7F0000000000000000004C
:10038000000000000000000000000000000000006D
:10039000000000000000000000000000000000005D
:1003A000000000000000000000000000000000004D
:1003B00000000000000000000000000000F8F81835
:1003C000181898F8F800F8F8D8D8D8D8D8D800F87D
:1003D000F8C1E070381808000000000000000000BC
:1003E000000000000000000000000000000000000D
:1003F00000000000000000000000000000000000FD
:1004000000000000000000000000000000000000EC
:1004100000000000000000000000000000000000DC
:1004200000000000000000000000000000000000CC
:10043000000000000000000000000000007F3F1CE2
:100440000E0703010000070706060606060600075A
:100450000301000000000000000000000000000098
:10046000000000000000000000000000000000008C
:10047000000000000000000000000000000000007C
:10048000000000000000000000000000000000006C
:10049000000000000000000000000000000000005C
:1004A000000000000000000000000000000000004C
:1004B000000000000000000000000000000000003C
:1004C000000000000000000000000000000000002C
:1004D000000000000000000000000000000000001C
:1004E000000000000000000000000000000000000C
:1004F00000000000000000000000000000000000FC
:1005000000000000000000000000000000000000EB
:1005100000000000000000000000000000000000DB
:1005200000000000000000000000000000000000CB
:1005300000000000000000000000000000000000BB
:1005400000000000000000000000000000000000AB
:10055000000000000000000000000000000000009B
:10056000000000000000000000000000000000008B
:10057000000000000000000000000000000000007B
:10058000000000000000000000536E643A204F6637
:1005900066003E536E643A204F666600536E643ABE
:1005A000204F6E003E536E643A204F6E00537461CC
:1005B0007274003E53746172740080200000000069
:1005C000000000000000000000000000000000002B
:1005D000000000000000000000000000000000001B
:1005E000000000000000000000000000000000000B
:1005F00000000000000000000000000000000000FB
:1006000000000000000000000000000000000000EA
:1006100000000000000000000000000000000000DA
:1006200000000000000000000000000000000000CA
:1006300000000000000000000000000000000000BA
:10064000CFCFCFCFCFCFCFCFCFCFFFFFFFFF00FF99
:10065000FFFF0F0F0F0F0F0F0FFFFFFFFF00FFFF39
:10066000FF0F0F0F0F0F0F0FFFFFFFFF00FFFFFF29
:10067000CFCFCFCFCFCFCFCFCFCFCF000F0F0F0F59
:100680000FFFFFFF0F0F0F0F0F0F00FFFFFF0F0FE9
:100690000F0F0F0F0FFFFFFFFF00CFCFCFCFCFCF39
:1006A000CFCFCFCFFFFFFFFF00FFFFFFCFCFCFCFD9
:1006B000CFCFCFCFCFCFCF00000000000000000091
:1006C0003F3F3F010107070F3F3FF9F9F1F1003FBD
:1006D0003F3F383838383838383F3F3F3F003F3F9A
:1006E0003F383838383838383F3F3F3F00FFFFFF4A
:1006F00001010101010101010101010000000000EF
:10070000003F3F3F000000000000003F3F3F3838FF
:1007100038383838383F3F3F3F00FFFFFF010101C5
:100720000101010101010101003939393939393932
:100730003939393F3F3F3F00000000000000000012
:1007400000000000000000000000000001010000A7
:100750000000000000000000000000000000000099
:100760000000000000000000000000000001010087
:100770000000000000000000000000000000000079
:100780000000000000000000000000000000000069
:100790000000000000000000000001010000000057
:1007A0000000000000000000000000000000000049
:1007B0000000000000000000000000004E6578749A
:1007C0002053746167650047616D65204F766572DF
:1007D0000000000000003E5B4F5B3E3E6B4F6B3EF7
:1007E0001C3E7C3E1C183C7E3C181C577D571C1C34
:1007F0005E7F5E1C00183C1800FFE7C3E7FF00188F
:10080000241800FFE7DBE7FF30483A060E26297977
:100810002926407F050507407F05253F5A3CE73CD8
:100820005A7F3E1C1C08081C1C3E7F14227F221489
:100830005F5F005F5F06097F017F006689956A60E0
:100840006060606094A2FFA29408047E04081020F7
:100850007E201008082A1C08081C2A08081E1010F0
:1008600010100C1E0C1E0C30383E3830060E3E0E9A
:1008700006000000000000005F0000000700070005
:10088000147F147F14242A7F2A12231308646236EB
:10089000495620500008070300001C224100004177
:1008A000221C002A1C7F1C2A08083E0808008070B1
:1008B00030000808080808000060600020100804E4
:1008C000023E5149453E00427F4000724949494637
:1008D0002141494D331814127F1027454545393CB5
:1008E0004A494931412111090736494949364649A2
:1008F00049291E00001400000040340000000814C4
:10090000224114141414140041221408020159093C
:10091000063E415D594E7C1211127C7F4949493691
:100920003E414141227F4141413E7F494949417F0A
:10093000090909013E414151737F0808087F0041C0
:100940007F41002040413F017F081422417F404009
:1009500040407F021C027F7F0408107F3E414141DE
:100960003E7F090909063E4151215E7F091929464A
:10097000264949493203017F01033F4040403F1F60
:100980002040201F3F4038403F6314081463030495
:100990007804036159494D43007F414141020408F5
:1009A0001020004141417F040201020440404040C8
:1009B00040000307080020545478407F28444438FE
:1009C0003844444428384444287F38545454180048
:1009D000087E090218A4A49C787F080404780044C7
:1009E0007D40002040403D007F1028440000417FB2
:1009F00040007C047804787C08040478384444443B
:100A000038FC1824241818242418FC7C0804040832
:100A1000485454542404043F44243C4040207C1C4B
:100A20002040201C3C4030403C44281028444C903E
:100A300090907C4464544C44000836410000007798
:100A40000000004136080002010204023C26232671
:100A50003C1EA1A161123A4040207A3854545559A5
:100A600021555579412154547841215554784020DD
:100A7000545579400C1E52721239555555593954F6
:100A800054545939555454580000457C410002458E
:100A90007D420001457C40F0292429F0F0282528DA
:100AA000F07C545545002054547C547C0A097F49FD
:100AB00032494949323248484832324A4848303A45
:100AC0004141217A3A42402078009DA0A07D3944DE
:100AD0004444393D4040403D3C24FF2424487E4965
:100AE00043662B2FFC2F2BFF0929F620C0887E0997
:100AF0000320545479410000447D413048484A3233
:100B0000384040227A007A0A0A727D0D19317D261A
:100B100029292F28262929292630484D4020380800
:100B200008080808080808382F10C8ACBA2F102881
:100B300034FA00007B000008142A142222142A141C
:100B4000089500220095AA005500AAAA55AA55AA00
:100B5000000000FF00101010FF00141414FF00101C
:100B600010FF00FF1010F010F0141414FC00141407
:100B7000F700FF0000FF00FF1414F404FC14141726
:100B8000101F10101F101F1414141F00101010F04D
:100B9000000000001F101010101F10101010F01097
:100BA000000000FF101010101010101010FF1000A7
:100BB0000000FF140000FF00FF00001F10170000DE
:100BC000FC04F414141710171414F404F40000FFB8
:100BD00000F714141414141414F700F71414141751
:100BE0001410101F101F141414F4141010F010F02F
:100BF00000001F101F0000001F14000000FC140064
:100C000000F010F01010FF10FF141414FF14101057
:100C1000101F00000000F010FFFFFFFFFFF0F0F0DA
:100C2000F0F0FFFFFF0000000000FFFF0F0F0F0FAD
:100C30000F38444438447C2A2A3E147E02020606B9
:100C4000027E027E0263554941633844443C0440BD
:100C50007E201E2006027E020299A5E7A5991C2A85
:100C6000492A1C4C7201724C304A4D4D3030487844
:100C70004830BC625A463D3E494949007E01010167
:100C80007E2A2A2A2A2A44445F444440514A444046
:100C900040444A51400000FF0103E080FF0000088B
:100CA000086B6B083612362436060F090F06000053
:100CB00018180000001010003040FF0101001F0153
:100CC000011E00191D1712003C3C3C3C00000000B6
:100CD00000080B00020202010009040000010202E8
:100CE000000005240010010524010101042402066E
:100CF00005240600010705810310004009040100D6
:100D0000020A0000000705020240000007058302F6
:100D10004000000403090412010002EF02014041F7
:100D200023368000010102030141726475696E6F10
:100D3000204C4C430041726475626F79000072254B
:100D400011241FBECFEFDAE0DEBFCDBF11E0A0E07F
:100D5000B1E0E6ECFFE502C005900D92A435B107C5
:100D6000D9F726E0A4E5B1E001C01D92A63EB20786
:100D7000E1F716E0C0EAD6E004C02197FE010E9428
:100D8000DF2DCF39D107C9F70E94F6180C94E12F57
:100D90000C940000CF92DF92EF92FF920F931F937B
:100DA000CF93DF936C017A018B01C0E0D0E0CE15C8
:100DB000DF0581F0D8016D918D01D601ED91FC9197
:100DC0000190F081E02DC6010995892B11F0219643
:100DD000EECF7E01C701DF91CF911F910F91FF9060
:100DE000EF90DF90CF9008958091C502E091C3020B
:100DF000F091C402882349F0CF0102969093C40277
:100E00008093C302859194910895CF0102969093A7
:100E1000C4028093C3028081918108958091B402BD
:100E2000089580389105B8F460347105A0F490E11C
:100E300021E061FD24E060FD220F62FD2295687FC4
:100E4000969FD0011124A80FAA53BD4F8C91822BDD
:100E500040FF82278C9308952F923F924F925F928A
:100E60006F927F928F929F92AF92BF92CF92DF92BA
:100E7000EF92FF920F931F93CF93DF93CDB7DEB71F
:100E800027970FB6F894DEBF0FBECDBF9F838E832A
:100E90006A30A1F4DC0155962C91559751968D91AD
:100EA0009C915297B8E02B9F800D911D1124EE81EB
:100EB000FF81928B818B108A1786ADC06D3009F44B
:100EC000AAC0AE81BF811F960D911C91509700382A
:100ED0001105BCF0EE81FF812589422F50E0878506
:100EE0009089F6E02F9F800D911D1124AE81BF8166
:100EF00050969C938E931F9756962C91211175C0F6
:100F00008AC0EE81FF8181889288F0E48F16910477
:100F10000CF7AE81BF8155963C90C801B5E03B9E71
:100F2000800D911D112418161906A4F6432C512C7E
:100F3000C401E8E03E9E800D911D1124181619068B
:100F40004CF6AE81BF815496BC91BC83EE81FF818B
:100F5000F389FD8325E0629FB0011124CB018F52FC
:100F6000984F3C011982F3012490F981F53009F47E
:100F7000212C640128E02B8320FE03C03D813A83AD
:100F800002C08C818A839A81911104C0AC81BD8199
:100F9000AB17B9F078018E2D801B831590F45601A4
:100FA0008A2D8C19831548F44A81B501C7010E9426
:100FB0001107EFEFAE1ABE0AF3CFFFEFEF1AFF0AE9
:100FC000EACF26942B8121502B83C40CD51C2111F0
:100FD000D3CF39813F5F3983040D151DC3010196BD
:100FE0003C01363009F0BFCF75CF6AEF6403900142
:100FF000659F300D112420583F4F281739075CF4A6
:10100000AE81BF81ED91FC9111970190F081E02DAF
:101010006AE0CD01099581E090E027960FB6F8943B
:10102000DEBF0FBECDBFDF91CF911F910F91FF901B
:10103000EF90DF90CF90BF90AF909F908F907F9078
:101040006F905F904F903F902F900895089508956E
:1010500080E090E008952F923F924F925F926F92BE
:101060007F928F929F92AF92BF92CF92DF92EF9238
:10107000FF920F931F93CF93DF93CDB7DEB76697A1
:101080000FB6F894DEBF0FBECDBF6F87788B898B0C
:101090009A8B2B833C834D835E83EB8AFC8A0D8B7A
:1010A0001E8B20E030E048EC52E46FA578A989A9B6
:1010B0009AA90E94A22C2B013C019B01AC016BA5BB
:1010C0007CA58DA59EA50E94A22C20E030E040E0EA
:1010D00052E40E94312C0E94142D6F8378878987F7
:1010E0009A872F8138853A832983A3019201C6010B
:1010F000B5010E94A22C20E030E040E852E40E94BA
:10110000312C0E94142D6B877C878D879E872B84C2
:101110003C8420E030E048EC52E4C801B7010E9472
:10112000A22C4B015C019B01AC016B817C818D8108
:101130009E810E94A22C20E030E040E052E40E9418
:10114000312C0E94142D6B837C838D839E830B81B5
:101150001C81A50194016F85788989899A890E94EB
:10116000A22C20E030E040E852E40E94312C0E94A2
:10117000142D5B016F807884601A710A77FE03C0BA
:101180007194619471088B849C84861A970A97FEE7
:1011900003C0919481949108861497044CF42F8095
:1011A00038842B853C853A832983AB80BC808B01B6
:1011B0002A143B045CF4902F812F09811A819983B2
:1011C0008A839A2D8B2D5101292E382E7101EA1810
:1011D000FB0849805A80401A510A57FE03C05194B7
:1011E000419451086701F7FE03C03FEFC31AD30AC9
:1011F000D594C79489819A810817190714F08FEF45
:1012000001C081E0282F880F330B3A8329832A14E9
:101210003B04CCF041E0861497041CF4B501C801EE
:1012200002C0B801C5010E941107C418D508D7FE35
:1012300006C089819A81080F191FCE0CDF1C9FEF11
:10124000A91AB90AE4CF66960FB6F894DEBF0FBEAE
:10125000CDBFDF91CF911F910F91FF90EF90DF9065
:10126000CF90BF90AF909F908F907F906F905F9046
:101270004F903F902F9008950E94CC2F0F931F9373
:10128000CF93DF93EC0188819981009729F02A811F
:101290003B812617370788F48B016F5F7F4F0E94D1
:1012A000062F009761F0998388831B830A832C8122
:1012B0003D81232B11F4FC01108281E001C080E00C
:1012C000DF91CF911F910F910895CF93DF93EC01A0
:1012D00088819981009711F00E947D2E19821882D1
:1012E0001D821C821B821A82DF91CF910895CF92BA
:1012F000DF92EF92FF92611571058105910549F02A
:101300006B017C010E94D029A70196010E94962BB7
:1013100003C060E070E0CB01FF90EF90DF90CF90D2
:101320000895CF92DF92EF92FF920F931F93CF9386
:10133000DF930E94F406811520E8920761F4809102
:1013400071008D7F809371001092910046984798AC
:101350001092B7028BC021E02093B702813020E8C1
:10136000920751F48091C1029091C2029093C402FD
:101370008093C3020E94F40697FD05C02091B60237
:10138000222309F43FC02091B50221113BC021E086
:101390002093B802EC01DF77209769F481E0809315
:1013A000B90246983FE9C32E3FE0D32EE12CF12C41
:1013B000CAEFD0E014C08E0120E030E060E472E4B7
:1013C0008FE090E0A90198010E94962B69017A01B3
:1013D00081E0C81AD108E108F1081092B902E09141
:1013E0008301F09184010995811103C081E080930C
:1013F000B9028091B8028823B9F18091B9028111B4
:1014000033C003C01092B802C5CF46992DC0479A89
:101410000E94F406009771F09C01DE010E94212CCD
:10142000DC01CB0129E0B595A795979587952A957D
:10143000D1F703C08FEF9FEFDC01109290002AE0FC
:1014400020939100D0929900C09298008093BA02A4
:101450009093BB02A093BC02B093BD028091710037
:1014600082608093710002C04798D2CFDF91CF9104
:101470001F910F91FF90EF90DF90CF9008951F92F2
:101480000F920FB60F9211242F933F934F935F93B8
:101490006F937F938F939F93AF93BF93EF93FF933C
:1014A0008091BA029091BB02A091BC02B091BD02A2
:1014B000892B8A2B8B2B81F18091B90281110BC072
:1014C00098B180E4892788B98091B802882319F0FF
:1014D00088B1805888B98091BA029091BB02A091DE
:1014E000BC02B091BD02181619061A061B06B4F408
:1014F0008091BA029091BB02A091BC02B091BD0252
:101500000197A109B1098093BA029093BB02A093FD
:10151000BC02B093BD0202C00E949109FF91EF91FD
:10152000BF91AF919F918F917F916F915F914F91FB
:101530003F912F910F900FBE0F901F901895EF9233
:10154000FF920F931F93DC01E1E7F0E090819D7F14
:1015500090831092C502E5E7F1E0F093C402E093B6
:10156000C302F093C202E093C102B183A0837383EC
:101570006283558344833783268311870087F386EC
:10158000E2861F910F91FF90EF900C949109DC017E
:10159000E1E7F0E090819D7F90831092C502E5E73E
:1015A000F1E0F093C402E093C302F093C202E0932F
:1015B000C102B183A08373836283558344833783DD
:1015C000268380E090E8918780870C9491094F9260
:1015D0005F926F927F928F929F92AF92BF92CF92C3
:1015E000DF92EF92FF920F931F93CF93DF9300D080
:1015F00000D0CDB7DEB7DC0139012C2DA02EB12CE7
:10160000C5018A0F9B1F181619060CF0AEC1A03831
:10161000B1050CF0AAC1FB01EE0DF11D1E161F064F
:101620000CF0A3C1603471050CF09FC14115510548
:1016300009F49BC1362F3770F32EFB0177FD3796E7
:1016400033E0F595E7953A95E1F73E2F77FF04C033
:10165000FF2011F03FEF3E0FB7FF05C0EE27FF2739
:10166000EA1BFB0B02C0E0E0F0E0803891051CF0C3
:1016700090E89A1B01C0902F9E1B632F032E000C35
:10168000770B3F3F1CF4162F109501C010E0DD24AE
:10169000D3948E2D877009F4D12CE694E694E694C9
:1016A000ED0C6E0D711D693071051CF088E0E82E9F
:1016B000E31AE11A310F60E83603A00DB11D1124C1
:1016C000AE0FBF1F019FE00DF11D11244E0F5F1FD4
:1016D00061E070E04B010F2C02C0880C991C0A9449
:1016E000E2F7233009F4FFC0B8F4213009F4B3C0A5
:1016F000223009F03AC18FEF889D8001899D100D3D
:101700001124009510951A8309832A81FD01EA535B
:10171000FD4F2F01E30E29C02A3FD1F12B3F09F0E5
:1017200024C1FD01EA53FD4F6F01E30E82C0849195
:10173000889D6001899DD00C1124DC82CB8237FD0D
:1017400005C0DB018C918023C82ACC92F11013C014
:1017500031966F5F7F4F8E2F841B891740F33F5F59
:101760004A0D5B1DB0E84B0E511C3E1509F4FDC03F
:10177000B201FA01F0CF37305CF76B01B0E8CB0E65
:10178000D11CD6018C9182237C8087298C93E0CF59
:10179000FD01EA53FD4F6F01E30E3E1509F4E5C06C
:1017A0008601FA018E2F841B8917F0F48491889D9D
:1017B000B001899D700D11247C836B8337FD04C0BB
:1017C000D8018C91682B6C93FF2051F0373044F492
:1017D000B80160587F4FDB012C918C81822B8C9358
:1017E00031960F5F1F4FDECF3F5F4A0D5B1DB0E8A4
:1017F000CB0ED11CD2CF8491889D8001899D100D84
:1018000011241C830B8337FD05C00095DB018C91EF
:1018100008230C93F11013C031966F5F7F4F8E2F0A
:10182000841B891740F33F5F4A0D5B1DB0E8CB0E68
:10183000D11C3E1509F499C0B601FA01F0CF37303A
:101840005CF78B0100581F4F8C818095D8012C913B
:1018500082238C93E1CFB3016E0F7F1FAA53BD4F3C
:10186000E30E3E1509F481C08D01C12CD12CC9169F
:1018700090F5FB01EC0DFD1DE491E89D3001E99D23
:10188000700C1124609470947A826982FA01EC0DD4
:10189000FD1DE491E89D2001E99D500C11245C821E
:1018A0004B8237FD05C0F8018081682246284082BE
:1018B000FF2059F037304CF4F801E058FF4F2081F9
:1018C0008A8182232C81822B8083FFEFCF1ADF0A4B
:1018D0000F5F1F4FCCCF3F5F4A0D5B1D6A0D7B1D15
:1018E000A058BF4FBECFC92ED12CE40FF51FAA536D
:1018F000BD4F00E810E00C191D09AC18BD08A5018A
:10190000440F551F792F2E2D792ECF93DF93ED01A4
:10191000EF96EF962296A590C590FF2059F0A89CCF
:101920005001C89C600137302CF4E880D094ED2041
:10193000EB28E99233233AF0EC90C094EC20EA28AB
:10194000ED920C94A40C11967A9529F72A9551F0F2
:10195000772D33951124E40FF11DA00FB11DC00F99
:10196000D11DD9CFDF91CF9111240F900F900F90FF
:101970000F90DF91CF911F910F91FF90EF90DF902B
:10198000CF90BF90AF909F908F907F906F905F901F
:101990004F9008952D9A0895BC0180E090E00C943A
:1019A000C7178FB18095807F669B88601C9B846081
:1019B00008950C94802B1092B4023E983F9808959D
:1019C0003E9A3F9A81E08093B402089580E00C949F
:1019D00015142F923F924F925F926F927F928F9247
:1019E0009F92AF92BF92CF92DF92EF92FF920F93AE
:1019F0001F93CF93DF93CDB7DEB766970FB6F894FA
:101A0000DEBF0FBECDBF69837A838B839C832E8B11
:101A10003D8B942E852E2BED3FE049E450E4C6012A
:101A2000B5010E94312C6D837E838F8398870E943D
:101A30009D2C20E030E040EA51E40E94C22AA80137
:101A400097010E94312C6F87788B898B9A8B6D81DF
:101A50007E818F8198850E948E2D20E030E040EAC3
:101A600051E40E94C22A29813A814B815C810E9403
:101A7000312C6B877C878D879E87C601B5010E94BC
:101A80009D2C20E030E040EA51E40E94C22AA801E7
:101A900097010E94312C362E272E8B8B9C8BC601F2
:101AA000B5010E948E2D20E030E040EA51E40E9412
:101AB000C22A29813A814B815C810E94312C2B0101
:101AC0003C018A898F9399899F9388898F939F85F9
:101AD0009F938F929F928D898F939E899F93AB84C2
:101AE000BC84CD84DE8491019B898C89E32EF22E07
:101AF000092F182F8E8989839D899D8399868A86CF
:101B00009C01492D582DC301B2010E942B0820E0F1
:101B100030E040E252E4B981AD81F985EA856B2F6E
:101B20007A2F8F2F9E2F0E94312C4B018E8B9D8BF5
:101B30008A898F9399899F9388898F939F859F9393
:101B40008D898F939E899F939F928F92AB84BC8443
:101B5000CD84DE8491019B898C89E32EF22E092F9E
:101B6000182F9E898D89282D392D492F582FC30173
:101B7000B2010E942B088C898F939B899F932F928F
:101B80003F928D898F939E899F939F928F9263013D
:101B9000520191019B898C89E32EF22E092F182F77
:101BA00079816D8199858A85272F362F492F582F66
:101BB000C301B2010E942B088A898F9399899F9350
:101BC00088898F939F859F938D898F939E899F93FB
:101BD0009F928F92AB84BC84CD84DE843F8528891C
:101BE00099898A89E32EF22E092F182F79816D8128
:101BF00099858A85272F362F492F582FC601B50181
:101C00000E942B080FB6F894DEBF0FBECDBF6696BC
:101C10000FB6F894DEBF0FBECDBFDF91CF911F91FD
:101C20000F91FF90EF90DF90CF90BF90AF909F907B
:101C30008F907F906F905F904F903F902F9008957E
:101C40002F923F924F925F926F927F928F929F92CC
:101C5000AF92BF92CF92DF92EF92FF920F931F93BA
:101C6000CF93DF93CDB7DEB7A8970FB6F894DEBF5A
:101C70000FBECDBF2B013C01922E3B874F87852E97
:101C8000AD82BE82CF82D8862BED3FE049EC5FE388
:101C9000C601B5010E94312C5B016C010E949D2C94
:101CA00020E030E040EA51E40E94C22AE982FA8250
:101CB0000B831C839701A8010E94312C6C8F7D8FB0
:101CC0008E8F9F8FC601B5010E948E2D20E030E0DF
:101CD00040EA51E40E94C22AA30192010E94312CE1
:101CE000688B798B8A8B9B8B6D817E818F819885A8
:101CF0000E949D2C20E030E040EA51E40E94C22A7C
:101D00002E2D3F2D402F512F0E94312C6C8B7D8B1F
:101D10008E8B9F8B6D817E818F8198850E948E2D09
:101D200020E030E040EA51E40E94C22AA30192017F
:101D30000E94312C688F798F8A8F9B8F8F8D8F9324
:101D40009E8D9F938D8D8F939C8D9F938F928F856A
:101D50008F939B859F939F92A888B988CA88DB88B8
:101D6000EC88FD880E891F89292C98A78FA3382C11
:101D7000292D392F482F582D688D798D8A8D9B8D6F
:101D80000E942B082BED3FE049E450E46D817E81F9
:101D90008F8198850E94312C6B017C010E949D2CC3
:101DA00020E030E040EA51E40E94C22AB981AA81D1
:101DB000FB81EC812B2F3A2F4F2F5E2F0E94312C6D
:101DC0006F8778A389A39AA3C701B6010E948E2DBD
:101DD00020E030E040EA51E40E94C22AA3019201CF
:101DE0000E94312C6B877C878D879E878AA18F9379
:101DF00099A19F9388A18F939F859F938F928FA185
:101E00008F9398A59F939F92AB84BC84CD84DE84EE
:101E10003C8D2D8D9E8D8F8DE32EF22E092F182F48
:101E200068A59FA1292D362F492F582D68897989BA
:101E30008A899B890E942B0824EE3BEC46E950E4FA
:101E40006D817E818F8198850E94312C6B017C0190
:101E50000E949D2C20E030E040EA51E40E94C22A1A
:101E6000B981AA81FB81EC812B2F3A2F4F2F5E2F56
:101E70000E94312C6BA37CA38DA39EA3C701B60146
:101E80000E948E2D20E030E040EA51E40E94C22AF8
:101E9000A30192010E94312C6D837E838F839887EA
:101EA0008EA18F939DA19F938CA18F939BA19F93B4
:101EB0008F928FA18F9398A59F939F92AD80BE80A4
:101EC000CF80D8843F8528A199A18AA1E32EF22E44
:101ED000092F182F68A59FA1292D362F492F582D7E
:101EE0006B857C858D859E850E942B088EA18F93A6
:101EF0009DA19F938CA18F939BA19F938F928FA164
:101F00008F9398A59F939F92AD80BE80CF80D884F9
:101F1000EC88FD880E891F8968A59FA1292D362F81
:101F2000492F582D688D798D8A8D9B8D0E942B08A5
:101F300020E030E040EF51E4A8A5FFA1692D7A2F01
:101F40008F2F982D0E94312C4B0189879A870FB6CD
:101F5000F894DEBF0FBECDBF9C819F938B818F9382
:101F60009A819F9389818F939A859F9389858F9377
:101F70009F928F9263015201EC88FD880E891F8920
:101F800068A59FA1222D362F492F532D688D798D5D
:101F90008A8D9B8D0E942B089C819F938B818F93B0
:101FA0009A819F9389818F939A859F9389858F9337
:101FB0009F928F923C8D2D8D9E8D8F8DE32EF22ED4
:101FC000092F182F68A59FA1222D362F492F532D99
:101FD000688979898A899B890E942B089C819F93B3
:101FE0008B818F939A819F9389818F939A859F93F9
:101FF00089858F939F928F923F8528A199A18AA16D
:10200000E32EF22E092F182F68A59FA1222D362F1F
:10201000492F532D6B857C858D859E850E942B08CD
:102020009C819F938B818F939A819F9389818F93BA
:102030009A859F9389858F939F928F923BA12CA124
:102040009DA18EA1E32EF22E092F182F68A59FA126
:10205000222D362F492F532D6D817E818F819885BA
:102060000E942B0820E030E040EF51E4A8A5FFA13A
:10207000622D7A2F8F2F932D0E94302C4B01898750
:102080009A870FB6F894DEBF0FBECDBF9C819F9399
:102090008B818F939A819F9389818F939A859F9348
:1020A00089858F939F928F92EC88FD880E891F8976
:1020B00068A59FA1222D362F492F532D688D798D2C
:1020C0008A8D9B8D0E942B089C819F938B818F937F
:1020D0009A819F9389818F939A859F9389858F9306
:1020E0009F928F923C8D2D8D9E8D8F8DE32EF22EA3
:1020F000092F182F68A59FA1222D362F492F532D68
:10210000688979898A899B890E942B089C819F9381
:102110008B818F939A819F9389818F939A859F93C7
:1021200089858F939F928F923F8528A199A18AA13B
:10213000E32EF22E092F182F68A59FA1222D362FEE
:10214000492F532D6B857C858D859E850E942B089C
:102150009C819F938B818F939A819F9389818F9389
:102160009A859F9389858F939F928F923BA12CA1F3
:102170009DA18EA1E32EF22E092F182F68A59FA1F5
:10218000222D362F492F532D6D817E818F81988589
:102190000E942B080FB6F894DEBF0FBECDBFA896E5
:1021A0000FB6F894DEBF0FBECDBFDF91CF911F9168
:1021B0000F91FF90EF90DF90CF90BF90AF909F90E6
:1021C0008F907F906F905F904F903F902F900895E9
:1021D0002F923F924F925F926F927F928F929F9237
:1021E000AF92BF92CF92DF92EF92FF920F931F9325
:1021F000CF93DF93CDB7DEB766970FB6F894DEBF07
:102200000FBECDBF6D837E838F83988729873A87E2
:102210004B875C8717014801AD86BE86CF86D88A7A
:1022200020E030E0A9016E2D732D802F992D0E94A2
:10223000892D18160CF0DCC02FA538A949A95AA978
:102240006E2D732D802F992D0E94312C6B8B7C8BE2
:102250008D8B9E8B2BA53CA54DA55EA569857A85AA
:102260008B859C850E94302C69837A838B839C8329
:102270008E898F939D899F938C898F939B899F9340
:102280008C818F939B819F938A818F9399819F9358
:10229000AD80BE80CF80D884F32C192D79816A81DE
:1022A0009B818C81272F362F492F582FC601B501CE
:1022B0000E942B082D853E854F8558896D817E8132
:1022C0008F8198850E94312C2B013C018E898F9340
:1022D0009D899F938C898F939B899F938C818F93EA
:1022E0009B819F938A818F9399819F936301520170
:1022F000E22CF32C082D192D79816A819B818C8128
:10230000272F362F492F582FC301B2010E942B08C7
:102310009F928F923F922F928C818F939B819F935C
:102320008A818F9399819F93E22CF32C082D192D8C
:1023300079816A819B818C81272F362F492F582FD5
:102340006D817E818F8198850E942B0820E030E08E
:1023500041E654E469857A858B859C850E94312C01
:102360006B8B7C8B8D8B9E8B9F928F923F922F924B
:102370009F938F938C898F939B899F93E22CF32C4F
:10238000082D192D79816A819B818C81272F362F09
:10239000492F582FC301B2010E942B080FB6F894A1
:1023A000DEBF0FBECDBF9F928F923F922F929E892C
:1023B0009F938D898F939C899F938B898F93AD80F9
:1023C000BE80CF80D884E22CF32C082D192D798182
:1023D0006A819B818C81272F362F492F582FC60168
:1023E000B5010E942B080FB6F894DEBF0FBECDBF1B
:1023F0002FA538A949A95AA9622D732D882D992D89
:102400000E94312C3B014C0120E030E0A901772DE6
:10241000882D992D0E94892D18160CF085C02D85C8
:102420003E854F8558896D817E818F8198850E9478
:10243000312C1B012C012BA53CA54DA55EA5698562
:102440007A858B859C850E94302C69837A838B8367
:102450009C839F928F927F926F929F938F939A818A
:102460009F9389818F9362015101E62CF72C082DEF
:10247000192D79816A819B818C81272F362F492FD5
:10248000582F6D817E818F8198850E942B0820E0D6
:1024900030E041E654E469857A858B859C850E940D
:1024A000312C69877D87898B9A8B9F928F927F923F
:1024B0006F929F938F939D859F9389858F93E62C31
:1024C000F72C082D192D79816A819B818C81272F0A
:1024D000362F492F582FC201B1010E942B089F921D
:1024E0008F927F926F929A899F9389898F939D850E
:1024F0009F9389858F93AD80BE80CF80D884E62C52
:10250000F72C082D192D79816A819B818C81272FC9
:10251000362F492F582FC601B5010E942B080FB640
:10252000F894DEBF0FBECDBF66960FB6F894DEBF3F
:102530000FBECDBFDF91CF911F910F91FF90EF9014
:10254000DF90CF90BF90AF909F908F907F906F90D3
:102550005F904F903F902F9008952091C0022111DD
:1025600003C08FEF9FEF08955FB7F89422E02093A8
:10257000E9002091F20030E01216130614F421E075
:1025800030E0422FFC0184E6415038F028988093D7
:10259000D8069091F1009193F7CF2115310521F0E4
:1025A0008091F200882319F05FBFC90108958BE67E
:1025B0008093E800F9CF2FB7F89483E08093E90087
:1025C0009091E800892F807295FF04C09091F200ED
:1025D00080E4891B2FBF08958091D00681110DC022
:1025E00082E08093CC0684E08093CD061092CF06E3
:1025F0001092CE0681E08093D0068CEC96E0089590
:10260000CF93DF931F92CDB7DEB76983DC01ED91E5
:10261000FC910280F381E02D41E050E0BE016F5F4C
:102620007F4F09950F90DF91CF91089583E08093BC
:10263000E9008091F200882319F08AE38093E80092
:1026400008950E94DB1290E00895CF93DF931F92CC
:10265000CDB7DEB7FC018485958597FD05C02FEFCA
:102660003FEF358724870BC0CE0101960E94AD1243
:10267000019719F4898190E002C08FEF9FEF0F90CE
:10268000DF91CF9108950F931F93CF93DF931F9204
:10269000CDB7DEB78C01FC018485958597FF0EC010
:1026A000CE0101960E94AD12019719F4898190E044
:1026B00002C08FEF9FEFF80195878487F80184852A
:1026C00095850F90DF91CF911F910F910895FC0197
:1026D0008485958597FD0BC09FB7F89482E0809321
:1026E000E9008091F2009FBF90E0019608959FB7A6
:1026F000F89482E08093E9008091F2009FBF90E01F
:1027000008954091C8065091C9062091C60630919F
:10271000C70642175307B4F49091E8009570E1F3AF
:102720009091E80092FD19C08093F1008091C80655
:102730009091C90601968F739927892B19F48EEF12
:102740008093E8008091C8069091C9060196909305
:10275000C9068093C80681E0089580E00895DF925D
:10276000EF92FF920F931F93CF93DF93D82E8A019E
:102770007B01E40EF51EEB01CE15DF0571F0D7FEEF
:1027800003C0FE01849101C088810E9481132196BB
:102790008111F2CF8FEF9FEF01C0C801DF91CF9180
:1027A0001F910F91FF90EF90DF9008950F931F936B
:1027B000CF93DF931F92CDB7DEB782E0898342E4E7
:1027C00050E061ED7CE080E80E94AF130E94EC12C3
:1027D000DC0112960D911C9113970115110589F0DA
:1027E000D801ED91FC910280F381E02DBE016F5F75
:1027F0007F4FC801099597FD04C0F8010085118538
:10280000ECCF89810F90DF91CF911F910F910895A7
:10281000615030F02091F100FC0120830196F8CF47
:10282000289884E68093D8060895E6ECF2E0A0E0CC
:10283000B8E000800EBC8111012C1197A0FDFDCFE6
:102840000192B9F70DB4089580E0E6ECF2E0811151
:102850008FEF002481938193819381930394D1F727
:10286000EDE4F2E0128A118A108A17860895CF9259
:10287000DF92EF92FF920F931F93CF93DF93CDB729
:10288000DEB762970FB6F894DEBF0FBECDBF8C01E6
:10289000CB01F801118210821382128215821482F8
:1028A0004AE09E012F5F3F4F6901B9010E94272A2C
:1028B000F60101900020E9F731977F01EC18FD083F
:1028C000B701C8010E943E09811104C0C8010E94DD
:1028D000650908C0F801F582E482B6018081918122
:1028E0000E94DA2F62960FB6F894DEBF0FBECDBFFE
:1028F000DF91CF911F910F91FF90EF90DF90CF90DC
:102900000895CF93DF93EC01198218821B821A82FB
:102910001D821C8267E070E00E943E09811105C0A3
:10292000CE01DF91CF910C94650987E090E09D8303
:102930008C836BE471E088819981DF91CF910C9455
:10294000DA2FEF92FF920F931F93CF93DF93EC0157
:10295000FB0104811581E080F180E114F104C9F0EC
:1029600001151105C9F08C819D81080F191FB8014F
:10297000CE010E943E09882361F0288139818C8133
:102980009D81B701820F931F0E94DA2F1D830C8354
:1029900003C0CE010E946509CE01DF91CF911F9146
:1029A0000F91FF90EF900895FC0144815581608163
:1029B00071818DE492E00C94CA060F931F93CF931C
:1029C000DF938C01C0E0D0E0F801EC0FFD1F6491B3
:1029D000662341F08DE492E00E942C07892B11F0D0
:1029E0002196F2CFCE01DF91CF911F910F910895E3
:1029F000E1E7F0E080818D7F80831092C502E5E7FA
:102A0000F1E0F093C402E093C302F093C202E093BA
:102A1000C1028EE190E09183808388EC90E0938303
:102A2000828380E090E8958384830C9491091F92BF
:102A30000F920FB60F9211248F939F938091E10014
:102A40009091E100937F9093E10083FF0FC010927B
:102A5000E90091E09093EB001092EC0092E39093E8
:102A6000ED001092C00298E09093F00082FF20C029
:102A700093E09093E9009091F200992319F09AE382
:102A80009093E8009091CB06992339F09091CB0672
:102A900091509093CB06992389F19091D806992370
:102AA00039F09091D80691509093D806992341F12E
:102AB00084FF10C08091E2008E7E81608093E200EE
:102AC0008091E1008F7E8093E1008091BF028E7E35
:102AD000806111C080FF16C08091E2008E7E80610F
:102AE0008093E2008091E1008E7E8093E1008091EE
:102AF000BF028E7E81608093BF0204C05D9ACDCFFD
:102B0000289AD6CF9F918F910F900FBE0F901F9054
:102B100018951F920F920FB60F921124CF92DF9249
:102B2000EF92FF920F931F932F933F934F935F93D7
:102B30006F937F938F939F93AF93BF93EF93FF9385
:102B4000CF93DF93CDB7DEB76C97DEBFCDBF1092CA
:102B5000E9008091E80083FFFBC168E0CE01459663
:102B60000E94081482EF8093E8008D8987FF05C0DA
:102B70009091E80090FFFCCF03C09EEF9093E80097
:102B8000982F907609F0C6C09E894F89588D2F895D
:102B9000F88C91110CC0803829F48091BE0280938A
:102BA000F10002C01092F1001092F10045C1913085
:102BB00051F4811141C14130510509F03DC180916D
:102BC000BE028D7F0BC0933061F4811135C141305D
:102BD000510509F031C18091BE0282608093BE022E
:102BE0002BC1953049F48091E80080FFFCCF822F03
:102BF00080688093E30020C1963009F05EC00B8DA1
:102C00001C8D22E01092E9001092C9061092C806AD
:102C1000F21232C01092C7061092C6060E94D61356
:102C200099E0BE016F5F7F4FDB01E92F1D92EA95AE
:102C3000E9F79983FA8291E09E8390EA98879AEF68
:102C400099872091C8063091C906275F3F4F3C8382
:102C50002B838D831092E9001092C9061092C8064A
:102C60001093C7060093C60649E050E080E00E943A
:102C7000AF130E94D613E0C01093C7060093C60698
:102C80000E94EC12DC0112960D911C911397011514
:102C9000110509F4BBC0D801ED91FC910480F581C8
:102CA000E02DBE016B5E7F4FC8010995009709F0CA
:102CB000C7C0F80100851185EACF973009F445C1F6
:102CC000983021F481E08093F100B6C0993009F08A
:102CD000B3C0837009F039C1E5E4F1E081E031E08F
:102CE00096E32081211109C08EE78093EA001092BB
:102CF000EA008F898093C0029FC08093E9003093DF
:102D0000EB0021912093EC009093ED008F5F8730D2
:102D100041F7EACF8B8D9C8D1092E9001092C90685
:102D20001092C8069093C7068093C606898D8111BC
:102D300053C08E899D89913A49F4813209F005C1C9
:102D400047E050E06CE071E080E0BBC0913209F0F8
:102D5000FCC0833269F48F89988DA0E0B0E0809345
:102D6000080190930901A0930A01B0930B0164C07C
:102D7000803269F48091E80082FFFCCF67E08CE04C
:102D800091E00E9408148BEF8093E80055C08232D6
:102D900009F052C08F8980931301EEEFFFE7859110
:102DA00094918B3F9C4D19F0E0E0F8E002C0EEEF0B
:102DB000FAE080910C0190910D01A0910E01B0916B
:102DC0000F01803B9440A105B10509F09EC08091A0
:102DD000130180FF79C099C00E94EC12FC010281AE
:102DE00013810115110509F4B0C0D801ED91FC91D2
:102DF0000190F081E02DBE016B5E7F4FC801099507
:102E000081111AC0F80100851185EBCFF1E0FF16A2
:102E100009F44EC0F3E0FF1298C08F89882309F4AB
:102E20004AC0823089F440E867E085E39DE00E9473
:102E30005029882309F489C08EEF8093E80088C068
:102E400018161906CCF381C0813029F440E86BE0F4
:102E500089E29DE0ECCF833009F077C00E94EC124C
:102E6000DC011296ED90FC9013978E010F5F1F4FBF
:102E70006801E114F10479F0D701ED91FC9106802D
:102E8000F781E02DB801C7010995080F111DF70161
:102E9000E084F184EECFD8011C92F601019000206D
:102EA000E9F73197BF016C197D0940E0C601BFCF3A
:102EB00067E17DE002C063E17DE0FB01449150E009
:102EC00080E80E94AF13B8CFEE3F2AE0F20751F03E
:102ED000808191818737A7E79A0721F09093FF0AB5
:102EE0008093FE0A87E797E7918380838091600053
:102EF0008093CA069BE088E10FB6F894A89580936A
:102F000060000FBE9093600097CF808191818737DA
:102F1000974709F091CFA8958091600088618093D0
:102F200060008091CA0680936000EE3FBAE0FB0724
:102F300039F08091FE0A9091FF0A918380837CCFC3
:102F40001092FF0A1092FE0A77CF81E28093EB0085
:102F50006C960FB6F894DEBF0FBECDBFDF91CF9158
:102F6000FF91EF91BF91AF919F918F917F916F9161
:102F70005F914F913F912F911F910F91FF90EF9093
:102F8000DF90CF900F900FBE0F901F9018958F92EB
:102F90009F92AF92BF92CF92DF92EF92FF926B011E
:102FA0007C010E9487184B015C01C114D104E1042B
:102FB000F104F1F00E948718DC01CB01881999090E
:102FC000AA09BB09883E9340A105B10570F321E031
:102FD000C21AD108E108F10888EE880E83E0981E35
:102FE000A11CB11CC114D104E104F10419F7DDCF17
:102FF000FF90EF90DF90CF90BF90AF909F908F9019
:1030000008958F929F92AF92BF92CF92DF92EF92EC
:10301000FF920F931F93CF93DF936C017B018A0183
:1030200080911301882309F45CC08091C002882339
:1030300009F457C08091BF0280FF05C08091E00075
:1030400082608093E000E801B12C8AEFA82E93E023
:10305000892E2AE3922E209711F4BB20D9F10E94E9
:10306000DB1281110AC0AA94AA20D9F161E070E0B4
:1030700080E090E00E94C717EECF282F30E0C21703
:10308000D3070CF48C2F9FB7F8948092E90020911D
:10309000E80025FF1DC0282F30E0C21BD30BF7012D
:1030A000815020F041914093F100FACFE20EF31EDF
:1030B000BB2019F09092E8000AC08091E80085FDDD
:1030C00007C09092E800BB24B394209709F0B12C7C
:1030D0009FBFC1CF5D9884E68093CB061016110682
:1030E00044F081E090E0F6019383828380E090E0F9
:1030F00001C0C801DF91CF911F910F91FF90EF9018
:10310000DF90CF90BF90AF909F908F9008953FB782
:10311000F8948091DE069091DF06A091E006B091D0
:10312000E10626B5A89B05C02F3F19F00196A11D09
:10313000B11D3FBFBA2FA92F982F8827820F911D4D
:10314000A11DB11DBC01CD0142E0660F771F881F94
:10315000991F4A95D1F708951F920F920FB60F92BB
:1031600011242F933F938F939F93AF93BF9380919D
:10317000D9069091DA06A091DB06B091DC06309179
:10318000DD0623E0230F2D3720F40196A11DB11D8C
:1031900005C026E8230F0296A11DB11D2093DD0670
:1031A0008093D9069093DA06A093DB06B093DC06F1
:1031B0008091DE069091DF06A091E006B091E106D5
:1031C0000196A11DB11D8093DE069093DF06A093AA
:1031D000E006B093E106BF91AF919F918F913F912F
:1031E0002F910F900FBE0F901F901895CF93DF93E4
:1031F000CDB7DEB7E0970FB6F894DEBF0FBECDBFF8
:10320000789484B5826084BD84B5816084BD85B5C1
:10321000826085BD85B5816085BD80916E008160CD
:1032200080936E0010928100809181008260809373
:103230008100809181008160809381008091800075
:1032400081608093800080919100826080939100E2
:1032500080919100816080939100809190008160C5
:10326000809390008091C10084608093C100809120
:10327000C10082608093C1008091C1008160809311
:10328000C1008091C30081608093C3008091C00021
:1032900082608093C0008091C20081608093C200F0
:1032A00080917A00846080937A0080917A008260B5
:1032B00080937A0080917A00816080937A00809177
:1032C0007A00806880937A001092C0021092BE0249
:1032D0001092BF028091D70081608093D70080EA6E
:1032E0008093D80089B5806189BD89B5826089BD28
:1032F00009B400FEFDCF61E070E080E090E00E9444
:10330000C7178091D8008F7C80618093D80080910E
:10331000E000807F8093E0008091E1008E7E8093CA
:10332000E1008DE08093E200559A209A81EC809331
:103330007C0085B1806F85B984B1877E84B984B102
:10334000876E84B95E9A5F988AB1806D8AB9769AE1
:103350006E9881B3806F81BB899880B38D7080BB7C
:1033600080E58CBD81E08DBD85E090E00E94CC0CB5
:103370005F9A85E090E00E94CC0C5E985C98EAE74A
:10338000F1E084918EBD00000DB407FEFDCF3196B3
:1033900021E0E738F207A9F75C9A81E8809364009E
:1033A0008091650081608093650081E592E00E94D4
:1033B000E60C0E94D10C87FF24C05C9885EA8EBD84
:1033C00000000DB407FEFDCF5C9A2E982F982D9823
:1033D0008091640080628093640081E083BF88955F
:1033E00013BEFCCF2D980E94D10C8478843871F0E4
:1033F0000E94D10C8471843131F188EC90E00E94FC
:10340000CC0C0E94D10C82FDEDCF3AC00E94CA0CB8
:1034100088EC90E00E94CC0C2F9882E090E00E9413
:10342000802B8F3F29F06FEF82E090E00E94882B85
:1034300084EF91E00E94CC0C2F9A0E94D10C8478EA
:103440008438D9F3D5CF0E94CA0C88EC90E00E9452
:10345000CC0C2E9882E090E00E94802B882329F0EB
:1034600060E082E090E00E94882B84EF91E00E946F
:10347000CC0C2E9A0E94D10C84718431D9F3BDCF2B
:103480000E94CA0C82E090E00E94D90C882319F0B7
:103490000E94E00C02C00E94DB0C81E090E00E94E0
:1034A000D90C382F3470932E81FF88C031112E989B
:1034B00000EF1FEFE8E0EE2EF12C0E94D10C86FF0A
:1034C00005C02E9A2F9A0E94CA0C78C0992029F024
:1034D0000430110511F42E9A2F9881E00E941514E2
:1034E000980117FF04C022273327201B310B2770B8
:1034F0003327C80117FD079673E0959587957A9550
:10350000E1F717FF05C00197A701421B530B9A0172
:10351000AC015695542F4427579547954A535D4F14
:10352000A0E0B0E03701621A730A8F3F6FEF960791
:103530004CF40196A85ABF4F40585F4FA03BB105CD
:10354000A1F720C05A01E4E9AE0EB11C6A0160E0A7
:1035500070E08F3FFFEF9F0711F40C944B25FB01A8
:10356000EA0FFB1FE653FF4FE491F0E02F01022E1C
:1035700001C0440C0A94EAF7F60184884828448A7A
:103580000C944B2581E592E00E94E60C8FE090E0E0
:103590000E94CC0C0F5F1F4F0931110509F08DCF30
:1035A000992011F02F9A2D9880E991E00E94CC0C7F
:1035B0000E94CA0C8DE492E00E940F2982E390E001
:1035C0000E94CC0C0E94D10C8111F8CF82E4809330
:1035D00058020E942414E7E8F1E00491E8E8F1E0E1
:1035E000E49042E0C42E20E030E049E851E060E0A1
:1035F00070E080E090E00E94E70A81E592E00E949E
:10360000E60C28EE33E041E851E06CEB72E089EA29
:1036100091E00E94C70A60ED77E080E090E00E94B0
:10362000C7178FB7F8944091D9065091DA06609188
:10363000DB067091DC068FBF80915902F42FF81BD6
:103640008F2F90915A02992331F0F0935B021092E0
:103650005A020C94412590915802F91758F48F5F43
:10366000891710F00C94412581E083BF889513BE23
:103670000C94412581E080935A0240935902809135
:1036800054029091550201969093550280935402F2
:1036900060917301709174016F5F7F4F709374013B
:1036A00060937301072E000C880B990B611571054F
:1036B0008105910511F00E941E2A0E9424142DEC10
:1036C0003CEC4CE45EE360916F017091700180917D
:1036D0007101909172010E94312C60936F0170937F
:1036E0007001809371019093720180910601909115
:1036F0000701892B09F00EC70E94D10C85FF16C067
:1037000020E030E040E851E46091890170918A0145
:1037100080918B0190918C010E94302C60938901E3
:1037200070938A0180938B0190938C010E94D10C3D
:1037300086FF16C020E030E040E851E46091890146
:1037400070918A0180918B0190918C010E94312CA3
:103750006093890170938A0180938B0190938C010F
:103760000E94D10C87FF16C020E030E040E052E418
:103770006091020170910301809104019091050113
:103780000E94312C60930201709303018093040125
:10379000909305010E94D10C84FF16C020E030E018
:1037A00040E052E4609102017091030180910401B4
:1037B000909105010E94302C6093020170930301E7
:1037C000809304019093050120E030E040E050E454
:1037D00060916B0170916C0180916D0190916E010F
:1037E0000E94312C60936B0170936C0180936D018A
:1037F00090936E012091850130918601409187015F
:10380000509188010E94312C60938501709386014C
:10381000809387019093880120E030E048EC53E4E6
:103820000E94892D18160CF0F0C080910001909133
:103830000101019790930101809300011816190668
:103840000CF07CC010926B0110926C0110926D0113
:1038500010926E0120E030E04AEF52E460911D02C8
:1038600070911E0280911F02909120020E94312CC3
:103870006093890170938A0180938B0190938C01EE
:1038800020E030E040E752EC209385013093860140
:10389000409387015093880180E090E0AAEFB2E462
:1038A0008093020190930301A0930401B09305015A
:1038B0003CE2E32EFF24F3940EE110E02CE231E031
:1038C0004AE550E06CE271E08EE091E00E949F0AD0
:1038D0000E9424144AE250E050935D0240935C023F
:1038E00080E290E090935F0280935E02609100011D
:1038F00070910101CE0107960E943714CE01019606
:103900000E948114BE01695F7F4FCE0101960E9423
:10391000A1140E94D41489819A810E947D2E8F81E6
:1039200098850E947D2E81E592E00E94E60C64E875
:1039300073E080E090E00E94C71767C020E2E22EAB
:1039400023E0F22E0EE110E020E233E04AE550E001
:1039500060E273E08EE091E00E949F0A0E942414CE
:10396000AAE2B0E0B0935D02A0935C02E0E2F0E076
:10397000F0935F02E0935E0260910001709101019B
:10398000CE0107960E943714CE0101960E94811441
:10399000BE01695F7F4FCE0101960E94A1140E9473
:1039A000D41489819A810E947D2E8F8198850E94EE
:1039B0007D2E81E592E00E94E60C60E679E080E0F1
:1039C00090E00E94C7170E94241488E290E0909330
:1039D0005D0280935C0220E230E030935F0220932E
:1039E0005E0287EC97E00E94DD1481E592E00E9480
:1039F000E60C68EB7BE080E090E00E94C71781E076
:103A000090E090930701809306014DE851E05E8BB2
:103A10004D8B8DEB91E09E8F8D8FAEE5B1E0BAA31B
:103A2000A9A39DEE292E91E0392EEDE1F2E0FC8F65
:103A3000EB8F1CA21BA218A21F8E80916A012BA1E2
:103A40003CA1032E000C440B550B2DA33EA34FA30A
:103A500058A7209102013091030140910401509137
:103A600005012D873E874F87588B882309F4FCC1B9
:103A70006DA17EA18FA198A50E94632A698B7A8B84
:103A80008B8B9C8B2D853E854F8558890E94302CD1
:103A900069A77AA78BA79CA78091890190918A0139
:103AA000A0918B01B0918C018F8B988FA98FBA8FC9
:103AB0009C01AD016D857E858F8598890E94312C92
:103AC00020E030E040EA50E40E94C22A0E948E2D9D
:103AD0002B013C0120E030E04AE754E469A57AA5D7
:103AE0008BA59CA50E945C2A87FF5BC0AD8DBE8D17
:103AF000AD90BD90CD90DC902091850130918601F4
:103B0000409187015091880160E070E0CB010E94F4
:103B1000302C6DA77EA78FA798AB20E030E040EA5D
:103B200050E4C301B2010E94C22A9B01AC016DA501
:103B30007EA58FA598A90E94312C2B013C012F89CD
:103B4000388D498D5A8DEB8DFC8D6081718182811C
:103B500093810E94302CAD89BE8913962C911397C6
:103B60002F9312962C9112972F9311962C911197B7
:103B70002F932C912F93F10123812F9322812F9347
:103B800021812F9320812F93E9A4FAA40BA51CA5D2
:103B9000A30192010E94E8100FB6F894DEBF0FBE99
:103BA000CDBF4090890150908A0160908B01709048
:103BB0008C014F8D58A14B30510509F0B0C0A09039
:103BC0006F01B0907001C0907101D090720120E03F
:103BD00030E040E05FE36091B9017091BA018091FB
:103BE000BB019091BC010E94C22A29893A894B8964
:103BF0005C890E94312C2D853E854F8558890E9415
:103C0000302C698B7A8B8B8B9C8BA30192016D85F9
:103C10007E858F8598890E94312C20E030E040EA33
:103C200050E40E94C22A0E948E2D6D877E878F8766
:103C3000988B8091190290911A02A0911B02B09169
:103C40001C02BC01CD019058209185013091860164
:103C500040918701509188010E94302C20E030E093
:103C600040E752E40E94302C6F8B788F898F9A8FB7
:103C700020E030E040EA50E46D857E858F859889AC
:103C80000E94C22A9B01AC016F89788D898D9A8D23
:103C90000E94312C6D877E878F87988B20E030E0E3
:103CA00040E05FE36091E9017091EA018091EB01EE
:103CB0009091EC010E94C22A2091490230914A025F
:103CC00040914B0250914C020E94312CA301920171
:103CD0000E94302C2B013C0120E030E04AE754E404
:103CE00069897A898B899C890E945C2A87FF2DC209
:103CF00020E030E0A90169897A898B899C890E943A
:103D0000892D18160CF021C2E988FA880B891C89C4
:103D10002D853E854F855889C301B20199C1A9A15E
:103D2000BAA18C91882309F410C220E030E040E071
:103D30005FE3ED89FE8960817181828193810E94B8
:103D4000C22A29893A894B895C890E94312C2D85A8
:103D50003E854F8558890E94302C698B7A8B8B8BDE
:103D60009C8BA30192016D857E858F8598890E9429
:103D7000312C20E030E040EA50E40E94C22A0E9448
:103D80008E2D6D877E878F87988B20E030E04AE705
:103D900054E469897A898B899C890E945C2A87FF0F
:103DA000D4C120E030E0A90169897A898B899C8996
:103DB0000E94892D18160CF0C8C1A0906F01B09018
:103DC0007001C0907101D0907201F10180819181E8
:103DD000A281B381BC01CD01905820918501309121
:103DE000860140918701509188010E94302C20E08B
:103DF00030E040E752E40E94302C6F8B788F898F3F
:103E00009A8F20E030E040EA50E46D857E858F8512
:103E100098890E94C22A9B01AC016F89788D898D97
:103E20009A8D0E94312C6D877E878F87988B20E03A
:103E300030E040E05FE3AD8DBE8D6D917D918D9161
:103E40009C910E94C22AEB8DFC8D208131814281A0
:103E500053810E94312CA30192010E94302CE988E9
:103E6000FA880B891C896BC16DA17EA18FA198A5D1
:103E70000E94632A2B013C012D853E854F85588980
:103E80000E94302C698B7A8B8B8B9C8B20E030E0EE
:103E90004AE754E40E945C2A87FF4FC0AD8DBE8D77
:103EA000AD90BD90CD90DC90209185013091860140
:103EB000409187015091880160E070E0CB010E9441
:103EC000302C6F8B788F898F9A8F20918901309158
:103ED0008A0140918B0150918C01EB8DFC8D6081AA
:103EE0007181828193810E94302CAD89BE891396A5
:103EF0002C9113972F9312962C9112972F93119622
:103F00002C9111972F932C912F93F10123812F93B3
:103F100022812F9321812F9320812F93E988FA8882
:103F20000B891C892F89388D498D5A8D0E94E81084
:103F30000FB6F894DEBF0FBECDBF4F8D58A14B30EA
:103F4000510509F088C0A0906F01B0907001C09039
:103F50007101D090720120E030E040E05FE36091B9
:103F6000B9017091BA018091BB019091BC010E948E
:103F7000C22AA30192010E94312C2D853E854F85D6
:103F800058890E94302C2B013C018091190290919C
:103F90001A02A0911B02B0911C02BC01CD019058E5
:103FA00020918501309186014091870150918801CF
:103FB0000E94302C20E030E040E752E40E94302C98
:103FC0006D877E878F87988B20E030E040E05FE34D
:103FD0006091E9017091EA018091EB019091EC010F
:103FE0000E94C22A2091490230914A0240914B021C
:103FF00050914C020E94312C2091890130918A010C
:1040000040918B0150918C010E94302C698B7A8BEE
:104010008B8B9C8B20E030E04AE754E4C301B20173
:104020000E945C2A87FF91C020E030E0A901C30113
:10403000B2010E94892D18160CF087C0830172010D
:104040002D853E854F85588969897A898B899C8918
:104050000E94200E7AC0A9A1BAA18C91882309F4EC
:1040600074C020E030E040E05FE3ED89FE896081CC
:104070007181828193810E94C22AA30192010E94D0
:10408000312C2D853E854F8558890E94302C2B017F
:104090003C0120E030E04AE754E40E945C2A87FFBC
:1040A00054C020E030E0A901C301B2010E94892D73
:1040B00018160CF04AC0A0906F01B0907001C0902B
:1040C0007101D0907201F10180819181A281B3814F
:1040D000BC01CD019058209185013091860140911D
:1040E0008701509188010E94302C20E030E040E7A9
:1040F00052E40E94302C6D877E878F87988B20E05A
:1041000030E040E05FE3AD8DBE8D6D917D918D918E
:104110009C910E94C22AEB8DFC8D208131814281CD
:1041200053810E94312C2091890130918A01409164
:104130008B0150918C010E94302C830172012D85DE
:104140003E854F8558890E94E90CAB8DBC8D8D90C2
:104150009D90AD90BD90BC8FAB8FC0908901D090E9
:104160008A01E0908B01F0908C01A7019601C501B6
:10417000B4010E945C2A18160CF483C120E030E0E0
:104180004AE753E4C501B4010E94312C9B01AC0104
:10419000C701B6010E945C2A18160CF472C1C090C7
:1041A0000201D0900301E0900401F09005016DA19F
:1041B0007EA18FA198A50E94632AA70196010E9463
:1041C0005C2A18160CF45DC16BA17CA166507F4F70
:1041D000072E000C880B990B0E94632A9B01AC01EF
:1041E000C701B6010E945C2A18160CF44AC1F101FD
:1041F00080819181A281B381BC01CD01905820E0E2
:1042000030E040E752E40E94302C2091850130914B
:10421000860140918701509188010E945C2A87FFA6
:1042200030C110926B0110926C0110926D011092CE
:104230006E012F8D38A12B30310509F0D9C00EE564
:1042400011E0FDE8EF2EF1E0FF2EADEBCA2EA1E06C
:10425000DA2EBDEEAB2EB1E0BB2E8DE1882E82E0D2
:10426000982E412C512C320168E572E080E090E0FC
:104270000E9477096C527140810991090E94632A5A
:10428000D4016D937D938D939D934D016CE271E00C
:1042900080E090E00E947709DC01CB018C529140D4
:1042A000A109B109BC01CD01640D751D861D971DC5
:1042B0000E94632AF50161937193819391935F0149
:1042C00068EC70E080E090E00E9477096C597F4FC5
:1042D0008F4F9F4F0E94632AD6016D937D938D93DC
:1042E0009D936D0168EC70E080E090E00E9477099A
:1042F0006C597F4F8F4F9F4F0E94632AF701619344
:104300007193819391937F01D801E1E0ED938D0149
:10431000F8EC4F0E511C611C711C20E6421629E07E
:1043200052066104710409F09FCFECE2EE2EFF24E7
:10433000F39404E610E02CE231E044E650E06CE255
:1043400071E08AE090E00E949F0A0E94241443E2F8
:1043500050E050935D0240935C0280E290E09093C5
:104360005F0280935E028CEB97E00E94DD1481E592
:1043700092E00E94E60C68EE73E080E090E00E941C
:10438000C71710926B0110926C0110926D01109280
:104390006E0120E030E04AEF52E460911D0270911E
:1043A0001E0280911F02909120020E94312C609386
:1043B000890170938A0180938B0190938C0120E096
:1043C00030E048E453EC209385013093860140931C
:1043D00087015093880180E090E0AAEFB2E48093D7
:1043E000020190930301A0930401B093050112C050
:1043F000A9A1BAA18C91882369F0A9A1BAA11C92A4
:1044000024E130E048EE53E064E170E084EF91E0B5
:104410000E94C70AB1E0B0936A01F10180819181E5
:10442000A281B381BC01CD01905820E030E040E78B
:1044300052E40E94302C4B015C01C0908501D09069
:104440008601E0908701F0908801A5019401C701E1
:10445000B6010E94892D18164CF0C0928501D092A9
:104460008601E0928701F09288010BC020E030E0E5
:1044700040E85FE3C701B6010E94302C6B017C016C
:10448000E4CF2F8D38A12F5F3F4F38A32F8F4BA143
:104490005CA14C505E4F5CA34BA354E0250E311C35
:1044A00089A19AA101969AA389A3AD8DBE8D149678
:1044B000BE8FAD8FED89FE893496FE8BED8B2C304F
:1044C000310509F0BACA0E94D10C83FFCDC2809198
:1044D0006A01882309F4C8C220E030E040EF51ECC3
:1044E00020936B0130936C0140936D0150936E01EA
:1044F00010926A0176E9E72EF12C0EE011E024E635
:1045000030E04AE550E062E370E08EE190E00E9426
:104510009F0AAAC22DEC3CEC4CE45EE360915A0188
:1045200070915B0180915C0190915D010E94312C42
:104530006B017C0160935A0170935B0180935C0175
:1045400090935D0120E030E040EC5FE30E94C22ADE
:104550000E949D2C4B015C01C701B6010E948E2D6B
:104560002B013C01EAEBF5E00491EBEBF5E0E49084
:1045700020E030E040E850E4C501B4010E94C22AC6
:104580000E94142D4B015C0120E030E040E850E433
:10459000C301B2010E94C22A0E94142DDC01CB018A
:1045A00062E0C62E20E030E04CEB55E0B4010E9402
:1045B000E70A20E030E0A9016091560170915701AF
:1045C00080915801909159010E945C2A81110FC07D
:1045D0008DE590E090935D0280935C0289E290E02B
:1045E00090935F0280935E0283EB95E00EC082E6BB
:1045F00090E090935D0280935C0289E290E090935A
:104600005F0280935E028DEA95E00E94DD14809146
:10461000550120E030E040E85FE3882351F16091EC
:1046200056017091570180915801909159010E9453
:104630005C2A81110FC08BE490E090935D0280931F
:104640005C0281E390E090935F0280935E0284EAD3
:1046500095E038C081E590E090935D0280935C0224
:1046600081E390E090935F0280935E028CE995E095
:1046700029C0609156017091570180915801909125
:1046800059010E945C2A81110FC08BE490E0909345
:104690005D0280935C0281E390E090935F028093DF
:1046A0005E0282E995E00EC081E590E090935D02A4
:1046B00080935C0281E390E090935F0280935E02BE
:1046C00089E895E00E94DD14809154018111AAC10E
:1046D0000E94D10C87FF1BC020E030E040E85FE380
:1046E0006091560170915701809158019091590144
:1046F0000E94302C609356017093570180935801AB
:104700009093590181E0809354010E94F8140E9413
:10471000D10C84FF1BC020E030E040E85FE36091F3
:1047200056017091570180915801909159010E9452
:10473000312C6093560170935701809358019093E8
:10474000590181E0809354010E94F8140E94D10C19
:1047500083FF34C120E030E040E85FE36091560120
:104760007091570180915801909159010E945C2AE3
:10477000811116C080915501882319F010925501BE
:104780000FC081E0809355010E94E00C24EF31E0DE
:1047900048EC50E064EF71E084E690E00E94C70AC4
:1047A00020E030E0A901609156017091570180919D
:1047B0005801909159010E945C2A8111FCC023E0AC
:1047C00030E030930101209300012DE1822E22E0A0
:1047D000922E3DEEA32E31E0B32E4DEBC42E41E0E0
:1047E000D42E5DE8E52E51E0F52E0EE511E0412CCA
:1047F000512C32013324339468E572E080E090E07C
:104800000E9477096C527140810991090E94632AC4
:10481000D4016D937D938D939D934D016CE271E076
:1048200080E090E00E947709DC01CB018C5291403E
:10483000A109B109BC01CD01640D751D861D971D2F
:104840000E94632AF50161937193819391935F01B3
:1048500068EC70E080E090E00E9477096C597F4F2F
:104860008F4F9F4F0E94632AD6016D937D938D9346
:104870009D936D0168EC70E080E090E00E94770904
:104880006C597F4F8F4F9F4F0E94632AF7016193AE
:104890007193819391937F01D8013D928D01B8EC82
:1048A0004B0E511C611C711CE0E64E16E9E05E06E1
:1048B0006104710409F0A0CF0E9424142AE230E0C0
:1048C00030935D0220935C0240E250E050935F021F
:1048D00040935E026091000170910101CE01079644
:1048E0000E943714CE0101960E948114BE01695FB7
:1048F0007F4FCE0101960E94A1140E94D414898199
:104900009A810E947D2E8F8198850E947D2E81E55F
:1049100092E00E94E60C10926B0110926C011092D2
:104920006D0110926E0120E030E04AEF52E4609198
:104930001D0270911E0280911F02909120020E9420
:10494000312C6093890170938A0180938B0190933D
:104950008C0180E090E0A0E7B2EC80938501909319
:104960008601A0938701B093880180E090E0AAEFD0
:10497000B2E48093020190930301A0930401B093E9
:10498000050194EFE92EFF24F3940EE110E024EFEB
:1049900031E040E951E064EF71E084E690E00E948C
:1049A0009F0A6CED75E080E090E00E94C7171092BE
:1049B00007011092060181E08093540120E030E06D
:1049C000A901609156017091570180915801909111
:1049D00059010E945C2A87FF08C01092560110926C
:1049E0005701109258011092590120E030E040E840
:1049F0005FE3609156017091570180915801909149
:104A000059010E94892D1816CCF480E090E0A0E8AE
:104A1000BFE38093560190935701A0935801B09340
:104A200059010CC00E94D10C87FD08C00E94D10C16
:104A300084FD04C00E94D10C83FF51C0A0905A0194
:104A4000B0905B01C0905C01D0905D01E12CF12C35
:104A500008E413E420E030E040EF51E460E070E06F
:104A600080E791EC0E94200E80915501882319F077
:104A70000E94E00C02C00E94DB0C81E592E00E94E3
:104A8000E60C80E090E0892B11F40C94111B0E943D
:104A900000000C94111B2115310591F0FB01EA0F68
:104AA000FB1FE653FF4FE491F0E02F01062C02C0FC
:104AB000559447940A94E2F7F50180804828408293
:104AC0006F5F7F4FFFEFAF1ABF0AEFEFCE1ADE0A1C
:104AD0006835710511F00C94A91A0C94991A10926A
:104AE0005401ACCFEF92FF920F931F93CF93DF93BC
:104AF000E4E6F2E01382128288EE93E0A0E0B0E0F8
:104B000084839583A683B78382E291E09183808337
:104B10008FEF9FEF95878487EDE4F2E01382128296
:104B20001186128680E1838710861782158684E3BA
:104B300091E09183808382E491E095838483108A5D
:104B40001786128A118A81E0838B148A858B168AD4
:104B500068E572E080E090E00E9477090DE112E0E4
:104B60006C527140810991090E94632AF8016083A7
:104B700071838283938368E572E080E090E00E9415
:104B800077096C527140810991090E94632AF801EA
:104B9000648375838683978368E572E080E090E0A4
:104BA0000E9477096C527140810991090E94632A21
:104BB000F801608771878287938768E572E080E0FB
:104BC00090E00E9477096C527140810991090E941E
:104BD000632AF801648775878687978768E572E09E
:104BE00080E090E00E9477096C5271408109910940
:104BF0000E94632AF801608B718B828B938B68E52E
:104C000072E080E090E00E9477096C527140810967
:104C100091090E94632AF801648B758B868B978BB0
:104C200068E572E080E090E00E9477096C52714084
:104C3000810991090E94632AF801608F718F828F28
:104C4000938F68E572E080E090E00E9477096C52F3
:104C50007140810991090E94632AF801648F758F60
:104C6000868F978F68E572E080E090E00E94770978
:104C70006C527140810991090E94632AF80160A376
:104C800071A382A393A368E572E080E090E00E94A4
:104C900077096C527140810991090E94632AF801D9
:104CA00064A375A386A397A368E572E080E090E013
:104CB0000E9477096C527140810991090E94632A10
:104CC000F80160A771A782A793A768E572E080E06A
:104CD00090E00E9477096C527140810991090E940D
:104CE000632AF80164A775A786A797A760E971E012
:104CF00080E090E00E947709CDEED1E0685C710918
:104D0000810991090E94632A688379838A839B833E
:104D100060E971E080E090E00E947709685C7109C9
:104D2000810991090E94632A6C837D838E839F830E
:104D300060E971E080E090E00E947709685C7109A9
:104D4000810991090E94632A688779878A879B87EE
:104D500060E971E080E090E00E947709685C710989
:104D6000810991090E94632A6C877D878E879F87BE
:104D700060E971E080E090E00E947709685C710969
:104D8000810991090E94632A688B798B8A8B9B8B9E
:104D900060E971E080E090E00E947709685C710949
:104DA000810991090E94632A6C8B7D8B8E8B9F8B6E
:104DB00060E971E080E090E00E947709685C710929
:104DC000810991090E94632A688F798F8A8F9B8F4E
:104DD00060E971E080E090E00E947709685C710909
:104DE000810991090E94632A6C8F7D8F8E8F9F8F1E
:104DF00060E971E080E090E00E947709685C7109E9
:104E0000810991090E94632A68A379A38AA39BA3BD
:104E100060E971E080E090E00E947709685C7109C8
:104E2000810991090E94632A6CA37DA38EA39FA38D
:104E300060E971E080E090E00E947709685C7109A8
:104E4000810991090E94632A68A779A78AA79BA76D
:104E500060E971E080E090E00E947709685C710988
:104E6000810991090E94632A6CA77DA78EA79FA73D
:104E700068EC70E080E090E00E9477092DEBE22E74
:104E800021E0F22E6C597F4F8F4F9F4F0E94632A73
:104E9000F701608371838283938368EC70E080E024
:104EA00090E00E9477096C597F4F8F4F9F4F0E946F
:104EB000632AF701648375838683978368EC70E0C7
:104EC00080E090E00E9477096C597F4F8F4F9F4F91
:104ED0000E94632AF701608771878287938768EC55
:104EE00070E080E090E00E9477096C597F4F8F4F0F
:104EF0009F4F0E94632AF70164877587868797878B
:104F000068EC70E080E090E00E9477096C597F4F78
:104F10008F4F9F4F0E94632AF701608B718B828BAA
:104F2000938B68EC70E080E090E00E9477096C5908
:104F30007F4F8F4F9F4F0E94632AF701648B758BC1
:104F4000868B978B68EC70E080E090E00E94770998
:104F50006C597F4F8F4F9F4F0E94632AF701608FDC
:104F6000718F828F938F68EC70E080E090E00E94F8
:104F700077096C597F4F8F4F9F4F0E94632AF7012B
:104F8000648F758F868F978F68EC70E080E090E07B
:104F90000E9477096C597F4F8F4F9F4F0E94632A61
:104FA000F70160A371A382A393A368EC70E080E093
:104FB00090E00E9477096C597F4F8F4F9F4F0E945E
:104FC000632AF70164A375A386A397A368EC70E036
:104FD00080E090E00E9477096C597F4F8F4F9F4F80
:104FE0000E94632AF70160A771A782A793A768ECC4
:104FF00070E080E090E00E9477096C597F4F8F4FFE
:105000009F4F0E94632AF70164A775A786A797A7F9
:1050100068EC70E080E090E00E9477093DE8E32EC4
:1050200031E0F32E6C597F4F8F4F9F4F0E94632AC0
:10503000F701608371838283938368EC70E080E082
:1050400090E00E9477096C597F4F8F4F9F4F0E94CD
:10505000632AF701648375838683978368EC70E025
:1050600080E090E00E9477096C597F4F8F4F9F4FEF
:105070000E94632AF701608771878287938768ECB3
:1050800070E080E090E00E9477096C597F4F8F4F6D
:105090009F4F0E94632AF7016487758786879787E9
:1050A00068EC70E080E090E00E9477096C597F4FD7
:1050B0008F4F9F4F0E94632AF701608B718B828B09
:1050C000938B68EC70E080E090E00E9477096C5967
:1050D0007F4F8F4F9F4F0E94632AF701648B758B20
:1050E000868B978B68EC70E080E090E00E947709F7
:1050F0006C597F4F8F4F9F4F0E94632AF701608F3B
:10510000718F828F938F68EC70E080E090E00E9456
:1051100077096C597F4F8F4F9F4F0E94632AF70189
:10512000648F758F868F978F68EC70E080E090E0D9
:105130000E9477096C597F4F8F4F9F4F0E94632ABF
:10514000F70160A371A382A393A368EC70E080E0F1
:1051500090E00E9477096C597F4F8F4F9F4F0E94BC
:10516000632AF70164A375A386A397A368EC70E094
:1051700080E090E00E9477096C597F4F8F4F9F4FDE
:105180000E94632AF70160A771A782A793A768EC22
:1051900070E080E090E00E9477096C597F4F8F4F5C
:1051A0009F4F0E94632AF70164A775A786A797A758
:1051B00020E030E04AEF52E4F801608171818281A1
:1051C00093810E94312C6093890170938A018093AE
:1051D0008B0190938C0188819981AA81BB81B05801
:1051E0008093850190938601A0938701B0938801F5
:1051F0008EE097E0909384018093830180E090E8B3
:10520000909382018093810146983E9A47983F9AF5
:10521000DF91CF911F910F91FF90EF9008950F9321
:105220001F93CF93DF93EC0181E090E00E94D90CB3
:1052300080FF2EC08AE090E00E94D90C9FEF980F6B
:105240009E3F30F522E330E0388B2F8728E330E0B3
:105250003A8B298B0BE010E0E881F9810190F08115
:10526000E02D682FCE010995C8010E94D90C0F5F6F
:105270001F4F0131110581F7CE0104960E94E60C03
:1052800088EE93E0DF91CF911F910F910C94CC0C9D
:10529000DF91CF911F910F91089504970C940F29DE
:1052A000DF92EF92FF920F931F93CF93DF93D82E4D
:1052B000F92EE42E062F10E0C8010196880F0E94F7
:1052C000811383E00E948113CD2DDF2D0C0F1D1F54
:1052D000C017D10789F0E7FE03C0FE01849101C029
:1052E00088810E948113F82E80E00E9481138F2113
:1052F00021968111EDCF01C081E0DF91CF911F9107
:105300000F91FF90EF90DF9008958F929F92AF9250
:10531000BF92CF92DF92EF92FF92CF93DF93EC0197
:10532000688179818A819B8161157105810591056B
:1053300021F464E279ED8BE597E02DE133EF41E074
:1053400050E00E94962B49015A019B01AC01A7EA4B
:10535000B1E40E94B52B6B017C01ACEEB4EFA5016A
:1053600094010E94C32BDC01CB018C0D9D1DAE1D51
:10537000BF1DB7FF03C00197A109B0488883998377
:10538000AA83BB83BC01CD019F77DF91CF91FF90B2
:10539000EF90DF90CF90BF90AF909F908F90089547
:1053A0008F929F92AF92BF92CF92DF92EF92FF9235
:1053B000609114017091150180911601909117016F
:1053C000611571058105910521F464E279ED8BE5A4
:1053D00097E02DE133EF41E050E00E94962B490128
:1053E0005A019B01AC01A7EAB1E40E94B52B6B0105
:1053F0007C01ACEEB4EFA50194010E94C32BDC014B
:10540000CB018C0D9D1DAE1DBF1DB7FF03C00197C5
:10541000A109B0488093140190931501A09316013F
:10542000B0931701BC01CD019F77FF90EF90DF9003
:10543000CF90BF90AF909F908F900895609314018C
:105440007093150180931601909317010895BB275F
:105450004A3031F4992322F4BDE2909581959F4F13
:105460000C94332ABB27FB015527AA27880F991FC5
:10547000AA1FA41710F0A41B83955051B9F7A05D83
:10548000AA3308F0A95DA193009779F7B111B19300
:105490001192CB010C944C2ADC01FC01672F719115
:1054A0007723E1F7329704C07C916D93708362910A
:1054B000AE17BF07C8F308950E949E2A08F481E042
:1054C0000895E89409C097FB3EF4909580957095F7
:1054D00061957F4F8F4F9F4F9923A9F0F92F96E940
:1054E000BB279395F695879577956795B795F111B5
:1054F000F8CFFAF4BB0F11F460FF1BC06F5F7F4F52
:105500008F4F9F4F16C0882311F096E911C0772363
:1055100021F09EE8872F762F05C0662371F096E86C
:10552000862F70E060E02AF09A95660F771F881F3B
:10553000DAF7880F9695879597F90895990F0008DF
:10554000550FAA0BE0E8FEEF16161706E807F90755
:10555000C0F012161306E407F50798F0621B730BF0
:10556000840B950B39F40A2661F0232B242B252B71
:1055700021F408950A2609F4A140A6958FEF811D14
:10558000811D08950E94D52A0C94462B0E94382B29
:1055900038F00E943F2B20F0952311F00C942F2B14
:1055A0000C94352B11240C947A2B0E94572B70F3FA
:1055B000959FC1F3950F50E0551F629FF001729FB8
:1055C000BB27F00DB11D639FAA27F00DB11DAA1FC7
:1055D000649F6627B00DA11D661F829F2227B00D14
:1055E000A11D621F739FB00DA11D621F839FA00D9F
:1055F000611D221F749F3327A00D611D231F849FEF
:10560000600D211D822F762F6A2F11249F57504045
:105610009AF0F1F088234AF0EE0FFF1FBB1F661FC0
:10562000771F881F91505040A9F79E3F510580F089
:105630000C942F2B0C947A2B5F3FE4F3983ED4F319
:10564000869577956795B795F795E7959F5FC1F72D
:10565000FE2B880F911D9695879597F9089597F9D8
:105660009F6780E870E060E008959FEF80EC089508
:1056700000240A9416161706180609060895002431
:105680000A9412161306140605060895092E0394AB
:10569000000C11F4882352F0BB0F40F4BF2B11F41F
:1056A00060FF04C06F5F7F4F8F4F9F4F089557FD7E
:1056B0009058440F551F59F05F3F71F04795880F80
:1056C00097FB991F61F09F3F79F087950895121617
:1056D00013061406551FF2CF4695F1DF08C01616C3
:1056E00017061806991FF1CF869571056105089474
:1056F0000895E894BB2766277727CB0197F908958B
:10570000F999FECF92BD81BDF89A992780B5089589
:10571000262FF999FECF1FBA92BD81BD20BD0FB6CD
:10572000F894FA9AF99A0FBE01960895052E97FB00
:105730001EF400940E94AD2B57FD07D00E94FF2B52
:1057400007FC03D04EF40C94AD2B5095409530954A
:1057500021953F4F4F4F5F4F0895909580957095DD
:1057600061957F4F8F4F9F4F08950E94212CA59FD9
:10577000900DB49F900DA49F800D911D112408954C
:10578000B7FF0C94B52B0E94B52B821B930B089589
:105790002F923F924F925F926F927F928F929F9241
:1057A000AF92BF92CF92DF92EF92FF920F931F932F
:1057B000CF93DF93CDB7DEB7CA1BDB0B0FB6F894E0
:1057C000DEBF0FBECDBF09942A88398848885F8420
:1057D0006E847D848C849B84AA84B984C884DF8091
:1057E000EE80FD800C811B81AA81B981CE0FD11D75
:1057F0000FB6F894DEBF0FBECDBFED010895A1E254
:105800001A2EAA1BBB1BFD010DC0AA1FBB1FEE1F3A
:10581000FF1FA217B307E407F50720F0A21BB30B85
:10582000E40BF50B661F771F881F991F1A9469F701
:1058300060957095809590959B01AC01BD01CF015D
:105840000895A29FB001B39FC001A39F700D811D59
:105850001124911DB29F700D811D1124911D089579
:105860005058BB27AA270E94482C0C94462B0E9414
:10587000382B38F00E943F2B20F039F49F3F19F469
:1058800026F40C94352B0EF4E095E7FB0C942F2BAB
:10589000E92F0E94572B58F3BA1762077307840742
:1058A000950720F079F4A6F50C94792B0EF4E09589
:1058B0000B2EBA2FA02D0B01B90190010C01CA01CA
:1058C000A0011124FF27591B99F0593F50F4503E75
:1058D00068F11A16F040A22F232F342F4427585F67
:1058E000F3CF469537952795A795F0405395C9F77F
:1058F0007EF41F16BA0B620B730B840BBAF0915037
:10590000A1F0FF0FBB1F661F771F881FC2F70EC0D5
:10591000BA0F621F731F841F48F4879577956795A8
:10592000B795F7959E3F08F0B0CF9395880F08F094
:105930009927EE0F9795879508950E944C2DE39532
:105940000C94752D0E94B62C0C94462B0E943F2B74
:1059500058F00E94382B40F029F45F3F29F00C9456
:105960002F2B51110C947A2B0C94352B0E94572B12
:1059700068F39923B1F3552391F3951B550BBB277E
:10598000AA2762177307840738F09F5F5F4F220FC3
:10599000331F441FAA1FA9F335D00E2E3AF0E0E8BA
:1059A00032D091505040E695001CCAF72BD0FE2F04
:1059B00029D0660F771F881FBB1F26173707480798
:1059C000AB07B0E809F0BB0B802DBF01FF27935850
:1059D0005F4F3AF09E3F510578F00C942F2B0C94BA
:1059E0007A2B5F3FE4F3983ED4F3869577956795DD
:1059F000B795F7959F5FC9F7880F911D9695879585
:105A000097F90895E1E0660F771F881FBB1F6217A3
:105A100073078407BA0720F0621B730B840BBA0B61
:105A2000EE1F88F7E09508950E941B2D6894B11130
:105A30000C947A2B08950E945F2B88F09F5798F062
:105A4000B92F9927B751B0F0E1F0660F771F881F83
:105A5000991F1AF0BA95C9F714C0B13091F00E949D
:105A6000792BB1E008950C94792B672F782F882734
:105A7000B85F39F0B93FCCF3869577956795B395C4
:105A8000D9F73EF490958095709561957F4F8F4F33
:105A90009F4F08950C94352B0E945F2BD8F3E89408
:105AA000E0E0BB279F57F0F02AED3FE049EC06C04D
:105AB000EE0FBB0F661F771F881F28F0B23A6207F0
:105AC0007307840728F0B25A620B730B840BE395BB
:105AD0009A9572F7803830F49A95BB0F661F771F3E
