:100000000C94C6060C94EE060C94EE060C94EE06C8
:100010000C94EE060C94EE060C94EE060C94EE0690
:100020000C94EE060C94EE060C9438150C94AA155C
:100030000C94EE060C94EE060C94EE060C94EE0670
:100040000C94EE060C94EE060C94EE060C94EE0660
:100050000C94EE060C94EE060C94EE060C9422180A
:100060000C94EE060C94EE060C94EE060C94EE0640
:100070000C94EE060C94EE060C94EE060C94EE0630
:100080000C94020B0C94EE060C94EE060C94EE0607
:100090000C94EE060C94EE060C94EE060C94EE0610
:1000A0000C94EE060C94EE060C94EE0605A84CCDCE
:1000B000B2D44EB93836A9020C50B9918688083CA2
:1000C000A6AAAA2ABE000000803FF0F89C8E878373
:1000D000878E9CF8F00000FEFF0303030303070E66
:1000E000FCF80000FEFF0303030303070EFCF80007
:1000F00000FFFF00000000000000FFFF0000FEFF07
:100100008383838383C7EE7C380000F8FC0E0703EB
:100110000303070EFCF800003F7FE0C08080C0E0D2
:100120007F3FFFFF01010101010101FFFF0000FF0F
:10013000FF0C0C0C0C1C3E77E3C100007FFFC0C01D
:10014000C0C0C0E0703F1F00001F3F70E0C0C0C0D3
:10015000E0703F1F00007FFFC1C1C1C1C1E3773E16
:100160001C00001F3F70E0C0C0C0E0703F1F0000D7
:1001700000000001FFFF01000000D5F08D14A1C8B0
:1001800081CFD9F1AF2000804000000000000000C6
:10019000000000000000000000000000000000005F
:1001A000000000000000000000000000000000004F
:1001B000000000000000000000000000000000003F
:1001C000000000000000000000000000000000002F
:1001D000000000000000000000000000000000001F
:1001E000000000000000000000000000000000000F
:1001F00000000000000000000000000000000000FF
:1002000000000000000000000000000000000000EE
:1002100000000000000000000000000000000000DE
:1002200000000000000000000000000000000000CE
:1002300000000000000000000000000000000000BE
:1002400000000000000000000000000000000000AE
:10025000000000000000000000000000000000009E
:10026000000000000000000000000000000000008E
:10027000000000000000000000000000000000007E
:10028000000000000000000000000000000000006E
:1002900000000000000000000000008080808080DE
:1002A00080808000808080808080808080C080000E
:1002B000000000808080800000000000008000803E
:1002C0008080808080808000C0800000000080806E
:1002D000008080808080808080008080000000001E
:1002E000000000008000808080808080808000800E
:1002F000808080808080800000000000000000007E
:1003000000000000000000000000000000000000ED
:1003100000000000000000000000006F6F6D6D6DB8
:100320006D7D7D406171797D6F67636100010307B9
:100330007E7E070301007F7F0E1C1C0E7F7F007FE7
:100340007F616161617F7F007F7F070E1C387FFFC7
:1003500000FDFD0D0D0D0D0F0F007F7F60606060D3
:100360006060007F7F007F7F6D6D6D6D7F7F007FA0
:100370007F6D6D6D6D7F7F0000000000000000004C
:10038000000000000000000000000000000000006D
:10039000000000000000000000000000000000005D
:1003A000000000000000000000000000000000004D
:1003B00000000000000000000000000000F8F81835
:1003C000181898F8F800F8F8D8D8D8D8D8D800F87D
:1003D000F8C1E070381808000000000000000000BC
:1003E000000000000000000000000000000000000D
:1003F00000000000000000000000000000000000FD
:1004000000000000000000000000000000000000EC
:1004100000000000000000000000000000000000DC
:1004200000000000000000000000000000000000CC
:10043000000000000000000000000000007F3F1CE2
:100440000E0703010000070706060606060600075A
:100450000301000000000000000000000000000098
:10046000000000000000000000000000000000008C
:10047000000000000000000000000000000000007C
:10048000000000000000000000000000000000006C
:10049000000000000000000000000000000000005C
:1004A000000000000000000000000000000000004C
:1004B000000000000000000000000000000000003C
:1004C000000000000000000000000000000000002C
:1004D000000000000000000000000000000000001C
:1004E000000000000000000000000000000000000C
:1004F00000000000000000000000000000000000FC
:1005000000000000000000000000000000000000EB
:1005100000000000000000000000000000000000DB
:1005200000000000000000000000000000000000CB
:1005300000000000000000000000000000000000BB
:1005400000000000000000000000000000000000AB
:10055000000000000000000000000000000000009B
:10056000000000000000000000000000000000008B
:10057000000000000000000000000000000000007B
:10058000000000000000000000536E643A204F6637
:1005900066003E536E643A204F666600536E643ABE
:1005A000204F6E003E536E643A204F6E00537461CC
:1005B0007274003E53746172740080200000000069
:1005C000000000000000000000000000000000002B
:1005D000000000000000000000000000000000001B
:1005E000000000000000000000000000000000000B
:1005F00000000000000000000000000000000000FB
:1006000000000000000000000000000000000000EA
:1006100000000000000000000000000000000000DA
:1006200000000000000000000000000000000000CA
:1006300000000000000000000000000000000000BA
:10064000CFCFCFCFCFCFCFCFCFCFFFFFFFFF00FF99
:10065000FFFF0F0F0F0F0F0F0FFFFFFFFF00FFFF39
:10066000FF0F0F0F0F0F0F0FFFFFFFFF00FFFFFF29
:10067000CFCFCFCFCFCFCFCFCFCFCF000F0F0F0F59
:100680000FFFFFFF0F0F0F0F0F0F00FFFFFF0F0FE9
:100690000F0F0F0F0FFFFFFFFF00CFCFCFCFCFCF39
:1006A000CFCFCFCFFFFFFFFF00FFFFFFCFCFCFCFD9
:1006B000CFCFCFCFCFCFCF00000000000000000091
:1006C0003F3F3F010107070F3F3FF9F9F1F1003FBD
:1006D0003F3F383838383838383F3F3F3F003F3F9A
:1006E0003F383838383838383F3F3F3F00FFFFFF4A
:1006F00001010101010101010101010000000000EF
:10070000003F3F3F000000000000003F3F3F3838FF
:1007100038383838383F3F3F3F00FFFFFF010101C5
:100720000101010101010101003939393939393932
:100730003939393F3F3F3F00000000000000000012
:1007400000000000000000000000000001010000A7
:100750000000000000000000000000000000000099
:100760000000000000000000000000000001010087
:100770000000000000000000000000000000000079
:100780000000000000000000000000000000000069
:100790000000000000000000000001010000000057
:1007A0000000000000000000000000000000000049
:1007B0000000000000000000000000002010000009
:1007C0000000000000000000000000000000000029
:1007D0000000000000000000000000FF55FFE0A046
:1007E000E0A0E0A0E0A0E0A0E0A0E0A0E0A0E0A009
:1007F000E0A0E0A0E0A0E0A0E0A0E0BFD5FF4E6553
:100800007874205374616765004E65772042657384
:1008100074210047616D65204F766572000000000D
:1008200000003E5B4F5B3E3E6B4F6B3E1C3E7C3E92
:100830001C183C7E3C181C577D571C1C5E7F5E1CA0
:1008400000183C1800FFE7C3E7FF0018241800FF5A
:10085000E7DBE7FF30483A060E2629792926407F54
:10086000050507407F05253F5A3CE73C5A7F3E1C63
:100870001C08081C1C3E7F14227F22145F5F005F4F
:100880005F06097F017F006689956A60606060602D
:1008900094A2FFA29408047E040810207E20100871
:1008A000082A1C08081C2A08081E101010100C1E0C
:1008B0000C1E0C30383E3830060E3E0E060000008E
:1008C000000000005F00000007000700147F147F95
:1008D00014242A7F2A1223130864623649562050B2
:1008E0000008070300001C2241000041221C002ACE
:1008F0001C7F1C2A08083E08080080703000080889
:10090000080808000060600020100804023E5149F9
:10091000453E00427F400072494949462141494DC8
:10092000331814127F1027454545393C4A4949314F
:1009300041211109073649494936464949291E00CE
:100940000014000000403400000008142241141478
:10095000141414004122140802015909063E415D95
:10096000594E7C1211127C7F494949363E41414122
:10097000227F4141413E7F494949417F090909019F
:100980003E414151737F0808087F00417F410020AC
:1009900040413F017F081422417F404040407F0298
:1009A0001C027F7F0408107F3E4141413E7F0909C0
:1009B00009063E4151215E7F0919294626494949C8
:1009C0003203017F01033F4040403F1F2040201F72
:1009D0003F4038403F631408146303047804036104
:1009E00059494D43007F4141410204081020004114
:1009F00041417F040201020440404040400003079F
:100A0000080020545478407F2844443838444444F3
:100A100028384444287F385454541800087E09026A
:100A200018A4A49C787F0804047800447D4000202A
:100A300040403D007F1028440000417F40007C047E
:100A40007804787C080404783844444438FC18243A
:100A5000241818242418FC7C08040408485454540E
:100A60002404043F44243C4040207C1C2040201CA3
:100A70003C4030403C44281028444C9090907C44AA
:100A800064544C44000836410000007700000041E7
:100A900036080002010204023C2623263C1EA1A1C6
:100AA00061123A4040207A385454555921555579AD
:100AB000412154547841215554784020545579406F
:100AC0000C1E5272123955555559395454545939CE
:100AD000555454580000457C410002457D420001B8
:100AE000457C40F0292429F0F0282528F07C545535
:100AF00045002054547C547C0A097F4932494949B5
:100B0000323248484832324A4848303A4141217AE4
:100B10003A42402078009DA0A07D39444444393DAC
:100B20004040403D3C24FF2424487E4943662B2F0F
:100B3000FC2F2BFF0929F620C0887E09032054547E
:100B400079410000447D413048484A3238404022D3
:100B50007A007A0A0A727D0D19317D2629292F28FB
:100B6000262929292630484D402038080808080839
:100B7000080808382F10C8ACBA2F102834FA000023
:100B80007B000008142A142222142A14089500223B
:100B90000095AA005500AAAA55AA55AA000000FF70
:100BA00000101010FF00141414FF001010FF00FFBD
:100BB0001010F010F0141414FC001414F700FF00CF
:100BC00000FF00FF1414F404FC141417101F10107D
:100BD0001F101F1414141F00101010F0000000004C
:100BE0001F101010101F10101010F010000000FF48
:100BF000101010101010101010FF10000000FF1443
:100C00000000FF00FF00001F10170000FC04F41498
:100C1000141710171414F404F40000FF00F7141450
:100C20001414141414F700F7141414171410101FCC
:100C3000101F141414F4141010F010F000001F1002
:100C40001F0000001F14000000FC140000F010F052
:100C50001010FF10FF141414FF141010101F0000C8
:100C60000000F010FFFFFFFFFFF0F0F0F0F0FFFFDB
:100C7000FF0000000000FFFF0F0F0F0F0F3844446C
:100C800038447C2A2A3E147E02020606027E027E38
:100C90000263554941633844443C04407E201E2091
:100CA00006027E020299A5E7A5991C2A492A1C4C36
:100CB0007201724C304A4D4D303048784830BC6239
:100CC0005A463D3E494949007E0101017E2A2A2AB1
:100CD0002A2A44445F444440514A444040444A51D3
:100CE000400000FF0103E080FF000008086B6B0874
:100CF0003612362436060F090F06000018180000B9
:100D0000001010003040FF0101001F01011E0019FA
:100D10001D1712003C3C3C3C0000000000080B008A
:100D20000202020100090400000102020000052481
:100D30000010010524010101042402060524060017
:100D4000010705810310004009040100020A0000A8
:100D5000000705020240000007058302400000046E
:100D600003090412010002EF020140412336800012
:100D7000010102030141726475696E6F204C4C439E
:100D80000041726475626F7900009D2611241FBEB8
:100D9000CFEFDAE0DEBFCDBF11E0A0E0B1E0ECE1E3
:100DA000F2E602C005900D92A436B107D9F726E00D
:100DB000A4E6B1E001C01D92A83FB207E1F716E03A
:100DC000C6ECD6E004C02197FE010E940A2FC53C64
:100DD000D107C9F70E946C180C940C310C940000D8
:100DE000CF92DF92EF92FF920F931F93CF93DF93F7
:100DF0006C017A018B01C0E0D0E0CE15DF0581F0F7
:100E0000D8016D918D01D601ED91FC910190F08199
:100E1000E02DC6010995892B11F02196EECF7E01B8
:100E2000C701DF91CF911F910F91FF90EF90DF905D
:100E3000CF9008958091D802E091D602F091D70228
:100E4000882349F0CF0102969093D7028093D6026F
:100E5000859194910895CF0102969093D702809343
:100E6000D6028081918108958091C60208958038CC
:100E70009105B8F460347105A0F490E121E061FDC2
:100E800024E060FD220F62FD2295687F969FD001CD
:100E90001124A80FA752BD4F8C91822B40FF8227AF
:100EA0008C9308952F923F924F925F926F927F9210
:100EB0008F929F92AF92BF92CF92DF92EF92FF926A
:100EC0000F931F93CF93DF93CDB7DEB727970FB65E
:100ED000F894DEBF0FBECDBF9F838E836A30A1F42E
:100EE000DC0155962C91559751968D919C91529776
:100EF000B8E02B9F800D911D1124EE81FF81928B14
:100F0000818B108A1786ADC06D3009F4AAC0AE81FE
:100F1000BF811F960D911C91509700381105BCF0B0
:100F2000EE81FF812589422F50E087859089F6E088
:100F30002F9F800D911D1124AE81BF8150969C93EF
:100F40008E931F9756962C91211175C08AC0EE8101
:100F5000FF8181889288F0E48F1691040CF7AE81AE
:100F6000BF8155963C90C801B5E03B9E800D911D18
:100F7000112418161906A4F6432C512CC401E8E0DC
:100F80003E9E800D911D1124181619064CF6AE8157
:100F9000BF815496BC91BC83EE81FF81F389FD83B0
:100FA00025E0629FB0011124CB01835E974F3C0185
:100FB0001982F3012490F981F53009F4212C6401A0
:100FC00028E02B8320FE03C03D813A8302C08C8140
:100FD0008A839A81911104C0AC81BD81AB17B9F0AD
:100FE00078018E2D801B831590F456018A2D8C1963
:100FF000831548F44A81B501C7010E943707EFEF16
:10100000AE1ABE0AF3CFFFEFEF1AFF0AEACF26941B
:101010002B8121502B83C40CD51C2111D3CF3981B6
:101020003F5F3983040D151DC30101963C01363025
:1010300009F0BFCF75CF6AEF64039001659F300D53
:10104000112420583F4F281739075CF4AE81BF8127
:10105000ED91FC9111970190F081E02D6AE0CD01B6
:10106000099581E090E027960FB6F894DEBF0FBE99
:10107000CDBFDF91CF911F910F91FF90EF90DF9047
:10108000CF90BF90AF909F908F907F906F905F9028
:101090004F903F902F9008950895089580E090E03C
:1010A00008952F923F924F925F926F927F928F920C
:1010B0009F92AF92BF92CF92DF92EF92FF920F93E7
:1010C0001F93CF93DF93CDB7DEB766970FB6F89433
:1010D000DEBF0FBECDBF6F87788B898B9A8B2B833A
:1010E0003C834D835E83EB8AFC8A0D8B1E8B20E054
:1010F00030E048EC52E46FA578A989A99AA90E942A
:10110000CD2D2B013C019B01AC016BA57CA58DA5D0
:101110009EA50E94CD2D20E030E040E052E40E94E8
:101120005C2D0E943F2E6F83788789879A872F8155
:1011300038853A832983A3019201C601B5010E9433
:10114000CD2D20E030E040E852E40E945C2D0E946A
:101150003F2E6B877C878D879E872B843C8420E085
:1011600030E048EC52E4C801B7010E94CD2D4B019C
:101170005C019B01AC016B817C818D819E810E9411
:10118000CD2D20E030E040E052E40E945C2D0E9432
:101190003F2E6B837C838D839E830B811C81A501F5
:1011A00094016F85788989899A890E94CD2D20E0E4
:1011B00030E040E852E40E945C2D0E943F2E5B012B
:1011C0006F807884601A710A77FE03C0719461940D
:1011D00071088B849C84861A970A97FE03C09194A9
:1011E00081949108861497044CF42F8038842B85C1
:1011F0003C853A832983AB80BC808B012A143B0455
:101200005CF4902F812F09811A8199838A839A2D0A
:101210008B2D5101292E382E7101EA18FB084980C7
:101220005A80401A510A57FE03C051944194510804
:101230006701F7FE03C03FEFC31AD30AD594C794E2
:1012400089819A810817190714F08FEF01C081E096
:10125000282F880F330B3A8329832A143B04CCF0C0
:1012600041E0861497041CF4B501C80102C0B8011E
:10127000C5010E943707C418D508D7FE06C089816A
:101280009A81080F191FCE0CDF1C9FEFA91AB90A0B
:10129000E4CF66960FB6F894DEBF0FBECDBFDF91E8
:1012A000CF911F910F91FF90EF90DF90CF90BF9063
:1012B000AF909F908F907F906F905F904F903F90F6
:1012C0002F9008950E94F7300F931F93CF93DF93D1
:1012D000EC0188819981009729F02A813B812617AA
:1012E000370788F48B016F5F7F4F0E943130009782
:1012F00061F0998388831B830A832C813D81232B92
:1013000011F4FC01108281E001C080E0DF91CF91F7
:101310001F910F910895EF92FF920F931F93CF9318
:10132000DF936115710511F480E01CC04115510572
:10133000C1F07B01EC018C819D818A01080F191F8E
:10134000B801CE010E946409882371F32881398194
:101350008C819D81B701820F931F0E9405311D83EF
:101360000C8381E0DF91CF911F910F91FF90EF905F
:101370000895CF93DF93EC0188819981009711F054
:101380000E94A82F198218821D821C821B821A8239
:10139000DF91CF910895CF93DF93EC016115710533
:1013A00061F0FB0101900020E9F73197AF01461B86
:1013B000570B0E948B09811103C0CE010E94B9090D
:1013C000CE01DF91CF910895EF92FF920F931F937B
:1013D000CF93DF93EC017B018A01BA010E9464097B
:1013E000811104C0CE010E94B90907C01D830C837E
:1013F000B701888199810E940531CE01DF91CF919B
:101400001F910F91FF90EF900895CF93DF93EC0120
:10141000FB018617970761F0608171816115710585
:1014200029F0448155810E94E40902C00E94B90953
:10143000CE01DF91CF910895FC01118210821382B9
:101440001282158214820C94050AFC01118210820A
:1014500013821282158214826115710551F0FB010D
:1014600001900020E9F73197AF01461B570B0C9410
:10147000E4090895CF92DF92EF92FF926115710512
:101480008105910549F06B017C010E94FB2AA701AF
:1014900096010E94C12C03C060E070E0CB01FF9078
:1014A000EF90DF90CF900895CF92DF92EF92FF926E
:1014B0000F931F93CF93DF930E941A07811520E8A3
:1014C000920761F4809171008D7F8093710010927A
:1014D0009100469847981092C9028BC021E0209352
:1014E000C902813020E8920751F48091D402909192
:1014F000D5029093D7028093D6020E941A0797FDD7
:1015000005C02091C802222309F43FC02091C702E0
:1015100021113BC021E02093CA02EC01DF77209724
:1015200069F481E08093CB0246983FE9C32E3FE007
:10153000D32EE12CF12CCAEFD0E014C08E0120E0B4
:1015400030E060E472E48FE090E0A90198010E942D
:10155000C12C69017A0181E0C81AD108E108F108BB
:101560001092CB02E0919501F091960109958111BD
:1015700003C081E08093CB028091CA028823B9F135
:101580008091CB02811133C003C01092CA02C5CF33
:1015900046992DC0479A0E941A07009771F09C0146
:1015A000DE010E944C2DDC01CB0129E0B595A79509
:1015B000979587952A95D1F703C08FEF9FEFDC01B0
:1015C000109290002AE020939100D0929900C0924E
:1015D00098008093CC029093CD02A093CE02B0935A
:1015E000CF028091710082608093710002C04798A1
:1015F000D2CFDF91CF911F910F91FF90EF90DF90AD
:10160000CF9008951F920F920FB60F9211242F932F
:101610003F934F935F936F937F938F939F93AF937A
:10162000BF93EF93FF938091CC029091CD02A09154
:10163000CE02B091CF02892B8A2B8B2B81F1809126
:10164000CB0281110BC098B180E4892788B98091C1
:10165000CA02882319F088B1805888B98091CC02D9
:101660009091CD02A091CE02B091CF02181619062A
:101670001A061B06B4F48091CC029091CD02A09181
:10168000CE02B091CF020197A109B1098093CC029B
:101690009093CD02A093CE02B093CF0202C00E94DD
:1016A000540AFF91EF91BF91AF919F918F917F91DC
:1016B0006F915F914F913F912F910F900FBE0F90BF
:1016C0001F901895EF92FF920F931F93DC01E1E7B3
:1016D000F0E090819D7F90831092D802E7E8F1E0DE
:1016E000F093D702E093D602F093D502E093D402B0
:1016F000B183A083738362835583448337832683B6
:1017000011870087F386E2861F910F91FF90EF907B
:101710000C94540ADC01E1E7F0E090819D7F908316
:101720001092D802E7E8F1E0F093D702E093D602F6
:10173000F093D502E093D402B183A08373836283D4
:10174000558344833783268380E090E891878087A0
:101750000C94540A2D9A0895BC0180E090E00C94FA
:10176000E8178FB18095807F669B88601C9B8460A2
:1017700008950C94AB2C1092C6023E983F980895A1
:101780003E9A3F9A81E08093C602089580E00C94CF
:1017900049122F923F924F925F926F927F928F9257
:1017A0009F92AF92BF92CF92DF92EF92FF920F93F0
:1017B0001F93CF93DF93CDB7DEB766970FB6F8943C
:1017C000DEBF0FBECDBF69837A838B839C832E8B54
:1017D0003D8B942E852E2BED3FE049E450E4C6016D
:1017E000B5010E945C2D6D837E838F8398870E9454
:1017F000C82D20E030E040EA51E40E94ED2BA80122
:1018000097010E945C2D6F87788B898B9A8B6D81F5
:101810007E818F8198850E94B92E20E030E040EAD9
:1018200051E40E94ED2B29813A814B815C810E9419
:101830005C2D6B877C878D879E87C601B5010E94D2
:10184000C82D20E030E040EA51E40E94ED2BA801D1
:1018500097010E945C2D362E272E8B8B9C8BC60108
:10186000B5010E94B92E20E030E040EA51E40E9428
:10187000ED2B29813A814B815C810E945C2D2B01EB
:101880003C018A898F9399899F9388898F939F853B
:101890009F938F929F928D898F939E899F93AB8404
:1018A000BC84CD84DE8491019B898C89E32EF22E49
:1018B000092F182F8E8989839D899D8399868A8611
:1018C0009C01492D582DC301B2010E94510820E00E
:1018D00030E040E252E4B981AD81F985EA856B2FB1
:1018E0007A2F8F2F9E2F0E945C2D4B018E8B9D8B0C
:1018F0008A898F9399899F9388898F939F859F93D6
:101900008D898F939E899F939F928F92AB84BC8485
:10191000CD84DE8491019B898C89E32EF22E092FE0
:10192000182F9E898D89282D392D492F582FC301B5
:10193000B2010E9451088C898F939B899F932F92AB
:101940003F928D898F939E899F939F928F9263017F
:10195000520191019B898C89E32EF22E092F182FB9
:1019600079816D8199858A85272F362F492F582FA8
:10197000C301B2010E9451088A898F9399899F936C
:1019800088898F939F859F938D898F939E899F933D
:101990009F928F92AB84BC84CD84DE843F8528895E
:1019A00099898A89E32EF22E092F182F79816D816A
:1019B00099858A85272F362F492F582FC601B501C3
:1019C0000E9451080FB6F894DEBF0FBECDBF6696D9
:1019D0000FB6F894DEBF0FBECDBFDF91CF911F9140
:1019E0000F91FF90EF90DF90CF90BF90AF909F90BE
:1019F0008F907F906F905F904F903F902F900895C1
:101A00002F923F924F925F926F927F928F929F920E
:101A1000AF92BF92CF92DF92EF92FF920F931F93FC
:101A2000CF93DF93CDB7DEB7A8970FB6F894DEBF9C
:101A30000FBECDBF2B013C01922E3B874F87852ED9
:101A4000AD82BE82CF82D8862BED3FE049EC5FE3CA
:101A5000C601B5010E945C2D5B016C010E94C82D7E
:101A600020E030E040EA51E40E94ED2BE982FA8266
:101A70000B831C839701A8010E945C2D6C8F7D8FC6
:101A80008E8F9F8FC601B5010E94B92E20E030E0F5
:101A900040EA51E40E94ED2BA30192010E945C2DCB
:101AA000688B798B8A8B9B8B6D817E818F819885EA
:101AB0000E94C82D20E030E040EA51E40E94ED2B66
:101AC0002E2D3F2D402F512F0E945C2D6C8B7D8B36
:101AD0008E8B9F8B6D817E818F8198850E94B92E20
:101AE00020E030E040EA51E40E94ED2BA301920196
:101AF0000E945C2D688F798F8A8F9B8F8F8D8F933B
:101B00009E8D9F938D8D8F939C8D9F938F928F85AC
:101B10008F939B859F939F92A888B988CA88DB88FA
:101B2000EC88FD880E891F89292C98A78FA3382C53
:101B3000292D392F482F582D688D798D8A8D9B8DB1
:101B40000E9451082BED3FE049E450E46D817E8115
:101B50008F8198850E945C2D6B017C010E94C82DAD
:101B600020E030E040EA51E40E94ED2BB981AA81E7
:101B7000FB81EC812B2F3A2F4F2F5E2F0E945C2D83
:101B80006F8778A389A39AA3C701B6010E94B92ED3
:101B900020E030E040EA51E40E94ED2BA3019201E5
:101BA0000E945C2D6B877C878D879E878AA18F938F
:101BB00099A19F9388A18F939F859F938F928FA1C7
:101BC0008F9398A59F939F92AB84BC84CD84DE8431
:101BD0003C8D2D8D9E8D8F8DE32EF22E092F182F8B
:101BE00068A59FA1292D362F492F582D68897989FD
:101BF0008A899B890E94510824EE3BEC46E950E417
:101C00006D817E818F8198850E945C2D6B017C01A6
:101C10000E94C82D20E030E040EA51E40E94ED2B04
:101C2000B981AA81FB81EC812B2F3A2F4F2F5E2F98
:101C30000E945C2D6BA37CA38DA39EA3C701B6015C
:101C40000E94B92E20E030E040EA51E40E94ED2BE2
:101C5000A30192010E945C2D6D837E838F83988700
:101C60008EA18F939DA19F938CA18F939BA19F93F6
:101C70008F928FA18F9398A59F939F92AD80BE80E6
:101C8000CF80D8843F8528A199A18AA1E32EF22E86
:101C9000092F182F68A59FA1292D362F492F582DC0
:101CA0006B857C858D859E850E9451088EA18F93C2
:101CB0009DA19F938CA18F939BA19F938F928FA1A6
:101CC0008F9398A59F939F92AD80BE80CF80D8843C
:101CD000EC88FD880E891F8968A59FA1292D362FC4
:101CE000492F582D688D798D8A8D9B8D0E945108C2
:101CF00020E030E040EF51E4A8A5FFA1692D7A2F44
:101D00008F2F982D0E945C2D4B0189879A870FB6E3
:101D1000F894DEBF0FBECDBF9C819F938B818F93C4
:101D20009A819F9389818F939A859F9389858F93B9
:101D30009F928F9263015201EC88FD880E891F8962
:101D400068A59FA1222D362F492F532D688D798D9F
:101D50008A8D9B8D0E9451089C819F938B818F93CC
:101D60009A819F9389818F939A859F9389858F9379
:101D70009F928F923C8D2D8D9E8D8F8DE32EF22E16
:101D8000092F182F68A59FA1222D362F492F532DDB
:101D9000688979898A899B890E9451089C819F93CF
:101DA0008B818F939A819F9389818F939A859F933B
:101DB00089858F939F928F923F8528A199A18AA1AF
:101DC000E32EF22E092F182F68A59FA1222D362F62
:101DD000492F532D6B857C858D859E850E945108EA
:101DE0009C819F938B818F939A819F9389818F93FD
:101DF0009A859F9389858F939F928F923BA12CA167
:101E00009DA18EA1E32EF22E092F182F68A59FA168
:101E1000222D362F492F532D6D817E818F819885FC
:101E20000E94510820E030E040EF51E4A8A5FFA156
:101E3000622D7A2F8F2F932D0E945B2D4B01898766
:101E40009A870FB6F894DEBF0FBECDBF9C819F93DB
:101E50008B818F939A819F9389818F939A859F938A
:101E600089858F939F928F92EC88FD880E891F89B8
:101E700068A59FA1222D362F492F532D688D798D6E
:101E80008A8D9B8D0E9451089C819F938B818F939B
:101E90009A819F9389818F939A859F9389858F9348
:101EA0009F928F923C8D2D8D9E8D8F8DE32EF22EE5
:101EB000092F182F68A59FA1222D362F492F532DAA
:101EC000688979898A899B890E9451089C819F939E
:101ED0008B818F939A819F9389818F939A859F930A
:101EE00089858F939F928F923F8528A199A18AA17E
:101EF000E32EF22E092F182F68A59FA1222D362F31
:101F0000492F532D6B857C858D859E850E945108B8
:101F10009C819F938B818F939A819F9389818F93CB
:101F20009A859F9389858F939F928F923BA12CA135
:101F30009DA18EA1E32EF22E092F182F68A59FA137
:101F4000222D362F492F532D6D817E818F819885CB
:101F50000E9451080FB6F894DEBF0FBECDBFA89601
:101F60000FB6F894DEBF0FBECDBFDF91CF911F91AA
:101F70000F91FF90EF90DF90CF90BF90AF909F9028
:101F80008F907F906F905F904F903F902F9008952B
:101F90002F923F924F925F926F927F928F929F9279
:101FA000AF92BF92CF92DF92EF92FF920F931F9367
:101FB000CF93DF93CDB7DEB766970FB6F894DEBF49
:101FC0000FBECDBF6D837E838F83988729873A8725
:101FD0004B875C8717014801AD86BE86CF86D88ABD
:101FE00020E030E0A9016E2D732D802F992D0E94E5
:101FF000B42E18160CF0DCC02FA538A949A95AA98F
:102000006E2D732D802F992D0E945C2D6B8B7C8BF8
:102010008D8B9E8B2BA53CA54DA55EA569857A85EC
:102020008B859C850E945B2D69837A838B839C833F
:102030008E898F939D899F938C898F939B899F9382
:102040008C818F939B819F938A818F9399819F939A
:10205000AD80BE80CF80D884F32C192D79816A8120
:102060009B818C81272F362F492F582FC601B50110
:102070000E9451082D853E854F8558896D817E814E
:102080008F8198850E945C2D2B013C018E898F9356
:102090009D899F938C898F939B899F938C818F932C
:1020A0009B819F938A818F9399819F9363015201B2
:1020B000E22CF32C082D192D79816A819B818C816A
:1020C000272F362F492F582FC301B2010E945108E4
:1020D0009F928F923F922F928C818F939B819F939F
:1020E0008A818F9399819F93E22CF32C082D192DCF
:1020F00079816A819B818C81272F362F492F582F18
:102100006D817E818F8198850E94510820E030E0AA
:1021100041E654E469857A858B859C850E945C2D17
:102120006B8B7C8B8D8B9E8B9F928F923F922F928D
:102130009F938F938C898F939B899F93E22CF32C91
:10214000082D192D79816A819B818C81272F362F4B
:10215000492F582FC301B2010E9451080FB6F894BD
:10216000DEBF0FBECDBF9F928F923F922F929E896E
:102170009F938D898F939C899F938B898F93AD803B
:10218000BE80CF80D884E22CF32C082D192D7981C4
:102190006A819B818C81272F362F492F582FC601AA
:1021A000B5010E9451080FB6F894DEBF0FBECDBF37
:1021B0002FA538A949A95AA9622D732D882D992DCB
:1021C0000E945C2D3B014C0120E030E0A901772DFD
:1021D000882D992D0E94B42E18160CF085C02D85DF
:1021E0003E854F8558896D817E818F8198850E94BB
:1021F0005C2D1B012C012BA53CA54DA55EA5698579
:102200007A858B859C850E945B2D69837A838B837D
:102210009C839F928F927F926F929F938F939A81CC
:102220009F9389818F9362015101E62CF72C082D31
:10223000192D79816A819B818C81272F362F492F17
:10224000582F6D817E818F8198850E94510820E0F2
:1022500030E041E654E469857A858B859C850E944F
:102260005C2D69877D87898B9A8B9F928F927F9255
:102270006F929F938F939D859F9389858F93E62C73
:10228000F72C082D192D79816A819B818C81272F4C
:10229000362F492F582FC201B1010E9451089F9239
:1022A0008F927F926F929A899F9389898F939D8550
:1022B0009F9389858F93AD80BE80CF80D884E62C94
:1022C000F72C082D192D79816A819B818C81272F0C
:1022D000362F492F582FC601B5010E9451080FB65D
:1022E000F894DEBF0FBECDBF66960FB6F894DEBF82
:1022F0000FBECDBFDF91CF911F910F91FF90EF9057
:10230000DF90CF90BF90AF909F908F907F906F9015
:102310005F904F903F902F9008952FB7F89483E0EF
:102320008093E9009091E800892F807295FF04C0A6
:102330009091F20080E4891B2FBF0895CF93DF9323
:102340001F92CDB7DEB76983DC01ED91FC9102806D
:10235000F381E02D41E050E0BE016F5F7F4F0995B2
:102360000F90DF91CF91089583E08093E9008091F1
:10237000F200882319F08AE38093E80008950E9410
:102380008D1190E008958F929F92AF92BF92CF925D
:10239000DF92EF92FF920F931F93CF93DF936C0125
:1023A0007B018A0180910F01882309F45CC0809130
:1023B000D302882309F457C08091D10280FF05C061
:1023C0008091E00082608093E000E801B12C8AEF08
:1023D000A82E93E0892E2AE3922E209711F4BB2099
:1023E000D9F10E948D1181110AC0AA94AA20D9F1B5
:1023F00061E070E080E090E00E94E817EECF282FC7
:1024000030E0C217D3070CF48C2F9FB7F89480925A
:10241000E9002091E80025FF1DC0282F30E0C21BF5
:10242000D30BF701815020F041914093F100FACF96
:10243000E20EF31EBB2019F09092E8000AC08091D2
:10244000E80085FD07C09092E800BB24B394209774
:1024500009F0B12C9FBFC1CF5D9884E68093D00274
:102460001016110644F081E090E0F6019383828318
:1024700080E090E001C0C801DF91CF911F910F91E2
:10248000FF90EF90DF90CF90BF90AF909F908F9094
:102490000895E9EDF2E0A0E0B8E000800EBC811103
:1024A000012C1197A0FDFDCF0192B9F70DB408954D
:1024B0004F925F926F927F928F929F92AF92BF9254
:1024C000CF92DF92EF92FF920F931F93CF93DF9300
:1024D00000D000D0CDB7DEB7DC014115510509F4BD
:1024E000B5C0FA01F4903196E491CF2CD12C86013D
:1024F000080F191F101611060CF0A8C0803891059E
:102500000CF0A4C0CB018E0F911D181619060CF00B
:102510009DC0603471050CF099C0F62FF770BF2E86
:102520009B0177FF02C0295F3F4F83E035952795D8
:102530008A95E1F7822F77FF04C0BB2011F08FEF5F
:10254000820FB7FF05C0882499248A1A9B0A02C00B
:10255000812C912C0038110524F070E87A1B672E2D
:1025600001C06F2C6818282F082E000C330B8F3FEA
:102570001CF4F22FF09501C0F0E091E06E2F67702F
:1025800009F490E0E695E695E6959E0F290F311D3A
:102590002930310514F098E0981B6F2F680F4E5FBB
:1025A0005F4F9401FF9E200D311D1124420F531FD8
:1025B00001E010E00B2C02C0000F111F0A94E2F79B
:1025C0002FEF209F7001219FF00C1124E094F094D4
:1025D000FC82EB82AC809D0170E86703200D311D09
:1025E0001124280D391D27523D4F992E980E96160D
:1025F00069F1D9012A01842D841B861508F5F201A1
:102600008490809EC001819E900D11249A838983BD
:1026100067FD04C09C919E21892B8C93BB2059F0AF
:1026200067304CF4CD0180589F4FFC0180808A2098
:102630007A8087288082FFEF4F1A5F0A1196DBCFDE
:102640006F5F4C0D5D1D20583F4FD1CF0F900F9005
:102650000F900F90DF91CF911F910F91FF90EF900E
:10266000DF90CF90BF90AF909F908F907F906F90B2
:102670005F904F90089580E0E9EDF2E081118FEFD7
:10268000002481938193819381930394D1F7EFE5A3
:10269000F2E0128A118A108A17860895EF92FF924B
:1026A0000F931F93CF93DF93CDB7DEB762970FB62B
:1026B000F894DEBF0FBECDBF8C01CB01F8011182B3
:1026C000108213821282158214824AE09E012F5FCB
:1026D0003F4F7901B9010E94522BF7010190002070
:1026E000E9F73197AF014E195F09B701C8010E94A0
:1026F000E40962960FB6F894DEBF0FBECDBFDF913E
:10270000CF911F910F91FF90EF900895CF93DF939A
:10271000EC01FB0144815581608171810E948B092C
:10272000811103C0CE010E94B909CE01DF91CF9182
:102730000895FC0144815581608171818FE592E0AB
:102740000C94F006FC01808191810C94A82F0F93CA
:102750001F93CF93DF938C01C0E0D0E0F801EC0F22
:10276000FD1F6491662341F08FE592E00E945207BD
:10277000892B11F02196F2CFCE01DF91CF911F91DD
:102780000F910895E1E7F0E080818D7F80831092C2
:10279000D802E7E8F1E0F093D702E093D602F09395
:1027A000D502E093D4028EE190E09183808388EC9F
:1027B00090E09383828380E090E8958384830C94F7
:1027C000540A2091D302211103C08FEF9FEF089587
:1027D0005FB7F89422E02093E9002091F20030E006
:1027E0001216130614F421E030E0422FFC0184E6B7
:1027F000415038F028988093D2029091F100919343
:10280000F7CF2115310521F08091F200882319F0CE
:102810005FBFC90108958BE68093E800F9CFCF939D
:10282000DF931F92CDB7DEB7FC018485958597FDB8
:1028300005C02FEF3FEF358724870BC0CE010196EF
:102840000E94E113019719F4898190E002C08FEF93
:102850009FEF0F90DF91CF9108958091DD06811158
:102860000DC082E08093D90684E08093DA0610924E
:10287000DC061092DB0681E08093DD0689ED96E0B0
:102880000895FC018485958597FD0BC09FB7F8944A
:1028900082E08093E9008091F2009FBF90E0019672
:1028A00008959FB7F89482E08093E9008091F20048
:1028B0009FBF90E008954091EC065091ED06209165
:1028C000EA063091EB0642175307B4F49091E80002
:1028D0009570E1F39091E80092FD19C08093F100AA
:1028E0008091EC069091ED0601968F739927892BC4
:1028F00019F48EEF8093E8008091EC069091ED063C
:1029000001969093ED068093EC0681E0089580E0B7
:102910000895DF92EF92FF920F931F93CF93DF936F
:10292000D82E8A017B01E40EF51EEB01CE15DF05E2
:1029300071F0D7FE03C0FE01849101C088810E941E
:102940005B1421968111F2CF8FEF9FEF01C0C80178
:10295000DF91CF911F910F91FF90EF90DF9008953D
:10296000615030F02091F100FC0120830196F8CFF6
:10297000289884E68093D20208953FB7F894809116
:10298000E5069091E606A091E706B091E80626B527
:10299000A89B05C02F3F19F00196A11DB11D3FBF97
:1029A000BA2FA92F982F8827820F911DA11DB11D25
:1029B000BC01CD0142E0660F771F881F991F4A9521
:1029C000D1F708950F931F93CF93DF931F92CDB745
:1029D000DEB78C01FC018485958597FF0EC0CE0182
:1029E00001960E94E113019719F4898190E002C0D9
:1029F0008FEF9FEFF80195878487F801848595858F
:102A00000F90DF91CF911F910F9108950F931F9316
:102A1000CF93DF931F92CDB7DEB782E0898342E484
:102A200050E06DE17DE080E80E9489140E942D1441
:102A3000DC0112960D911C9113970115110589F077
:102A4000D801ED91FC910280F381E02DBE016F5F12
:102A50007F4FC801099597FD04C0F80100851185D5
:102A6000ECCF89810F90DF91CF911F910F91089545
:102A70001F920F920FB60F9211248F939F93809104
:102A8000E1009091E100937F9093E10083FF0FC0FC
:102A90001092E90091E09093EB001092EC0092E329
:102AA0009093ED001092D30298E09093F00082FF93
:102AB00020C093E09093E9009091F200992319F0DF
:102AC0009AE39093E8009091D002992339F0909185
:102AD000D00291509093D002992389F19091D20223
:102AE000992339F09091D20291509093D202992378
:102AF00041F184FF10C08091E2008E7E816080935E
:102B0000E2008091E1008F7E8093E1008091D1020C
:102B10008E7E806111C080FF16C08091E2008E7EA3
:102B200080618093E2008091E1008E7E8093E100DD
:102B30008091D1028E7E81608093D10204C05D9A23
:102B4000CDCF289AD6CF9F918F910F900FBE0F9027
:102B50001F9018951F920F920FB60F921124CF92CB
:102B6000DF92EF92FF920F931F932F933F934F9318
:102B70005F936F937F938F939F93AF93BF93EF93E5
:102B8000FF93CF93DF93CDB7DEB76C97DEBFCDBF9A
:102B90001092E9008091E80083FFFBC168E0CE015C
:102BA00045960E94B01482EF8093E8008D8987FFDC
:102BB00005C09091E80090FFFCCF03C09EEF90937A
:102BC000E800982F907609F0C6C09E894F89588DED
:102BD0002F89F88C91110CC0803829F48091E90676
:102BE0008093F10002C01092F1001092F10045C1F3
:102BF000913051F4811141C14130510509F03DC17D
:102C00008091E9068D7F0BC0933061F4811135C14D
:102C10004130510509F031C18091E906826080930D
:102C2000E9062BC1953049F48091E80080FFFCCF84
:102C3000822F80688093E30020C1963009F05EC047
:102C40000B8D1C8D22E01092E9001092ED0610927F
:102C5000EC06F21232C01092EB061092EA060E94C5
:102C6000061599E0BE016F5F7F4FDB01E92F1D92D2
:102C7000EA95E9F79983FA8291E09E8390EA988732
:102C80009AEF99872091EC063091ED06275F3F4F30
:102C90003C832B838D831092E9001092ED061092F5
:102CA000EC061093EB060093EA0649E050E080E062
:102CB0000E9489140E940615E0C01093EB06009351
:102CC000EA060E942D14DC0112960D911C911397B7
:102CD0000115110509F4BBC0D801ED91FC910480E8
:102CE000F581E02DBE016B5E7F4FC801099500970D
:102CF00009F0C7C0F80100851185EACF973009F4C3
:102D000045C1983021F481E08093F100B6C099303C
:102D100009F0B3C0837009F039C1E5E4F1E081E066
:102D200031E096E32081211109C08EE78093EA000B
:102D30001092EA008F898093D3029FC08093E900AC
:102D40003093EB0021912093EC009093ED008F5F86
:102D5000873041F7EACF8B8D9C8D1092E90010925D
:102D6000ED061092EC069093EB068093EA06898DAF
:102D7000811153C08E899D89913A49F4813209F0BD
:102D800005C147E050E068E071E080E0BBC09132EF
:102D900009F0FCC0833269F48F89988DA0E0B0E01F
:102DA0008093100190931101A0931201B09313012D
:102DB00064C0803269F48091E80082FFFCCF67E054
:102DC00088E091E00E94B0148BEF8093E80055C03A
:102DD000823209F052C08F8980930F01EEEFFFE736
:102DE000859194918B3F9C4D19F0E0E0F8E002C092
:102DF000EEEFFAE08091080190910901A0910A019B
:102E0000B0910B01803B9440A105B10509F09EC033
:102E100080910F0180FF79C099C00E942D14FC01A0
:102E2000028113810115110509F4B0C0D801ED919B
:102E3000FC910190F081E02DBE016B5E7F4FC801D7
:102E4000099581111AC0F80100851185EBCFF1E0D9
:102E5000FF1609F44EC0F3E0FF1298C08F89882353
:102E600009F44AC0823089F440E867E081E89DE0D7
:102E70000E947B2A882309F489C08EEF8093E800A2
:102E800088C018161906CCF381C0813029F440E8B7
:102E90006BE085E79DE0ECCF833009F077C00E94BE
:102EA0002D14DC011296ED90FC9013978E010F5FAC
:102EB0001F4F6801E114F10479F0D701ED91FC9105
:102EC0000680F781E02DB801C7010995080F111D93
:102ED000F701E084F184EECFD8011C92F601019055
:102EE0000020E9F73197BF016C197D0940E0C60168
:102EF000BFCF63E67DE002C06FE57DE0FB0144915A
:102F000050E080E80E948914B8CFEE3F2AE0F20733
:102F100051F0808191818737A7E79A0721F090933C
:102F2000FF0A8093FE0A87E797E791838083809169
:102F300060008093EE069BE088E10FB6F894A895B8
:102F4000809360000FBE9093600097CF8081918145
:102F50008737974709F091CFA895809160008861E5
:102F6000809360008091EE0680936000EE3FBAE0AF
:102F7000FB0739F08091FE0A9091FF0A91838083CC
:102F80007CCF1092FF0A1092FE0A77CF81E28093E5
:102F9000EB006C960FB6F894DEBF0FBECDBFDF918D
:102FA000CF91FF91EF91BF91AF919F918F917F91C1
:102FB0006F915F914F913F912F911F910F91FF90D2
:102FC000EF90DF90CF900F900FBE0F901F9018954D
:102FD0008F929F92AF92BF92CF92DF92EF92FF9229
:102FE0006B017C010E94BD144B015C01C114D10432
:102FF000E104F104F1F00E94BD14DC01CB01881959
:103000009909AA09BB09883E9340A105B10570F34F
:1030100021E0C21AD108E108F10888EE880E83E0A9
:10302000981EA11CB11CC114D104E104F10419F7CC
:10303000DDCFFF90EF90DF90CF90BF90AF909F904B
:103040008F9008951F920F920FB60F9211242F9315
:103050003F938F939F93AF93BF938091EF0690918F
:10306000F006A091F106B091F2063091F30623E04C
:10307000230F2D3720F40196A11DB11D05C026E8B0
:10308000230F0296A11DB11D2093F3068093EF0636
:103090009093F006A093F106B093F2068091E506B6
:1030A0009091E606A091E706B091E8060196A11D71
:1030B000B11D8093E5069093E606A093E706B093D2
:1030C000E806BF91AF919F918F913F912F910F9003
:1030D0000FBE0F901F901895CF93DF93CDB7DEB73B
:1030E000E8970FB6F894DEBF0FBECDBF789484B5D5
:1030F000826084BD84B5816084BD85B5826085BDF4
:1031000085B5816085BD80916E00816080936E0081
:103110001092810080918100826080938100809173
:103120008100816080938100809180008160809324
:103130008000809191008260809391008091910045
:1031400081608093910080919000816080939000D5
:103150008091C10084608093C1008091C100826031
:103160008093C1008091C10081608093C1008091F3
:10317000C30081608093C3008091C000826080930F
:10318000C0008091C20081608093C20080917A006B
:10319000846080937A0080917A00826080937A00C4
:1031A00080917A00816080937A0080917A008068B3
:1031B00080937A001092D3021092E9061092D10205
:1031C0008091D70081608093D70080EA8093D800F7
:1031D00089B5806189BD89B5826089BD09B400FE69
:1031E000FDCF61E070E080E090E00E94E817809100
:1031F000D8008F7C80618093D8008091E000807F30
:103200008093E0008091E1008E7E8093E1008DE06C
:103210008093E200559A209A81EC80937C0085B1DE
:10322000806F85B984B1877E84B984B1876E84B993
:103230005E9A5F988AB1806D8AB9769A6E9881B3EA
:10324000806F81BB899880B38D7080BB80E58CBD19
:1032500081E08DBD85E090E00E94AC0B5F9A85E037
:1032600090E00E94AC0B5E985C98EAE7F1E08491F4
:103270008EBD00000DB407FEFDCF319621E0E7388A
:10328000F207A9F75C9A81E8809364008091650059
:1032900081608093650083E692E00E94C60B0E94E5
:1032A000B10B87FF24C05C9885EA8EBD00000DB489
:1032B00007FEFDCF5C9A2E982F982D988091640080
:1032C00080628093640081E083BF889513BEFCCF49
:1032D0002D980E94B10B8478843871F00E94B10B54
:1032E0008471843131F188EC90E00E94AC0B0E9433
:1032F000B10B82FDEDCF3AC00E94AA0B88EC90E0A2
:103300000E94AC0B2F9882E090E00E94AB2C8F3F84
:1033100029F06FEF82E090E00E94B32C84EF91E0FF
:103320000E94AC0B2F9A0E94B10B84788438D9F399
:10333000D5CF0E94AA0B88EC90E00E94AC0B2E988F
:1033400082E090E00E94AB2C882329F060E082E0CC
:1033500090E00E94B32C84EF91E00E94AC0B2E9A77
:103360000E94B10B84718431D9F3BDCF0E94AA0BA6
:1033700082E090E00E94B90B882319F00E94C00BF4
:1033800002C00E94BB0B81E090E00E94B90B382F75
:103390003470932E81FF88C031112E9800EF1FEFFB
:1033A00088E0E82EF12C0E94B10B86FF05C02E9A12
:1033B0002F9A0E94AA0B78C0992029F00430110599
:1033C00011F42E9A2F9881E00E944912980117FF5C
:1033D00004C022273327201B310B27703327C80155
:1033E00017FD0796B3E095958795BA95E1F717FF16
:1033F00005C00197A701421B530B9A01AC015695DA
:10340000542F44275795479547525D4F60E070E031
:103410003701621A730A8F3FAFEF9A074CF4019697
:10342000685A7F4F40585F4F603B7105A1F720C03D
:103430006A01B4E9CB0ED11C5A01A0E0B0E08F3F85
:10344000EFEF9E0711F40C947726FD01E60FF71FAE
:10345000E653FF4FE491F0E02F01022E01C0440C2F
:103460000A94EAF7F50184884828448A0C94772660
:1034700083E692E00E94C60B8FE090E00E94AC0BC6
:103480000F5F1F4F0931110509F08DCF992011F001
:103490002F9A2D9880E991E00E94AC0B0E94AA0B14
:1034A0008FE592E00E943A2A82E390E00E94AC0B02
:1034B0000E94B10B8111F8CF82E480936A020E94CE
:1034C0003B1347E851E060E070E080E090E00E944C
:1034D000581282E090E00E94B90B823089F000E03F
:1034E00010E060E0C8010E94B32C0F5F1F4F011570
:1034F000F4E01F07B1F762E082E090E00E94B32C95
:1035000083E692E00E94C60B28EE33E041E851E0EA
:103510006CEB72E089EA91E00E948A0B60ED77E043
:1035200080E090E00E94E8178FB7F8944091EF0692
:103530005091F0066091F1067091F2068FBF809174
:103540006B02242F281B822F90916C02992331F05B
:1035500020936D0210926C020C946D2690916A0279
:10356000291758F48F5F891710F00C946D2681E0AD
:1035700083BF889513BE0C946D2681E080936C0206
:1035800040936B028091660290916702019690933E
:1035900067028093660260918501709186016F5F7A
:1035A0007F4F7093860160938501072E000C880B76
:1035B000990B611571058105910511F00E94492B48
:1035C0000E943B132DEC3CEC4CE45EE360918101E6
:1035D0007091820180918301909184010E945C2D01
:1035E00060938101709382018093830190938401A1
:1035F0008091060190910701892B11F00C94BA2358
:103600000E94B10B85FF16C020E030E040E851E495
:1036100060919B0170919C0180919D0190919E0110
:103620000E945B2D60939B0170939C0180939D0190
:1036300090939E010E94B10B86FF16C020E030E0FF
:1036400040E851E460919B0170919C0180919D0143
:1036500090919E010E945C2D60939B0170939C0150
:1036600080939D0190939E010E94B10B87FF16C02D
:1036700020E030E040E052E46091020170910301EB
:1036800080910401909105010E945C2D60930201DC
:103690007093030180930401909305010E94B10B84
:1036A00084FF16C020E030E040E052E46091020167
:1036B0007091030180910401909105010E945B2D9E
:1036C00060930201709303018093040190930501BC
:1036D00020E030E040E050E460917D0170917E0197
:1036E00080917F01909180010E945C2D60937D010B
:1036F00070937E0180937F019093800120919701C8
:10370000309198014091990150919A010E945C2D4D
:1037100060939701709398018093990190939A0117
:1037200020E030E048EC53E40E94B42E18160CF070
:10373000C6C1809100019091010101979093010110
:1037400080930001181619060CF07EC010927D01BE
:1037500010927E0110927F011092800120E030E0F3
:103760004AEF52E460912F02709130028091310251
:10377000909132020E945C2D60939B0170939C019A
:1037800080939D0190939E0180E090E0A0E7B2ECD1
:103790008093970190939801A0939901B0939A0117
:1037A00080E090E0AAEFB2E48093020190930301DD
:1037B000A0930401B0930501FCE2EF2EFF24F394E3
:1037C0000EE110E02CE231E04AE550E06CE271E0FD
:1037D0008EE091E00E94620B0E943B138AE290E02F
:1037E00090936F0280936E0280E290E0909371025A
:1037F000809370026091000170910101CE010796E3
:103800000E944E136BE471E0CE0101960E94250ADE
:10381000BE01695F7F4FCE0101960E9486130E9410
:103820009913CE0101960E94A213CE0107960E9421
:10383000A21383E692E00E94C60B64E873E080E086
:1038400090E00E94E8173BC150E2E52E53E0F52ED0
:103850000EE110E020E233E04AE550E060E273E080
:103860008EE091E00E94620B0E943B136AE2E62E1A
:10387000F12CF0926F02E0926E0270E2C72ED12C12
:10388000D0927102C09270026091000170910101AA
:10389000CE0107960E944E136BE471E0CE010196B3
:1038A0000E94250ABE01695F7F4FCE0101960E94EA
:1038B00086130E949913CE0101960E94A213CE0195
:1038C00007960E94A21383E692E00E94C60B60E670
:1038D00079E080E090E00E94E8170E943B13E8E264
:1038E000AE2EB12CB0926F02A0926E02D0927102F5
:1038F000C092700283E198E00E94A71383E692E0F1
:103900000E94C60B81E090E00E94B90B082F10E0E6
:1039100068EB7BE080E090E00E94E81780917B01FB
:1039200090917C01081719077CF544EFE42EFF24E1
:10393000F3940EEE12E024EF31E044EF51E064EF37
:1039400071E08AEF90E00E94620B60917B0181E060
:1039500090E00E94B32C0E943B13B0926F02A092A1
:103960006E02D0927102C092700289E098E00E94CB
:10397000A71383E692E00E94C60B68EB7BE080E031
:1039800090E00E94E81795C00E943B1328EC30E0BD
:103990004AEF50E068EC70E084EF91E00E948A0BFF
:1039A00060917B0170917C01CE0101960E944E13C3
:1039B000BE016F5F7F4FCE0107960E941C0A63E530
:1039C00071E0CE0107960E94CB09BC01CE010D9695
:1039D0000E941C0ACE0107960E94A213CE010196F6
:1039E0000E94A21329893A8996E0B92EB29EC0019D
:1039F000B39E900D1124A1E8B0E0A81BB90BCD0136
:103A00009695879590936F0280936E02D092710283
:103A1000C0927002CE010D960E949913B801CE019A
:103A200007960E944E1368E571E0CE0101960E9450
:103A3000250ABE01695F7F4FCE0101960E94861361
:103A400063E571E00E94CB09BC01CE010D960E9496
:103A5000050ACE0101960E94A213CE0107960E948C
:103A6000A21329893A89B29EC001B39E900D1124F8
:103A7000E1E8F0E0E81BF90BCF019695879590936C
:103A80006F0280936E02F0927102E0927002CE019A
:103A90000D960E94991383E692E00E94C60B68EB94
:103AA0007BE080E090E00E94E817CE010D960E9436
:103AB000A21381E090E090930701809306012EE627
:103AC00031E03CA72BA74FE951E05C8F4B8F8FEC87
:103AD00091E09AA389A33CA32BA38FEF282E81E02A
:103AE000382EEFE2F2E0FEA3EDA31AA619A618A65F
:103AF0001FA280917A0129A53AA5032E000C440B40
:103B0000550B2DA73EA74FA758AB2091020130912E
:103B1000030140910401509105012B8B3C8B4D8B8F
:103B20005E8B882309F4FCC16DA57EA58FA598A99D
:103B30000E948E2B6F8B788F898F9A8F2B893C896F
:103B40004D895E890E945B2D69AB7AAB8BAB9CABD8
:103B500080919B0190919C01A0919D01B0919E014B
:103B60008D8F9E8FAF8FB8A39C01AD016B897C892F
:103B70008D899E890E945C2D20E030E040EA50E46F
:103B80000E94ED2B0E94B92E2B013C0120E030E079
:103B90004AE754E469A97AA98BA99CA90E94872BBA
:103BA00087FF5BC0A9A1BAA1AD90BD90CD90DC907C
:103BB00020919701309198014091990150919A017B
:103BC00060E070E0CB010E945B2D6DAB7EAB8FABF4
:103BD00098AF20E030E040EA50E4C301B2010E9417
:103BE000ED2B9B01AC016DA97EA98FA998AD0E9418
:103BF0005C2D2B013C012D8D3E8D4F8D58A1EDA1EB
:103C0000FEA160817181828193810E945B2DAB8DC9
:103C1000BC8D13962C9113972F9312962C9112977B
:103C20002F9311962C9111972F932C912F93F10193
:103C300023812F9322812F9321812F9320812F93F2
:103C4000E9A8FAA80BA91CA9A30192010E94C80F18
:103C50000FB6F894DEBF0FBECDBF40909B015090D1
:103C60009C0160909D0170909E014FA158A54B3022
:103C7000510509F0B0C0A0908101B0908201C090C0
:103C80008301D090840120E030E040E05FE3609168
:103C9000CB017091CC018091CD019091CE010E9419
:103CA000ED2B2F89388D498D5A8D0E945C2D2B89E3
:103CB0003C894D895E890E945B2D6F8B788F898F3F
:103CC0009A8FA30192016B897C898D899E890E94BC
:103CD0005C2D20E030E040EA50E40E94ED2B0E9491
:103CE000B92E6B8B7C8B8D8B9E8B80912B02909150
:103CF0002C02A0912D02B0912E02BC01CD01905852
:103D000020919701309198014091990150919A0129
:103D10000E945B2D20E030E040E752E40E945B2DE2
:103D20006D8F7E8F8F8F98A320E030E040EA50E4C3
:103D30006B897C898D899E890E94ED2B9B01AC014A
:103D40006D8D7E8D8F8D98A10E945C2D6B8B7C8BF1
:103D50008D8B9E8B20E030E040E05FE36091FB01C3
:103D60007091FC018091FD019091FE010E94ED2B6C
:103D700020915B0230915C0240915D0250915E02A5
:103D80000E945C2DA30192010E945B2D2B013C013E
:103D900020E030E04AE754E46F89788D898D9A8D70
:103DA0000E94872B87FF2DC220E030E0A9016F8998
:103DB000788D898D9A8D0E94B42E18160CF021C230
:103DC000EF88F88C098D1A8D2B893C894D895E8985
:103DD000C301B20199C1ABA1BCA18C91882309F4A4
:103DE00010C220E030E040E05FE3EB8DFC8D6081AD
:103DF0007181828193810E94ED2B2F89388D498DAD
:103E00005A8D0E945C2D2B893C894D895E890E94C8
:103E10005B2D6F8B788F898F9A8FA30192016B89AD
:103E20007C898D899E890E945C2D20E030E040EAEB
:103E300050E40E94ED2B0E94B92E6B8B7C8B8D8BF6
:103E40009E8B20E030E04AE754E46F89788D898DBD
:103E50009A8D0E94872B87FFD4C120E030E0A90112
:103E60006F89788D898D9A8D0E94B42E18160CF06A
:103E7000C8C1A0908101B0908201C0908301D09010
:103E80008401F10180819181A281B381BC01CD01C6
:103E9000905820919701309198014091990150914B
:103EA0009A010E945B2D20E030E040E752E40E943E
:103EB0005B2D6D8F7E8F8F8F98A320E030E040EADE
:103EC00050E46B897C898D899E890E94ED2B9B0132
:103ED000AC016D8D7E8D8F8D98A10E945C2D6B8BBA
:103EE0007C8B8D8B9E8B20E030E040E05FE3A9A1CE
:103EF000BAA16D917D918D919C910E94ED2BEDA1C8
:103F0000FEA120813181428153810E945C2DA30159
:103F100092010E945B2DEF88F88C098D1A8D6BC180
:103F20006DA57EA58FA598A90E948E2B2B013C0123
:103F30002B893C894D895E890E945B2D6F8B788F20
:103F4000898F9A8F20E030E04AE754E40E94872B63
:103F500087FF4FC0A9A1BAA1AD90BD90CD90DC90D4
:103F600020919701309198014091990150919A01C7
:103F700060E070E0CB010E945B2D6D8F7E8F8F8F94
:103F800098A320919B0130919C0140919D015091FB
:103F90009E01EDA1FEA160817181828193810E94C9
:103FA0005B2DAB8DBC8D13962C9113972F9312968E
:103FB0002C9112972F9311962C9111972F932C914E
:103FC0002F93F10123812F9322812F9321812F930E
:103FD00020812F93EF88F88C098D1A8D2D8D3E8DC1
:103FE0004F8D58A10E94C80F0FB6F894DEBF0FBEC8
:103FF000CDBF4FA158A54B30510509F088C0A09006
:104000008101B0908201C0908301D090840120E0B2
:1040100030E040E05FE36091CB017091CC01809192
:10402000CD019091CE010E94ED2BA30192010E943F
:104030005C2D2B893C894D895E890E945B2D2B016B
:104040003C0180912B0290912C02A0912D02B09105
:104050002E02BC01CD01905820919701309198011A
:104060004091990150919A010E945B2D20E030E02F
:1040700040E752E40E945B2D6B8B7C8B8D8B9E8B7B
:1040800020E030E040E05FE36091FB017091FC01D3
:104090008091FD019091FE010E94ED2B20915B0229
:1040A00030915C0240915D0250915E020E945C2D55
:1040B00020919B0130919C0140919D0150919E0166
:1040C0000E945B2D6F8B788F898F9A8F20E030E074
:1040D0004AE754E4C301B2010E94872B87FF91C0D5
:1040E00020E030E0A901C301B2010E94B42E1816ED
:1040F0000CF087C0830172012B893C894D895E8950
:104100006F89788D898D9A8D0E94000D7AC0ABA140
:10411000BCA18C91882309F474C020E030E040E019
:104120005FE3EB8DFC8D60817181828193810E94C0
:10413000ED2BA30192010E945C2D2B893C894D89B6
:104140005E890E945B2D2B013C0120E030E04AE7B4
:1041500054E40E94872B87FF54C020E030E0A9017F
:10416000C301B2010E94B42E18160CF04AC0A090F0
:104170008101B0908201C0908301D0908401F1014F
:1041800080819181A281B381BC01CD0190582091A1
:104190009701309198014091990150919A010E94A4
:1041A0005B2D20E030E040E752E40E945B2D6B8BFA
:1041B0007C8B8D8B9E8B20E030E040E05FE3A9A1FB
:1041C000BAA16D917D918D919C910E94ED2BEDA1F5
:1041D000FEA120813181428153810E945C2D20917A
:1041E0009B0130919C0140919D0150919E010E9444
:1041F0005B2D830172012B893C894D895E890E9468
:10420000C90BADA1BEA18D909D90AD90BD90BEA3F8
:10421000ADA3C0909B01D0909C01E0909D01F090D7
:104220009E01A7019601C501B4010E94872B1816B3
:104230000CF41AC220E030E04AE753E4C501B401AF
:104240000E945C2D9B01AC01C701B6010E94872B27
:1042500018160CF409C2C0900201D0900301E0903E
:104260000401F09005016DA57EA58FA598A90E9477
:104270008E2BA70196010E94872B18160CF4F4C10F
:1042800069A57AA566507F4F072E000C880B990B05
:104290000E948E2B9B01AC01C701B6010E94872BA7
:1042A00018160CF4E1C1F10180819181A281B381E2
:1042B000BC01CD01905820E030E040E752E40E947C
:1042C0005B2D209197013091980140919901509177
:1042D0009A010E94872B87FFC7C110927D0110921F
:1042E0007E0110927F01109280012FA138A52B3002
:1042F000310509F070C11CE2E12EFF24F39404E6BD
:1043000010E02CE231E044E650E06CE271E08AE03B
:1043100090E00E94620B0E943B1343E250E05093F6
:104320006F0240936E0280E290E09093710280935E
:1043300070028EEF97E00E94A7134CEB57E060E00D
:1043400070E080E090E00E9458120EE6E02E01E05E
:10435000F02E00E010E0D7018D917D01811118C091
:104360000F5F1F4F63E170E080E090E00E943A0A27
:10437000DC01CB010196A11DB11D20917B01309183
:104380007C01B901680F791F70937C0160937B01F8
:10439000E9E7F1E0EE15FF05F1F610926F021092D9
:1043A0006E021092710210927002B801CE01019655
:1043B0000E944E13BE016F5F7F4FCE0107960E9491
:1043C0001C0A6FE571E0CE0107960E94CB090E949E
:1043D0009913CE0107960E94A213CE0101960E9466
:1043E000A21360917B0170917C01CE0101960E9425
:1043F0004E13BE016F5F7F4FCE0107960E941C0ACD
:1044000063E571E0CE0107960E94CB09BC01CE01A5
:104410000D960E941C0ACE0107960E94A213CE019F
:1044200001960E94A21329893A89F6E0F29FC00101
:10443000F39F900D112421E830E0281B390BC901AE
:104440009695879590936F0280936E024AE250E0B2
:104450005093710240937002CE010D960E94991301
:1044600083E692E00E94C60B0EE611E0EFE9EE2E25
:10447000E1E0FE2EFFECCF2EF1E0DF2EAFEFAA2E13
:10448000A1E0BA2EBFE28B2EB2E09B2E412C512C24
:10449000320168E572E080E090E00E943A0A6C52D6
:1044A0007140810991090E948E2BD4016D937D93F7
:1044B0008D939D934D016CE271E080E090E00E944D
:1044C0003A0ADC01CB018C529140A109B109BC012F
:1044D000CD01640D751D861D971D0E948E2BF50163
:1044E00061937193819391935F0168EC70E080E038
:1044F00090E00E943A0A6C597F4F8F4F9F4F0E9465
:104500008E2BD6016D937D938D939D936D0168ECF9
:1045100070E080E090E00E943A0A6C597F4F8F4F24
:104520009F4F0E948E2BF70161937193819391931A
:104530007F01D801E1E0ED938D01F8EC4F0E511CA5
:10454000611C711C20E6421629E0520661047104C8
:1045500009F09FCF60ED77E080E090E00E94E817DF
:1045600010927D0110927E0110927F0110928001C5
:1045700020E030E04AEF52E460912F027091300267
:1045800080913102909132020E945C2D60939B01D8
:1045900070939C0180939D0190939E0180E090E038
:1045A000A8E4B3EC8093970190939801A0939901AC
:1045B000B0939A0180E090E0AAEFB2E48093020108
:1045C00090930301A0930401B0930501CE010D96D1
:1045D0000E94A21312C0ABA1BCA18C91882369F0E8
:1045E000ABA1BCA11C9224E130E048EE53E064E1B1
:1045F00070E084EF91E00E948A0BB1E0B0937A0101
:10460000F10180819181A281B381BC01CD019058DB
:1046100020E030E040E752E40E945B2D4B015C015A
:10462000C0909701D0909801E0909901F0909A0184
:10463000A7019601C501B4010E94872B87FD09C01F
:10464000C0929701D0929801E0929901F0929A015C
:104650000BC020E030E040E85FE3C701B6010E94F4
:104660005B2D6B017C01E4CF2FA138A52F5F3F4F5D
:1046700038A72FA349A55AA54C505E4F5AA749A762
:1046800054E0250E311C8BA19CA101969CA38BA309
:10469000A9A1BAA11496BAA3A9A3EB8DFC8D349657
:1046A000FC8FEB8F2C30310509F023CA0E94B10B2F
:1046B00083FF21C080917A018823E9F020E030E077
:1046C00040EF51EC20937D0130937E0140937F01B8
:1046D0005093800110927A0166E9E62EF12C0EE0EB
:1046E00011E024E630E04AE550E062E370E08EE15C
:1046F00090E00E94620B00E010E0ABA5BCA58D919C
:10470000BCA7ABA7811102C00F5F1F4FE9E7F1E023
:104710002BA53CA5E217F30781F74CEB57E060E0CF
:1047200070E080E090E00E94581210926F021092A8
:104730006E021092710210927002B801CE010196C1
:104740000E944E13BE016F5F7F4FCE0107960E94FD
:104750001C0A6FE571E0CE0107960E94CB090E940A
:104760009913CE0107960E94A213CE0101960E94D2
:10477000A213A6C22DEC3CEC4CE45EE360916A010E
:1047800070916B0180916C0190916D010E945C2D84
:104790006B017C0160936A0170936B0180936C01E3
:1047A00090936D0120E030E040EC5FE30E94ED2B40
:1047B0000E94C82D4B015C01C701B6010E94B92EB1
:1047C0006B017C0120E030E040E850E4C501B40119
:1047D0000E94ED2B0E943F2E4B015C0120E030E057
:1047E00040E850E4C701B6010E94ED2B0E943F2E25
:1047F000DC01CB014AEB55E0B4010E94581220E0E5
:1048000030E0A901609166017091670180916801B3
:10481000909169010E94872B81110FC08DE590E076
:1048200090936F0280936E0289E290E09093710200
:104830008093700283EB95E00EC082E690E0909347
:104840006F0280936E0289E290E0909371028093F0
:1048500070028DEA95E00E94A7138091650120E027
:1048600030E040E85FE3882351F160916601709188
:10487000670180916801909169010E94872B8111E5
:104880000FC08BE490E090936F0280936E0281E3FF
:1048900090E0909371028093700284EA95E038C0B2
:1048A00081E590E090936F0280936E0281E390E047
:1048B00090937102809370028CE995E029C0609119
:1048C00066017091670180916801909169010E9471
:1048D000872B81110FC08BE490E090936F0280933F
:1048E0006E0281E390E0909371028093700282E9FE
:1048F00095E00EC081E590E090936F0280936E0288
:1049000081E390E0909371028093700289E895E0D2
:104910000E94A713809164018111B0C10E94B10B64
:1049200087FF1BC020E030E040E85FE36091660154
:104930007091670180916801909169010E945B2DDF
:104940006093660170936701809368019093690199
:1049500081E0809364010E94C2130E94B10B84FF26
:104960001BC020E030E040E85FE360916601709199
:10497000670180916801909169010E945C2D6093AC
:10498000660170936701809368019093690181E0EB
:10499000809364010E94C2130E94B10B83FF3AC14D
:1049A00020E030E040E85FE36091660170916701CC
:1049B00080916801909169010E94872B811116C036
:1049C00080916501882319F0109265010FC081E084
:1049D000809365010E94C00B24EF31E048EC50E069
:1049E00064EF71E084E690E00E948A0B20E030E002
:1049F000A9016091660170916701809168019091B1
:104A000069010E94872B811102C183E090E090939D
:104A10000101809300012FE2822E22E0922E3FEFCF
:104A2000A32E31E0B32E4FECC42E41E0D42E5FE92B
:104A3000E52E51E0F52E0EE611E0412C512C32010D
:104A40003324339468E572E080E090E00E943A0AF3
:104A50006C527140810991090E948E2BD4016D9393
:104A60007D938D939D934D016CE271E080E090E029
:104A70000E943A0ADC01CB018C529140A109B10994
:104A8000BC01CD01640D751D861D971D0E948E2BE6
:104A9000F50161937193819391935F0168EC70E0EC
:104AA00080E090E00E943A0A6C597F4F8F4F9F4FF1
:104AB0000E948E2BD6016D937D938D939D936D01F6
:104AC00068EC70E080E090E00E943A0A6C597F4FF9
:104AD0008F4F9F4F0E948E2BF701619371938193AB
:104AE00091937F01D8013D928D01B8EC4B0E511C82
:104AF000611C711CE0E64E16E9E05E06610471047B
:104B000009F0A0CF10927C0110927B010E943B1310
:104B10008AE290E090936F0280936E0280E290E0D0
:104B20009093710280937002609100017091010175
:104B3000CE0107960E944E136BE471E0CE01019600
:104B40000E94250ABE01695F7F4FCE0101960E9437
:104B500086130E949913CE0101960E94A213CE01E2
:104B600007960E94A21383E692E00E94C60B109261
:104B70007D0110927E0110927F011092800120E051
:104B800030E04AEF52E460912F0270913002809140
:104B90003102909132020E945C2D60939B017093D0
:104BA0009C0180939D0190939E0120E030E040E7BE
:104BB00052EC2093970130939801409399015093C0
:104BC0009A0180E090E0AAEFB2E480930201909312
:104BD0000301A0930401B093050194EFE92EFF2493
:104BE000F3940EE110E024EF31E040E951E064EF8E
:104BF00071E084E690E00E94620B6CED75E080E06D
:104C000090E00E94E817109207011092060181E0DF
:104C10008093640120E030E0A90160916601709109
:104C2000670180916801909169010E94872B87FF3D
:104C300008C01092660110926701109268011092EC
:104C4000690120E030E040E85FE360916601709127
:104C5000670180916801909169010E94B42E181635
:104C6000CCF480E090E0A0E8BFE3809366019093ED
:104C70006701A0936801B09369010CC00E94B10B59
:104C800087FD08C00E94B10B84FD04C00E94B10BD7
:104C900083FF50C0A0906A01B0906B01C0906C017E
:104CA000D0906D01E12CF12C08E413E420E030E019
:104CB00040EF51E460E070E080E791EC0E94000D6D
:104CC00080916501882319F00E94C00B02C00E94E8
:104CD000BB0B83E692E00E94C60B80E090E0892B3C
:104CE00011F40C94941A0E9400000C94941A21154B
:104CF000310591F0FD01E60FF71FE653FF4FE491F8
:104D0000F0E02F01062C02C0559447940A94E2F774
:104D1000F6018080482840821196FFEFCF1ADF0A03
:104D2000EFEFAE1ABE0AA835B10511F00C941F1AA8
:104D30000C940F1A10926401ADCFEF92FF920F9373
:104D40001F93CF93DF93E6E7F2E01382128288EE9F
:104D500093E0A0E0B0E084839583A683B78382E2EA
:104D600091E0918380838FEF9FEF95878487EFE5B4
:104D7000F2E0138212821186128680E18387108608
:104D80001782158684E391E09183808382E491E029
:104D900095838483108A1786128A118A81E0838B17
:104DA000148A858B168A68E572E080E090E00E94A4
:104DB0003A0A0FE212E06C527140810991090E9497
:104DC0008E2BF801608371838283938368E572E0A0
:104DD00080E090E00E943A0A6C527140810991098A
:104DE0000E948E2BF801648375838683978368E520
:104DF00072E080E090E00E943A0A6C5271408109B2
:104E000091090E948E2BF8016087718782879387B2
:104E100068E572E080E090E00E943A0A6C527140CE
:104E2000810991090E948E2BF80164877587868716
:104E3000978768E572E080E090E00E943A0A6C5241
:104E40007140810991090E948E2BF801608B718B52
:104E5000828B938B68E572E080E090E00E943A0AD2
:104E60006C527140810991090E948E2BF801648B6C
:104E7000758B868B978B68E572E080E090E00E94EE
:104E80003A0A6C527140810991090E948E2BF801F7
:104E9000608F718F828F938F68E572E080E090E081
:104EA0000E943A0A6C527140810991090E948E2B2E
:104EB000F801648F758F868F978F68E572E080E0C8
:104EC00090E00E943A0A6C527140810991090E9457
:104ED0008E2BF80160A371A382A393A368E572E00F
:104EE00080E090E00E943A0A6C5271408109910979
:104EF0000E948E2BF80164A375A386A397A368E58F
:104F000072E080E090E00E943A0A6C5271408109A0
:104F100091090E948E2BF80160A771A782A793A721
:104F200068E572E080E090E00E943A0A6C527140BD
:104F3000810991090E948E2BF80164A775A786A7A5
:104F400097A760E971E080E090E00E943A0ACFEF15
:104F5000D1E0685C7109810991090E948E2B6883F8
:104F600079838A839B8360E971E080E090E00E940E
:104F70003A0A685C7109810991090E948E2B6C8341
:104F80007D838E839F8360E971E080E090E00E94E2
:104F90003A0A685C7109810991090E948E2B688721
:104FA00079878A879B8760E971E080E090E00E94C2
:104FB0003A0A685C7109810991090E948E2B6C87FD
:104FC0007D878E879F8760E971E080E090E00E9496
:104FD0003A0A685C7109810991090E948E2B688BDD
:104FE000798B8A8B9B8B60E971E080E090E00E9476
:104FF0003A0A685C7109810991090E948E2B6C8BB9
:105000007D8B8E8B9F8B60E971E080E090E00E9449
:105010003A0A685C7109810991090E948E2B688F98
:10502000798F8A8F9B8F60E971E080E090E00E9429
:105030003A0A685C7109810991090E948E2B6C8F74
:105040007D8F8E8F9F8F60E971E080E090E00E94FD
:105050003A0A685C7109810991090E948E2B68A344
:1050600079A38AA39BA360E971E080E090E00E94AD
:105070003A0A685C7109810991090E948E2B6CA320
:105080007DA38EA39FA360E971E080E090E00E9481
:105090003A0A685C7109810991090E948E2B68A700
:1050A00079A78AA79BA760E971E080E090E00E9461
:1050B0003A0A685C7109810991090E948E2B6CA7DC
:1050C0007DA78EA79FA768EC70E080E090E00E942B
:1050D0003A0A2FECE22E21E0F22E6C597F4F8F4FCF
:1050E0009F4F0E948E2BF70160837183828393838D
:1050F00068EC70E080E090E00E943A0A6C597F4FC3
:105100008F4F9F4F0E948E2BF70164837583868398
:10511000978368EC70E080E090E00E943A0A6C5956
:105120007F4F8F4F9F4F0E948E2BF70160877187B3
:105130008287938768EC70E080E090E00E943A0AF2
:105140006C597F4F8F4F9F4F0E948E2BF7016487C2
:1051500075878687978768EC70E080E090E00E9412
:105160003A0A6C597F4F8F4F9F4F0E948E2BF70149
:10517000608B718B828B938B68EC70E080E090E0A9
:105180000E943A0A6C597F4F8F4F9F4F0E948E2B7F
:10519000F701648B758B868B978B68EC70E080E0F1
:1051A00090E00E943A0A6C597F4F8F4F9F4F0E94A8
:1051B0008E2BF701608F718F828F938F68EC70E078
:1051C00080E090E00E943A0A6C597F4F8F4F9F4FCA
:1051D0000E948E2BF701648F758F868F978F68ECF6
:1051E00070E080E090E00E943A0A6C597F4F8F4F48
:1051F0009F4F0E948E2BF70160A371A382A393A3FC
:1052000068EC70E080E090E00E943A0A6C597F4FB1
:105210008F4F9F4F0E948E2BF70164A375A386A327
:1052200097A368EC70E080E090E00E943A0A6C5925
:105230007F4F8F4F9F4F0E948E2BF70160A771A762
:1052400082A793A768EC70E080E090E00E943A0AA1
:105250006C597F4F8F4F9F4F0E948E2BF70164A791
:1052600075A786A797A768EC70E080E090E00E94A1
:105270003A0A3FE9E32E31E0F32E6C597F4F8F4F0E
:105280009F4F0E948E2BF7016083718382839383EB
:1052900068EC70E080E090E00E943A0A6C597F4F21
:1052A0008F4F9F4F0E948E2BF701648375838683F7
:1052B000978368EC70E080E090E00E943A0A6C59B5
:1052C0007F4F8F4F9F4F0E948E2BF7016087718712
:1052D0008287938768EC70E080E090E00E943A0A51
:1052E0006C597F4F8F4F9F4F0E948E2BF701648721
:1052F00075878687978768EC70E080E090E00E9471
:105300003A0A6C597F4F8F4F9F4F0E948E2BF701A7
:10531000608B718B828B938B68EC70E080E090E007
:105320000E943A0A6C597F4F8F4F9F4F0E948E2BDD
:10533000F701648B758B868B978B68EC70E080E04F
:1053400090E00E943A0A6C597F4F8F4F9F4F0E9406
:105350008E2BF701608F718F828F938F68EC70E0D6
:1053600080E090E00E943A0A6C597F4F8F4F9F4F28
:105370000E948E2BF701648F758F868F978F68EC54
:1053800070E080E090E00E943A0A6C597F4F8F4FA6
:105390009F4F0E948E2BF70160A371A382A393A35A
:1053A00068EC70E080E090E00E943A0A6C597F4F10
:1053B0008F4F9F4F0E948E2BF70164A375A386A386
:1053C00097A368EC70E080E090E00E943A0A6C5984
:1053D0007F4F8F4F9F4F0E948E2BF70160A771A7C1
:1053E00082A793A768EC70E080E090E00E943A0A00
:1053F0006C597F4F8F4F9F4F0E948E2BF70164A7F0
:1054000075A786A797A720E030E04AEF52E4F8019D
:1054100060817181828193810E945C2D60939B01E8
:1054200070939C0180939D0190939E018881998146
:10543000AA81BB81B0588093970190939801A09363
:105440009901B0939A0184E397E090939601809339
:10545000950180E090E890939401809393014698A1
:105460003E9A47983F9ADF91CF911F910F91FF90FD
:10547000EF9008950F931F93CF93DF93EC0181E09A
:1054800090E00E94B90B80FF2EC08AE090E00E945D
:10549000B90B9FEF980F9E3F30F522E330E0388B39
:1054A0002F8728E330E03A8B298B0BE010E0E8816E
:1054B000F9810190F081E02D682FCE010995C80196
:1054C0000E94B90B0F5F1F4F0131110581F7CE010B
:1054D00004960E94C60B88EE93E0DF91CF911F9156
:1054E0000F910C94AC0BDF91CF911F910F91089508
:1054F00004970C943A2ADF92EF92FF920F931F9336
:10550000CF93DF93D82EF92EE42E062F10E0C8019A
:105510000196880F0E945B1483E00E945B14CD2DDE
:10552000DF2D0C0F1D1FC017D10789F0E7FE03C048
:10553000FE01849101C088810E945B14F82E80E0F6
:105540000E945B148F2121968111EDCF01C081E073
:10555000DF91CF911F910F91FF90EF90DF90089511
:105560008F929F92AF92BF92CF92DF92EF92FF9273
:10557000CF93DF93EC01688179818A819B816115EA
:1055800071058105910521F464E279ED8BE597E0E1
:105590002DE133EF41E050E00E94C12C49015A0156
:1055A0009B01AC01A7EAB1E40E94E02C6B017C01F5
:1055B000ACEEB4EFA50194010E94EE2CDC01CB010E
:1055C0008C0D9D1DAE1DBF1DB7FF03C00197A10926
:1055D000B04888839983AA83BB83BC01CD019F77A0
:1055E000DF91CF91FF90EF90DF90CF90BF90AF9081
:1055F0009F908F9008958F929F92AF92BF92CF927B
:10560000DF92EF92FF9260911401709115018091E9
:10561000160190911701611571058105910521F41D
:1056200064E279ED8BE597E02DE133EF41E050E066
:105630000E94C12C49015A019B01AC01A7EAB1E4C7
:105640000E94E02C6B017C01ACEEB4EFA50194014B
:105650000E94EE2CDC01CB018C0D9D1DAE1DBF1DEB
:10566000B7FF03C00197A109B0488093140190933C
:105670001501A0931601B0931701BC01CD019F77CE
:10568000FF90EF90DF90CF90BF90AF909F908F9062
:1056900008956093140170931501809316019093FF
:1056A00017010895BB274A3031F4992322F4BDE253
:1056B000909581959F4F0C945E2BBB27FB0155273E
:1056C000AA27880F991FAA1FA41710F0A41B83955F
:1056D0005051B9F7A05DAA3308F0A95DA1930097D6
:1056E00079F7B111B1931192CB010C94772BDC01B6
:1056F000FC01672F71917723E1F7329704C07C9109
:105700006D9370836291AE17BF07C8F308950E942E
:10571000C92B08F481E00895E89409C097FB3EF492
:1057200090958095709561957F4F8F4F9F4F9923EE
:10573000A9F0F92F96E9BB279395F695879577956C
:105740006795B795F111F8CFFAF4BB0F11F460FF2C
:105750001BC06F5F7F4F8F4F9F4F16C0882311F084
:1057600096E911C0772321F09EE8872F762F05C098
:10577000662371F096E8862F70E060E02AF09A9533
:10578000660F771F881FDAF7880F9695879597F928
:105790000895990F0008550FAA0BE0E8FEEF1616C2
:1057A0001706E807F907C0F012161306E407F50715
:1057B00098F0621B730B840B950B39F40A2661F089
:1057C000232B242B252B21F408950A2609F4A1402C
:1057D000A6958FEF811D811D08950E94002C0C94C9
:1057E000712C0E94632C38F00E946A2C20F09523C3
:1057F00011F00C945A2C0C94602C11240C94A52CB0
:105800000E94822C70F3959FC1F3950F50E0551FB5
:10581000629FF001729FBB27F00DB11D639FAA2705
:10582000F00DB11DAA1F649F6627B00DA11D661F54
:10583000829F2227B00DA11D621F739FB00DA11D75
:10584000621F839FA00D611D221F749F3327A00D2F
:10585000611D231F849F600D211D822F762F6A2FCB
:1058600011249F5750409AF0F1F088234AF0EE0F30
:10587000FF1FBB1F661F771F881F91505040A9F75D
:105880009E3F510580F00C945A2C0C94A52C5F3F40
:10589000E4F3983ED4F3869577956795B795F79599
:1058A000E7959F5FC1F7FE2B880F911D9695879511
:1058B00097F9089597F99F6780E870E060E0089590
:1058C0009FEF80EC089500240A9416161706180618
:1058D0000906089500240A941216130614060506F4
:1058E0000895092E0394000C11F4882352F0BB0F85
:1058F00040F4BF2B11F460FF04C06F5F7F4F8F4FE8
:105900009F4F089557FD9058440F551F59F05F3F22
:1059100071F04795880F97FB991F61F09F3F79F0D1
:1059200087950895121613061406551FF2CF469553
:10593000F1DF08C0161617061806991FF1CF8695D5
:105940007105610508940895E894BB2766277727B9
:10595000CB0197F90895F999FECF92BD81BDF89AD0
:10596000992780B50895262FF999FECF1FBA92BDC9
:1059700081BD20BD0FB6F894FA9AF99A0FBE019630
:105980000895052E97FB1EF400940E94D82C57FD15
:1059900007D00E942A2D07FC03D04EF40C94D82C7B
:1059A00050954095309521953F4F4F4F5F4F08954B
:1059B00090958095709561957F4F8F4F9F4F08957B
:1059C0000E944C2DA59F900DB49F900DA49F800D1B
:1059D000911D11240895B7FF0C94E02C0E94E02C37
:1059E000821B930B08952F923F924F925F926F927A
:1059F0007F928F929F92AF92BF92CF92DF92EF925F
:105A0000FF920F931F93CF93DF93CDB7DEB7CA1BDF
:105A1000DB0B0FB6F894DEBF0FBECDBF09942A880A
:105A2000398848885F846E847D848C849B84AA84B2
:105A3000B984C884DF80EE80FD800C811B81AA813F
:105A4000B981CE0FD11D0FB6F894DEBF0FBECDBF0A
:105A5000ED010895A1E21A2EAA1BBB1BFD010DC08A
:105A6000AA1FBB1FEE1FFF1FA217B307E407F5070E
:105A700020F0A21BB30BE40BF50B661F771F881FEA
:105A8000991F1A9469F760957095809590959B0180
:105A9000AC01BD01CF010895A29FB001B39FC00129
:105AA000A39F700D811D1124911DB29F700D811D4A
:105AB0001124911D08955058BB27AA270E94732DC9
:105AC0000C94712C0E94632C38F00E946A2C20F0F8
:105AD00039F49F3F19F426F40C94602C0EF4E095F1
