:100000000C94A0060C94C8060C94C8060C94C80660
:100010000C94C8060C94C8060C94C8060C94C80628
:100020000C94C8060C94C8060C94BD130C942F14A1
:100030000C94C8060C94C8060C94C8060C94C80608
:100040000C94C8060C94C8060C94C8060C94C806F8
:100050000C94C8060C94C8060C94C8060C9452174D
:100060000C94C8060C94C8060C94C8060C94C806D8
:100070000C94C8060C94C8060C94C8060C94C806C8
:100080000C943F0A0C94C8060C94C8060C94C8063D
:100090000C94C8060C94C8060C94C8060C94C806A8
:1000A0000C94C8060C94C8060C94C80605A84CCD40
:1000B000B2D44EB93836A9020C50B9918688083CA2
:1000C000A6AAAA2ABE000000803FF0F89C8E878373
:1000D000878E9CF8F00000FEFF0303030303070E66
:1000E000FCF80000FEFF0303030303070EFCF80007
:1000F00000FFFF00000000000000FFFF0000FEFF07
:100100008383838383C7EE7C380000F8FC0E0703EB
:100110000303070EFCF800003F7FE0C08080C0E0D2
:100120007F3FFFFF01010101010101FFFF0000FF0F
:10013000FF0C0C0C0C1C3E77E3C100007FFFC0C01D
:10014000C0C0C0E0703F1F00001F3F70E0C0C0C0D3
:10015000E0703F1F00007FFFC1C1C1C1C1E3773E16
:100160001C00001F3F70E0C0C0C0E0703F1F0000D7
:1001700000000001FFFF01000000D5F08D14A1C8B0
:1001800081CFD9F1AF2000804000000000000000C6
:10019000000000000000000000000000000000005F
:1001A000000000000000000000000000000000004F
:1001B000000000000000000000000000000000003F
:1001C000000000000000000000000000000000002F
:1001D000000000000000000000000000000000001F
:1001E000000000000000000000000000000000000F
:1001F00000000000000000000000000000000000FF
:1002000000000000000000000000000000000000EE
:1002100000000000000000000000000000000000DE
:1002200000000000000000000000000000000000CE
:1002300000000000000000000000000000000000BE
:1002400000000000000000000000000000000000AE
:10025000000000000000000000000000000000009E
:10026000000000000000000000000000000000008E
:10027000000000000000000000000000000000007E
:10028000000000000000000000000000000000006E
:1002900000000000000000000000008080808080DE
:1002A00080808000808080808080808080C080000E
:1002B000000000808080800000000000008000803E
:1002C0008080808080808000C0800000000080806E
:1002D000008080808080808080008080000000001E
:1002E000000000008000808080808080808000800E
:1002F000808080808080800000000000000000007E
:1003000000000000000000000000000000000000ED
:1003100000000000000000000000006F6F6D6D6DB8
:100320006D7D7D406171797D6F67636100010307B9
:100330007E7E070301007F7F0E1C1C0E7F7F007FE7
:100340007F616161617F7F007F7F070E1C387FFFC7
:1003500000FDFD0D0D0D0D0F0F007F7F60606060D3
:100360006060007F7F007F7F6D6D6D6D7F7F007FA0
:100370007F6D6D6D6D7F7F0000000000000000004C
:10038000000000000000000000000000000000006D
:10039000000000000000000000000000000000005D
:1003A000000000000000000000000000000000004D
:1003B00000000000000000000000000000F8F81835
:1003C000181898F8F800F8F8D8D8D8D8D8D800F87D
:1003D000F8C1E070381808000000000000000000BC
:1003E000000000000000000000000000000000000D
:1003F00000000000000000000000000000000000FD
:1004000000000000000000000000000000000000EC
:1004100000000000000000000000000000000000DC
:1004200000000000000000000000000000000000CC
:10043000000000000000000000000000007F3F1CE2
:100440000E0703010000070706060606060600075A
:100450000301000000000000000000000000000098
:10046000000000000000000000000000000000008C
:10047000000000000000000000000000000000007C
:10048000000000000000000000000000000000006C
:10049000000000000000000000000000000000005C
:1004A000000000000000000000000000000000004C
:1004B000000000000000000000000000000000003C
:1004C000000000000000000000000000000000002C
:1004D000000000000000000000000000000000001C
:1004E000000000000000000000000000000000000C
:1004F00000000000000000000000000000000000FC
:1005000000000000000000000000000000000000EB
:1005100000000000000000000000000000000000DB
:1005200000000000000000000000000000000000CB
:1005300000000000000000000000000000000000BB
:1005400000000000000000000000000000000000AB
:10055000000000000000000000000000000000009B
:10056000000000000000000000000000000000008B
:10057000000000000000000000000000000000007B
:10058000000000000000000000536E643A204F6637
:1005900066003E536E643A204F666600536E643ABE
:1005A000204F6E003E536E643A204F6E00537461CC
:1005B0007274003E53746172740080200000000069
:1005C000000000000000000000000000000000002B
:1005D000000000000000000000000000000000001B
:1005E000000000000000000000000000000000000B
:1005F00000000000000000000000000000000000FB
:1006000000000000000000000000000000000000EA
:1006100000000000000000000000000000000000DA
:1006200000000000000000000000000000000000CA
:1006300000000000000000000000000000000000BA
:10064000CFCFCFCFCFCFCFCFCFCFFFFFFFFF00FF99
:10065000FFFF0F0F0F0F0F0F0FFFFFFFFF00FFFF39
:10066000FF0F0F0F0F0F0F0FFFFFFFFF00FFFFFF29
:10067000CFCFCFCFCFCFCFCFCFCFCF000F0F0F0F59
:100680000FFFFFFF0F0F0F0F0F0F00FFFFFF0F0FE9
:100690000F0F0F0F0FFFFFFFFF00CFCFCFCFCFCF39
:1006A000CFCFCFCFFFFFFFFF00FFFFFFCFCFCFCFD9
:1006B000CFCFCFCFCFCFCF00000000000000000091
:1006C0003F3F3F010107070F3F3FF9F9F1F1003FBD
:1006D0003F3F383838383838383F3F3F3F003F3F9A
:1006E0003F383838383838383F3F3F3F00FFFFFF4A
:1006F00001010101010101010101010000000000EF
:10070000003F3F3F000000000000003F3F3F3838FF
:1007100038383838383F3F3F3F00FFFFFF010101C5
:100720000101010101010101003939393939393932
:100730003939393F3F3F3F00000000000000000012
:1007400000000000000000000000000001010000A7
:100750000000000000000000000000000000000099
:100760000000000000000000000000000001010087
:100770000000000000000000000000000000000079
:100780000000000000000000000000000000000069
:100790000000000000000000000001010000000057
:1007A0000000000000000000000000000000000049
:1007B0000000000000000000000000004E6578749A
:1007C0002053746167650047616D65204F766572DF
:1007D0000000000000003E5B4F5B3E3E6B4F6B3EF7
:1007E0001C3E7C3E1C183C7E3C181C577D571C1C34
:1007F0005E7F5E1C00183C1800FFE7C3E7FF00188F
:10080000241800FFE7DBE7FF30483A060E26297977
:100810002926407F050507407F05253F5A3CE73CD8
:100820005A7F3E1C1C08081C1C3E7F14227F221489
:100830005F5F005F5F06097F017F006689956A60E0
:100840006060606094A2FFA29408047E04081020F7
:100850007E201008082A1C08081C2A08081E1010F0
:1008600010100C1E0C1E0C30383E3830060E3E0E9A
:1008700006000000000000005F0000000700070005
:10088000147F147F14242A7F2A12231308646236EB
:10089000495620500008070300001C224100004177
:1008A000221C002A1C7F1C2A08083E0808008070B1
:1008B00030000808080808000060600020100804E4
:1008C000023E5149453E00427F4000724949494637
:1008D0002141494D331814127F1027454545393CB5
:1008E0004A494931412111090736494949364649A2
:1008F00049291E00001400000040340000000814C4
:10090000224114141414140041221408020159093C
:10091000063E415D594E7C1211127C7F4949493691
:100920003E414141227F4141413E7F494949417F0A
:10093000090909013E414151737F0808087F0041C0
:100940007F41002040413F017F081422417F404009
:1009500040407F021C027F7F0408107F3E414141DE
:100960003E7F090909063E4151215E7F091929464A
:10097000264949493203017F01033F4040403F1F60
:100980002040201F3F4038403F6314081463030495
:100990007804036159494D43007F414141020408F5
:1009A0001020004141417F040201020440404040C8
:1009B00040000307080020545478407F28444438FE
:1009C0003844444428384444287F38545454180048
:1009D000087E090218A4A49C787F080404780044C7
:1009E0007D40002040403D007F1028440000417FB2
:1009F00040007C047804787C08040478384444443B
:100A000038FC1824241818242418FC7C0804040832
:100A1000485454542404043F44243C4040207C1C4B
:100A20002040201C3C4030403C44281028444C903E
:100A300090907C4464544C44000836410000007798
:100A40000000004136080002010204023C26232671
:100A50003C1EA1A161123A4040207A3854545559A5
:100A600021555579412154547841215554784020DD
:100A7000545579400C1E52721239555555593954F6
:100A800054545939555454580000457C410002458E
:100A90007D420001457C40F0292429F0F0282528DA
:100AA000F07C545545002054547C547C0A097F49FD
:100AB00032494949323248484832324A4848303A45
:100AC0004141217A3A42402078009DA0A07D3944DE
:100AD0004444393D4040403D3C24FF2424487E4965
:100AE00043662B2FFC2F2BFF0929F620C0887E0997
:100AF0000320545479410000447D413048484A3233
:100B0000384040227A007A0A0A727D0D19317D261A
:100B100029292F28262929292630484D4020380800
:100B200008080808080808382F10C8ACBA2F102881
:100B300034FA00007B000008142A142222142A141C
:100B4000089500220095AA005500AAAA55AA55AA00
:100B5000000000FF00101010FF00141414FF00101C
:100B600010FF00FF1010F010F0141414FC00141407
:100B7000F700FF0000FF00FF1414F404FC14141726
:100B8000101F10101F101F1414141F00101010F04D
:100B9000000000001F101010101F10101010F01097
:100BA000000000FF101010101010101010FF1000A7
:100BB0000000FF140000FF00FF00001F10170000DE
:100BC000FC04F414141710171414F404F40000FFB8
:100BD00000F714141414141414F700F71414141751
:100BE0001410101F101F141414F4141010F010F02F
:100BF00000001F101F0000001F14000000FC140064
:100C000000F010F01010FF10FF141414FF14101057
:100C1000101F00000000F010FFFFFFFFFFF0F0F0DA
:100C2000F0F0FFFFFF0000000000FFFF0F0F0F0FAD
:100C30000F38444438447C2A2A3E147E02020606B9
:100C4000027E027E0263554941633844443C0440BD
:100C50007E201E2006027E020299A5E7A5991C2A85
:100C6000492A1C4C7201724C304A4D4D3030487844
:100C70004830BC625A463D3E494949007E01010167
:100C80007E2A2A2A2A2A44445F444440514A444046
:100C900040444A51400000FF0103E080FF0000088B
:100CA000086B6B083612362436060F090F06000053
:100CB00018180000001010003040FF0101001F0153
:100CC000011E00191D1712003C3C3C3C00000000B6
:100CD00000080B00020202010009040000010202E8
:100CE000000005240010010524010101042402066E
:100CF00005240600010705810310004009040100D6
:100D0000020A0000000705020240000007058302F6
:100D10004000000403090412010002EF02014041F7
:100D200023368000010102030141726475696E6F10
:100D3000204C4C430041726475626F7900000A23B5
:100D400011241FBECFEFDAE0DEBFCDBF11E0A0E07F
:100D5000B1E0E6EFFAE502C005900D92A435B107C7
:100D6000D9F726E0A4E5B1E001C01D92AA3DB20783
:100D7000E1F716E0C0EAD6E004C02197FE010E9428
:100D8000772BCF39D107C9F70E949C170C94792D86
:100D90000C940000CF92DF92EF92FF920F931F937B
:100DA000CF93DF936C017A018B01C0E0D0E0CE15C8
:100DB000DF0581F0D8016D918D01D601ED91FC9197
:100DC0000190F081E02DC6010995892B11F0219643
:100DD000EECF7E01C701DF91CF911F910F91FF9060
:100DE000EF90DF90CF90089580915801E0915601E7
:100DF000F0915701882349F0CF0102969093570153
:100E000080935601859194910895CF010296909315
:100E10005701809356018081918108958091AD02A0
:100E2000089580389105B8F460347105A0F490E11C
:100E300021E061FD24E060FD220F62FD2295687FC4
:100E4000969FD0011124A80FA654BD4F8C91822BE0
:100E500040FF82278C9308952F923F924F925F928A
:100E60006F927F928F929F92AF92BF92CF92DF92BA
:100E7000EF92FF920F931F93CF93DF93CDB7DEB71F
:100E800027970FB6F894DEBF0FBECDBF9F838E832A
:100E90006A30A1F4DC0155962C91559751968D91AD
:100EA0009C915297B8E02B9F800D911D1124EE81EB
:100EB000FF81928B818B108A1786ADC06D3009F44B
:100EC000AAC0AE81BF811F960D911C91509700382A
:100ED0001105BCF0EE81FF812589422F50E0878506
:100EE0009089F6E02F9F800D911D1124AE81BF8166
:100EF00050969C938E931F9756962C91211175C0F6
:100F00008AC0EE81FF8181889288F0E48F16910477
:100F10000CF7AE81BF8155963C90C801B5E03B9E71
:100F2000800D911D112418161906A4F6432C512C7E
:100F3000C401E8E03E9E800D911D1124181619068B
:100F40004CF6AE81BF815496BC91BC83EE81FF818B
:100F5000F389FD8325E0629FB0011124CB018F52FC
:100F6000984F3C011982F3012490F981F53009F47E
:100F7000212C640128E02B8320FE03C03D813A83AD
:100F800002C08C818A839A81911104C0AC81BD8199
:100F9000AB17B9F078018E2D801B831590F45601A4
:100FA0008A2D8C19831548F44A81B501C7010E9426
:100FB0001107EFEFAE1ABE0AF3CFFFEFEF1AFF0AE9
:100FC000EACF26942B8121502B83C40CD51C2111F0
:100FD000D3CF39813F5F3983040D151DC3010196BD
:100FE0003C01363009F0BFCF75CF6AEF6403900142
:100FF000659F300D112420583F4F281739075CF4A6
:10100000AE81BF81ED91FC9111970190F081E02DAF
:101010006AE0CD01099581E090E027960FB6F8943B
:10102000DEBF0FBECDBFDF91CF911F910F91FF901B
:10103000EF90DF90CF90BF90AF909F908F907F9078
:101040006F905F904F903F902F900895089508956E
:1010500080E090E008952F923F924F925F926F92BE
:101060007F928F929F92AF92BF92CF92DF92EF9238
:10107000FF920F931F93CF93DF93CDB7DEB76697A1
:101080000FB6F894DEBF0FBECDBF6F87788B898B0C
:101090009A8B2B833C834D835E83EB8AFC8A0D8B7A
:1010A0001E8B20E030E048EC52E46FA578A989A9B6
:1010B0009AA90E943A2A2B013C019B01AC016BA525
:1010C0007CA58DA59EA50E943A2A20E030E040E054
:1010D00052E40E94C9290E94AC2A6F8378878987CD
:1010E0009A872F8138853A832983A3019201C6010B
:1010F000B5010E943A2A20E030E040E852E40E9424
:10110000C9290E94AC2A6B877C878D879E872B8498
:101110003C8420E030E048EC52E4C801B7010E9472
:101120003A2A4B015C019B01AC016B817C818D8172
:101130009E810E943A2A20E030E040E052E40E9482
:10114000C9290E94AC2A6B837C838D839E830B818B
:101150001C81A50194016F85788989899A890E94EB
:101160003A2A20E030E040E852E40E94C9290E9477
:10117000AC2A5B016F807884601A710A77FE03C025
:101180007194619471088B849C84861A970A97FEE7
:1011900003C0919481949108861497044CF42F8095
:1011A00038842B853C853A832983AB80BC808B01B6
:1011B0002A143B045CF4902F812F09811A819983B2
:1011C0008A839A2D8B2D5101292E382E7101EA1810
:1011D000FB0849805A80401A510A57FE03C05194B7
:1011E000419451086701F7FE03C03FEFC31AD30AC9
:1011F000D594C79489819A810817190714F08FEF45
:1012000001C081E0282F880F330B3A8329832A14E9
:101210003B04CCF041E0861497041CF4B501C801EE
:1012200002C0B801C5010E941107C418D508D7FE35
:1012300006C089819A81080F191FCE0CDF1C9FEF11
:10124000A91AB90AE4CF66960FB6F894DEBF0FBEAE
:10125000CDBFDF91CF911F910F91FF90EF90DF9065
:10126000CF90BF90AF909F908F907F906F905F9046
:101270004F903F902F9008950E94642D0F931F93DD
:10128000CF93DF93EC0188819981009729F02A811F
:101290003B812617370788F48B016F5F7F4F0E94D1
:1012A0009E2C009761F0998388831B830A832C818D
:1012B0003D81232B11F4FC01108281E001C080E00C
:1012C000DF91CF911F910F910895CF93DF93EC01A0
:1012D00088819981009711F00E94152C198218823B
:1012E0001D821C821B821A82DF91CF910895CF92BA
:1012F000DF92EF92FF92611571058105910549F02A
:101300006B017C010E946827A70196010E942E298B
:1013100003C060E070E0CB01FF90EF90DF90CF90D2
:101320000895CF92DF92EF92FF920F931F93CF9386
:10133000DF930E94F406811520E8920761F4809102
:1013400071008D7F809371001092910046984798AC
:101350001092B0028BC021E02093B002813020E8CF
:10136000920751F480915401909155019093570147
:10137000809356010E94F40697FD05C02091AF02AC
:10138000222309F43FC02091AE0221113BC021E08D
:101390002093B102EC01DF77209769F481E080931C
:1013A000B20246983FE9C32E3FE0D32EE12CF12C48
:1013B000CAEFD0E014C08E0120E030E060E472E4B7
:1013C0008FE090E0A90198010E942E2969017A011D
:1013D00081E0C81AD108E108F1081092B202E09148
:1013E0007C01F0917D010995811103C081E080931A
:1013F000B2028091B1028823B9F18091B2028111C9
:1014000033C003C01092B102C5CF46992DC0479A90
:101410000E94F406009771F09C01DE010E94B92938
:10142000DC01CB0129E0B595A795979587952A957D
:10143000D1F703C08FEF9FEFDC01109290002AE0FC
:1014400020939100D0929900C09298008093B302AB
:101450009093B402A093B502B093B602809171004C
:1014600082608093710002C04798D2CFDF91CF9104
:101470001F910F91FF90EF90DF90CF9008951F92F2
:101480000F920FB60F9211242F933F934F935F93B8
:101490006F937F938F939F93AF93BF93EF93FF933C
:1014A0008091B3029091B402A091B502B091B602BE
:1014B000892B8A2B8B2B81F18091B20281110BC079
:1014C00098B180E4892788B98091B102882319F006
:1014D00088B1805888B98091B3029091B402A091EC
:1014E000B502B091B602181619061A061B06B4F416
:1014F0008091B3029091B402A091B502B091B6026E
:101500000197A109B1098093B3029093B402A0930B
:10151000B502B093B60202C00E949109FF91EF910B
:10152000BF91AF919F918F917F916F915F914F91FB
:101530003F912F910F900FBE0F901F901895EF9233
:10154000FF920F931F93DC01E1E7F0E090819D7F14
:10155000908310925801EEE6F1E0F0935701E0938A
:101560005601F0935501E0935401B183A083738336
:101570006283558344833783268311870087F386EC
:10158000E2861F910F91FF90EF900C9491099C01BE
:10159000E1E7F0E090819D7F908310925801EEE6A4
:1015A000F1E0F0935701E0935601F0935501E09379
:1015B0005401318320837383628380E090E89583B4
:1015C00084830C9491094F925F926F927F928F92D5
:1015D0009F92AF92BF92CF92DF92EF92FF920F93C2
:1015E0001F93CF93DF9300D000D0CDB7DEB7DC01DF
:1015F00039012C2DA02EB12CC5018A0F9B1F181666
:1016000019060CF0AEC1A038B1050CF0AAC1FB015F
:10161000EE0DF11D1E161F060CF0A3C160347105FE
:101620000CF09FC14115510509F49BC1362F37704D
:10163000F32EFB0177FD379633E0F595E7953A9564
:10164000E1F73E2F77FF04C0FF2011F03FEF3E0F80
:10165000B7FF05C0EE27FF27EA1BFB0B02C0E0E047
:10166000F0E0803891051CF090E89A1B01C0902FA3
:101670009E1B632F032E000C770B3F3F1CF4162F8D
:10168000109501C010E0DD24D3948E2D877009F4ED
:10169000D12CE694E694E694ED0C6E0D711D693044
:1016A00071051CF088E0E82EE31AE11A310F60E8BA
:1016B0003603A00DB11D1124AE0FBF1F019FE00D19
:1016C000F11D11244E0F5F1F61E070E04B010F2CE4
:1016D00002C0880C991C0A94E2F7233009F4FFC079
:1016E000B8F4213009F4B3C0223009F03AC18FEFC9
:1016F000889D8001899D100D1124009510951A83F5
:1017000009832A81FD01E654FD4F2F01E30E29C014
:101710002A3FD1F12B3F09F024C1FD01E654FD4FD2
:101720006F01E30E82C08491889D6001899DD00C79
:101730001124DC82CB8237FD05C0DB018C91802334
:10174000C82ACC92F11013C031966F5F7F4F8E2F55
:10175000841B891740F33F5F4A0D5B1DB0E84B0EB9
:10176000511C3E1509F4FDC0B201FA01F0CF37302B
:101770005CF76B01B0E8CB0ED11CD6018C918223B3
:101780007C8087298C93E0CFFD01E654FD4F6F01EB
:10179000E30E3E1509F4E5C08601FA018E2F841B85
:1017A0008917F0F48491889DB001899D700D1124F2
:1017B0007C836B8337FD04C0D8018C91682B6C93BC
:1017C000FF2051F0373044F4B80160587F4FDB01FF
:1017D0002C918C81822B8C9331960F5F1F4FDECF23
:1017E0003F5F4A0D5B1DB0E8CB0ED11CD2CF849178
:1017F000889D8001899D100D11241C830B8337FD6A
:1018000005C00095DB018C9108230C93F11013C0E7
:1018100031966F5F7F4F8E2F841B891740F33F5F98
:101820004A0D5B1DB0E8CB0ED11C3E1509F499C0E2
:10183000B601FA01F0CF37305CF78B0100581F4F2B
:101840008C818095D8012C9182238C93E1CFB301B8
:101850006E0F7F1FA654BD4FE30E3E1509F481C0E5
:101860008D01C12CD12CC91690F5FB01EC0DFD1D8D
:10187000E491E89D3001E99D700C1124609470940E
:101880007A826982FA01EC0DFD1DE491E89D200148
:10189000E99D500C11245C824B8237FD05C0F80194
:1018A0008081682246284082FF2059F037304CF46E
:1018B000F801E058FF4F20818A8182232C81822BFE
:1018C0008083FFEFCF1ADF0A0F5F1F4FCCCF3F5F40
:1018D0004A0D5B1D6A0D7B1DA058BF4FBECFC92EA0
:1018E000D12CE40FF51FA654BD4F00E810E00C19F1
:1018F0001D09AC18BD08A501440F551F792F2E2DC9
:10190000792ECF93DF93ED01EF96EF962296A59077
:10191000C590FF2059F0A89C5001C89C6001373049
:101920002CF4E880D094ED20EB28E99233233AF0B0
:10193000EC90C094EC20EA28ED920C94A00C119647
:101940007A9529F72A9551F0772D33951124E40FD4
:10195000F11DA00FB11DC00FD11DD9CFDF91CF91C7
:1019600011240F900F900F900F90DF91CF911F9146
:101970000F91FF90EF90DF90CF90BF90AF909F902E
:101980008F907F906F905F904F9008952D9A08955B
:10199000BC0180E090E00C946D168FB18095807F43
:1019A000669B88601C9B846008950C941829109293
:1019B000AD023E983F9808953E9A3F9A81E0809309
:1019C000AD02089580E00C94DA122F923F924F926C
:1019D0005F926F927F928F929F92AF92BF92CF92BF
:1019E000DF92EF92FF920F931F93CF93DF93CDB7C8
:1019F000DEB7A8970FB6F894DEBF0FBECDBF2B01A0
:101A00003C01922E3B874F87852EAD82BE82CF82CE
:101A1000D8862BED3FE049EC5FE3C601B5010E949B
:101A2000C9295B016C010E94352A20E030E040EAC0
:101A300051E40E945A28E982FA820B831C839701A1
:101A4000A8010E94C9296C8F7D8F8E8F9F8FC60140
:101A5000B5010E94262B20E030E040EA51E40E94CC
:101A60005A28A30192010E94C929688B798B8A8B1D
:101A70009B8B6D817E818F8198850E94352A20E025
:101A800030E040EA51E40E945A282E2D3F2D402F8D
:101A9000512F0E94C9296C8B7D8B8E8B9F8B6D8102
:101AA0007E818F8198850E94262B20E030E040EADD
:101AB00051E40E945A28A30192010E94C929688F0B
:101AC000798F8A8F9B8F8F8D8F939E8D9F938D8D16
:101AD0008F939C8D9F938F928F858F939B859F93E0
:101AE0009F92A888B988CA88DB88EC88FD880E890F
:101AF0001F89292C98A78FA3382C292D392F482FDF
:101B0000582D688D798D8A8D9B8D0E942B082BED29
:101B10003FE049E450E46D817E818F8198850E9489
:101B2000C9296B017C010E94352A20E030E040EA9F
:101B300051E40E945A28B981AA81FB81EC812B2FA4
:101B40003A2F4F2F5E2F0E94C9296F8778A389A350
:101B50009AA3C701B6010E94262B20E030E040EA9C
:101B600051E40E945A28A30192010E94C9296B875F
:101B70007C878D879E878AA18F9399A19F9388A147
:101B80008F939F859F938F928FA18F9398A59F93FB
:101B90009F92AB84BC84CD84DE843C8D2D8D9E8D44
:101BA0008F8DE32EF22E092F182F68A59FA1292DC6
:101BB000362F492F582D688979898A899B890E94F7
:101BC0002B0824EE3BEC46E950E46D817E818F8149
:101BD00098850E94C9296B017C010E94352A20E06A
:101BE00030E040EA51E40E945A28B981AA81FB8181
:101BF000EC812B2F3A2F4F2F5E2F0E94C9296BA308
:101C00007CA38DA39EA3C701B6010E94262B20E0D2
:101C100030E040EA51E40E945A28A30192010E9458
:101C2000C9296D837E838F8398878EA18F939DA111
:101C30009F938CA18F939BA19F938F928FA18F9342
:101C400098A59F939F92AD80BE80CF80D8843F851A
:101C500028A199A18AA1E32EF22E092F182F68A599
:101C60009FA1292D362F492F582D6B857C858D8579
:101C70009E850E942B088EA18F939DA19F938CA17E
:101C80008F939BA19F938F928FA18F9398A59F93E2
:101C90009F92AD80BE80CF80D884EC88FD880E896D
:101CA0001F8968A59FA1292D362F492F582D688D92
:101CB000798D8A8D9B8D0E942B0820E030E040EFCB
:101CC00051E4A8A5FFA1692D7A2F8F2F982D0E948E
:101CD000C9294B0189879A870FB6F894DEBF0FBEDA
:101CE000CDBF9C819F938B818F939A819F93898194
:101CF0008F939A859F9389858F939F928F9263018B
:101D00005201EC88FD880E891F8968A59FA1222DAC
:101D1000362F492F532D688D798D8A8D9B8D0E948A
:101D20002B089C819F938B818F939A819F938981AC
:101D30008F939A859F9389858F939F928F923C8DE5
:101D40002D8D9E8D8F8DE32EF22E092F182F68A5D5
:101D50009FA1222D362F492F532D688979898A8991
:101D60009B890E942B089C819F938B818F939A81E2
:101D70009F9389818F939A859F9389858F939F9253
:101D80008F923F8528A199A18AA1E32EF22E092FD7
:101D9000182F68A59FA1222D362F492F532D6B8513
:101DA0007C858D859E850E942B089C819F938B81CD
:101DB0008F939A819F9389818F939A859F93898529
:101DC0008F939F928F923BA12CA19DA18EA1E32E78
:101DD000F22E092F182F68A59FA1222D362F492FEB
:101DE000532D6D817E818F8198850E942B0820E084
:101DF00030E040EF51E4A8A5FFA1622D7A2F8F2F8C
:101E0000932D0E94C8294B0189879A870FB6F894B1
:101E1000DEBF0FBECDBF9C819F938B818F939A8134
:101E20009F9389818F939A859F9389858F939F92A2
:101E30008F92EC88FD880E891F8968A59FA1222DAD
:101E4000362F492F532D688D798D8A8D9B8D0E9459
:101E50002B089C819F938B818F939A819F9389817B
:101E60008F939A859F9389858F939F928F923C8DB4
:101E70002D8D9E8D8F8DE32EF22E092F182F68A5A4
:101E80009FA1222D362F492F532D688979898A8960
:101E90009B890E942B089C819F938B818F939A81B1
:101EA0009F9389818F939A859F9389858F939F9222
:101EB0008F923F8528A199A18AA1E32EF22E092FA6
:101EC000182F68A59FA1222D362F492F532D6B85E2
:101ED0007C858D859E850E942B089C819F938B819C
:101EE0008F939A819F9389818F939A859F938985F8
:101EF0008F939F928F923BA12CA19DA18EA1E32E47
:101F0000F22E092F182F68A59FA1222D362F492FB9
:101F1000532D6D817E818F8198850E942B080FB68D
:101F2000F894DEBF0FBECDBFA8960FB6F894DEBF03
:101F30000FBECDBFDF91CF911F910F91FF90EF901A
:101F4000DF90CF90BF90AF909F908F907F906F90D9
:101F50005F904F903F902F9008952F923F924F9215
:101F60005F926F927F928F929F92AF92BF92CF9229
:101F7000DF92EF92FF920F931F93CF93DF93CDB732
:101F8000DEB766970FB6F894DEBF0FBECDBF6D8388
:101F90007E838F83988729873A874B875C871701D1
:101FA0004801AD86BE86CF86D88A20E030E0A90100
:101FB0006E2D732D802F992D0E94212B18160CF059
:101FC000DCC02FA538A949A95AA96E2D732D802FE1
:101FD000992D0E94C9296B8B7C8B8D8B9E8B2BA599
:101FE0003CA54DA55EA569857A858B859C850E945B
:101FF000C82969837A838B839C838E898F939D897B
:102000009F938C898F939B899F938C818F939B81C6
:102010009F938A818F9399819F93AD80BE80CF805B
:10202000D884F32C192D79816A819B818C81272F8B
:10203000362F492F582FC601B5010E942B082D8538
:102040003E854F8558896D817E818F8198850E945C
:10205000C9292B013C018E898F939D899F938C897F
:102060008F939B899F938C818F939B819F938A8170
:102070008F9399819F9363015201E22CF32C082DD9
:10208000192D79816A819B818C81272F362F492FC9
:10209000582FC301B2010E942B089F928F923F924A
:1020A0002F928C818F939B819F938A818F939981AB
:1020B0009F93E22CF32C082D192D79816A819B8145
:1020C0008C81272F362F492F582F6D817E818F814C
:1020D00098850E942B0820E030E041E654E46985B1
:1020E0007A858B859C850E94C9296B8B7C8B8D8B17
:1020F0009E8B9F928F923F922F929F938F938C896A
:102100008F939B899F93E22CF32C082D192D7981B5
:102110006A819B818C81272F362F492F582FC3012D
:10212000B2010E942B080FB6F894DEBF0FBECDBFE0
:102130009F928F923F922F929E899F938D898F932A
:102140009C899F938B898F93AD80BE80CF80D884EC
:10215000E22CF32C082D192D79816A819B818C81C9
:10216000272F362F492F582FC601B5010E942B0863
:102170000FB6F894DEBF0FBECDBF2FA538A949A971
:102180005AA9622D732D882D992D0E94C9293B01D2
:102190004C0120E030E0A901772D882D992D0E9477
:1021A000212B18160CF085C02D853E854F8558894A
:1021B0006D817E818F8198850E94C9291B012C0128
:1021C0002BA53CA54DA55EA569857A858B859C854B
:1021D0000E94C82969837A838B839C839F928F9204
:1021E0007F926F929F938F939A819F9389818F9310
:1021F00062015101E62CF72C082D192D79816A8195
:102200009B818C81272F362F492F582F6D817E81FE
:102210008F8198850E942B0820E030E041E654E44D
:1022200069857A858B859C850E94C92969877D8708
:10223000898B9A8B9F928F927F926F929F938F93AD
:102240009D859F9389858F93E62CF72C082D192D5A
:1022500079816A819B818C81272F362F492F582FB6
:10226000C201B1010E942B089F928F927F926F92C0
:102270009A899F9389898F939D859F9389858F9351
:10228000AD80BE80CF80D884E62CF72C082D192D88
:1022900079816A819B818C81272F362F492F582F76
:1022A000C601B5010E942B080FB6F894DEBF0FBE21
:1022B000CDBF66960FB6F894DEBF0FBECDBFDF91DF
:1022C000CF911F910F91FF90EF90DF90CF90BF9033
:1022D000AF909F908F907F906F905F904F903F90C6
:1022E0002F9008952091B902211103C08FEF9FEF25
:1022F00008955FB7F89422E02093E9002091F2005E
:1023000030E01216130614F421E030E0422FFC01F5
:1023100084E6415038F028988093CC069091F100E3
:102320009193F7CF2115310521F08091F200882398
:1023300019F05FBFC90108958BE68093E800F9CFDB
:102340002FB7F89483E08093E9009091E800892FFB
:10235000807295FF04C09091F20080E4891B2FBF2A
:1023600008958091C40681110DC082E08093C0065B
:1023700084E08093C1061092C3061092C20681E0E9
:102380008093C40680EC96E00895CF93DF931F926C
:10239000CDB7DEB76983DC01ED91FC910280F3815A
:1023A000E02D41E050E0BE016F5F7F4F09950F9037
:1023B000DF91CF91089583E08093E9008091F2004E
:1023C000882319F08AE38093E80008950E94A01101
:1023D00090E00895CF93DF931F92CDB7DEB7FC0155
:1023E0008485958597FD05C02FEF3FEF35872487BE
:1023F0000BC0CE0101960E947211019719F48981D8
:1024000090E002C08FEF9FEF0F90DF91CF91089582
:102410000F931F93CF93DF931F92CDB7DEB78C013D
:10242000FC018485958597FF0EC0CE0101960E9420
:102430007211019719F4898190E002C08FEF9FEF2C
:10244000F80195878487F801848595850F90DF9141
:10245000CF911F910F910895FC018485958597FD7B
:102460000BC09FB7F89482E08093E9008091F2005E
:102470009FBF90E0019608959FB7F89482E0809303
:10248000E9008091F2009FBF90E008954091BC0662
:102490005091BD062091BA063091BB0642175307F2
:1024A000B4F49091E8009570E1F39091E80092FD0A
:1024B00019C08093F1008091BC069091BD060196F1
:1024C0008F739927892B19F48EEF8093E800809100
:1024D000BC069091BD0601969093BD068093BC0604
:1024E00081E0089580E00895DF92EF92FF920F93CC
:1024F0001F93CF93DF93D82E8A017B01E40EF51E44
:10250000EB01CE15DF0571F0D7FE03C0FE0184910B
:1025100001C088810E94461221968111F2CF8FEF6F
:102520009FEF01C0C801DF91CF911F910F91FF90E4
:10253000EF90DF9008950F931F93CF93DF931F9237
:10254000CDB7DEB782E0898342E450E061ED7CE004
:1025500080E80E9474120E94B111DC0112960D9164
:102560001C9113970115110589F0D801ED91FC918B
:102570000280F381E02DBE016F5F7F4FC801099596
:1025800097FD04C0F80100851185ECCF89810F907B
:10259000DF91CF911F910F910895615030F02091FC
:1025A000F100FC0120830196F8CF289884E68093FF
:1025B000CC060895EAEBF2E0A0E0B8E000800EBCA3
:1025C0008111012C1197A0FDFDCF0192B9F70DB437
:1025D000089580E0EAEBF2E081118FEF002481930F
:1025E0008193819381930394D1F7E6E4F2E0128A18
:1025F000118A108A17860895CF92DF92EF92FF9288
:102600000F931F93CF93DF93CDB7DEB762970FB6CB
:10261000F894DEBF0FBECDBF8C01CB01F801118253
:10262000108213821282158214824AE09E012F5F6B
:102630003F4F6901B9010E94BF27F60101900020B8
:10264000E9F731977F01EC18FD08B701C8010E9436
:102650003E09811104C0C8010E94650908C0F80143
:10266000F582E482B601808191810E94722D62968A
:102670000FB6F894DEBF0FBECDBFDF91CF911F9193
:102680000F91FF90EF90DF90CF900895CF93DF935D
:10269000EC01198218821B821A821D821C8267E05B
:1026A00070E00E943E09811105C0CE01DF91CF91FB
:1026B0000C94650987E090E09D838C836BE471E066
:1026C00088819981DF91CF910C94722DEF92FF92C6
:1026D0000F931F93CF93DF93EC01FB0104811581CE
:1026E000E080F180E114F104C9F001151105C9F091
:1026F0008C819D81080F191FB801CE010E943E09EF
:10270000882361F0288139818C819D81B701820FF6
:10271000931F0E94722D1D830C8303C0CE010E9463
:102720006509CE01DF91CF911F910F91FF90EF903E
:102730000895FC01448155816081718186E492E0B5
:102740000C94CA060F931F93CF93DF938C01C0E0C4
:10275000D0E0F801EC0FFD1F6491662341F086E4A0
:1027600092E00E942C07892B11F02196F2CFCE0126
:10277000DF91CF911F910F9108951F920F920FB685
:102780000F9211248F939F938091E1009091E1002B
:10279000937F9093E10083FF0FC01092E90091E0D6
:1027A0009093EB001092EC0092E39093ED00109266
:1027B000B90298E09093F00082FF20C093E09093DC
:1027C000E9009091F200992319F09AE39093E800C0
:1027D0009091BF06992339F09091BF069150909344
:1027E000BF06992389F19091CC06992339F09091F5
:1027F000CC0691509093CC06992341F184FF10C0F0
:102800008091E2008E7E81608093E2008091E10001
:102810008F7E8093E1008091B8028E7E806111C02E
:1028200080FF16C08091E2008E7E80618093E2007E
:102830008091E1008E7E8093E1008091B8028E7ECF
:1028400081608093B80204C05D9ACDCF289AD6CF1C
:102850009F918F910F900FBE0F901F9018951F9210
:102860000F920FB60F921124CF92DF92EF92FF9248
:102870000F931F932F933F934F935F936F937F9388
:102880008F939F93AF93BF93EF93FF93CF93DF9378
:10289000CDB7DEB76C97DEBFCDBF1092E900809157
:1028A000E80083FFFBC168E0CE0145960E94CD128F
:1028B00082EF8093E8008D8987FF05C09091E80042
:1028C00090FFFCCF03C09EEF9093E800982F907686
:1028D00009F0C6C09E894F89588D2F89F88C9111B7
:1028E0000CC0803829F48091B7028093F10002C0B7
:1028F0001092F1001092F10045C1913051F4811114
:1029000041C14130510509F03DC18091B7028D7F31
:102910000BC0933061F4811135C14130510509F08C
:1029200031C18091B70282608093B7022BC195308C
:1029300049F48091E80080FFFCCF822F806880936B
:10294000E30020C1963009F05EC00B8D1C8D22E0A3
:102950001092E9001092BD061092BC06F21232C02D
:102960001092BB061092BA060E949B1299E0BE011B
:102970006F5F7F4FDB01E92F1D92EA95E9F799839D
:10298000FA8291E09E8390EA98879AEF9987209146
:10299000BC063091BD06275F3F4F3C832B838D8360
:1029A0001092E9001092BD061092BC061093BB066F
:1029B0000093BA0649E050E080E00E9474120E9441
:1029C0009B12E0C01093BB060093BA060E94B1119F
:1029D000DC0112960D911C9113970115110509F454
:1029E000BBC0D801ED91FC910480F581E02DBE01C2
:1029F0006B5E7F4FC8010995009709F0C7C0F801C9
:102A000000851185EACF973009F445C1983021F44B
:102A100081E08093F100B6C0993009F0B3C08370B3
:102A200009F039C1E5E4F1E081E031E096E320818D
:102A3000211109C08EE78093EA001092EA008F8985
:102A40008093B9029FC08093E9003093EB002191FD
:102A50002093EC009093ED008F5F873041F7EACF31
:102A60008B8D9C8D1092E9001092BD061092BC06D1
:102A70009093BB068093BA06898D811153C08E89CD
:102A80009D89913A49F4813209F005C147E050E04F
:102A90006CE071E080E0BBC0913209F0FCC0833291
:102AA00069F48F89988DA0E0B0E08093080190933D
:102AB0000901A0930A01B0930B0164C0803269F44C
:102AC0008091E80082FFFCCF67E08CE091E00E94FB
:102AD000CD128BEF8093E80055C0823209F052C0CE
:102AE0008F8980931301EEEFFFE7859194918B3FDF
:102AF0009C4D19F0E0E0F8E002C0EEEFFAE08091C2
:102B00000C0190910D01A0910E01B0910F01803B3D
:102B10009440A105B10509F09EC08091130180FF8A
:102B200079C099C00E94B111FC0102811381011585
:102B3000110509F4B0C0D801ED91FC910190F0812C
:102B4000E02DBE016B5E7F4FC801099581111AC04F
:102B5000F80100851185EBCFF1E0FF1609F44EC0B6
:102B6000F3E0FF1298C08F89882309F44AC08230AD
:102B700089F440E867E085E39DE00E94E826882329
:102B800009F489C08EEF8093E80088C018161906F2
:102B9000CCF381C0813029F440E86BE089E29DE00C
:102BA000ECCF833009F077C00E94B111DC0112969E
:102BB000ED90FC9013978E010F5F1F4F6801E11499
:102BC000F10479F0D701ED91FC910680F781E02DB9
:102BD000B801C7010995080F111DF701E084F184C0
:102BE000EECFD8011C92F60101900020E9F7319751
:102BF000BF016C197D0940E0C601BFCF67E17DE0F0
:102C000002C063E17DE0FB01449150E080E80E9456
:102C10007412B8CFEE3F2AE0F20751F08081918123
:102C20008737A7E79A0721F09093FF0A8093FE0A5F
:102C300087E797E791838083809160008093BE0649
:102C40009BE088E10FB6F894A895809360000FBED2
:102C50009093600097CF808191818737974709F0E3
:102C600091CFA895809160008861809360008091E9
:102C7000BE0680936000EE3FBAE0FB0739F080911A
:102C8000FE0A9091FF0A918380837CCF1092FF0A05
:102C90001092FE0A77CF81E28093EB006C960FB61C
:102CA000F894DEBF0FBECDBFDF91CF91FF91EF91C2
:102CB000BF91AF919F918F917F916F915F914F9154
:102CC0003F912F911F910F91FF90EF90DF90CF9048
:102CD0000F900FBE0F901F9018958F929F92AF92FA
:102CE000BF92CF92DF92EF92FF926B017C010E9424
:102CF0002D174B015C01C114D104E104F104F1F082
:102D00000E942D17DC01CB0188199909AA09BB097A
:102D1000883E9340A105B10570F321E0C21AD108A5
:102D2000E108F10888EE880E83E0981EA11CB11C12
:102D3000C114D104E104F10419F7DDCFFF90EF9045
:102D4000DF90CF90BF90AF909F908F9008958F921B
:102D50009F92AF92BF92CF92DF92EF92FF920F932A
:102D60001F93CF93DF936C017B018A018091130144
:102D7000882309F45CC08091B902882309F457C004
:102D80008091B80280FF05C08091E000826080934E
:102D9000E000E801B12C8AEFA82E93E0892E2AE307
:102DA000922E209711F4BB20D9F10E94A01181111D
:102DB0000AC0AA94AA20D9F161E070E080E090E016
:102DC0000E946D16EECF282F30E0C217D3070CF407
:102DD0008C2F9FB7F8948092E9002091E80025FF9E
:102DE0001DC0282F30E0C21BD30BF701815020F00B
:102DF00041914093F100FACFE20EF31EBB2019F08F
:102E00009092E8000AC08091E80085FD07C090928A
:102E1000E800BB24B394209709F0B12C9FBFC1CF29
:102E20005D9884E68093BF061016110644F081E099
:102E300090E0F6019383828380E090E001C0C801B6
:102E4000DF91CF911F910F91FF90EF90DF90CF9086
:102E5000BF90AF909F908F9008953FB7F894809166
:102E6000D2069091D306A091D406B091D50626B58E
:102E7000A89B05C02F3F19F00196A11DB11D3FBFB2
:102E8000BA2FA92F982F8827820F911DA11DB11D40
:102E9000BC01CD0142E0660F771F881F991F4A953C
:102EA000D1F708951F920F920FB60F9211242F930E
:102EB0003F938F939F93AF93BF938091CD06909153
:102EC000CE06A091CF06B091D0063091D10623E076
:102ED000230F2D3720F40196A11DB11D05C026E852
:102EE000230F0296A11DB11D2093D1068093CD061C
:102EF0009093CE06A093CF06B093D0068091D206D1
:102F00009091D306A091D406B091D5060196A11D4B
:102F1000B11D8093D2069093D306A093D406B093AC
:102F2000D506BF91AF919F918F913F912F910F90B7
:102F30000FBE0F901F901895CF93DF93CDB7DEB7DC
:102F4000AE970FB6F894DEBF0FBECDBF789484B5B0
:102F5000826084BD84B5816084BD85B5826085BD95
:102F600085B5816085BD80916E00816080936E0023
:102F70001092810080918100826080938100809115
:102F800081008160809381008091800081608093C6
:102F900080008091910082608093910080919100E7
:102FA0008160809391008091900081608093900077
:102FB0008091C10084608093C1008091C1008260D3
:102FC0008093C1008091C10081608093C100809195
:102FD000C30081608093C3008091C00082608093B1
:102FE000C0008091C20081608093C20080917A000D
:102FF000846080937A0080917A00826080937A0066
:1030000080917A00816080937A0080917A00806854
:1030100080937A001092B9021092B7021092B8020F
:103020008091D70081608093D70080EA8093D80098
:1030300089B5806189BD89B5826089BD09B400FE0A
:10304000FDCF61E070E080E090E00E946D1680911D
:10305000D8008F7C80618093D8008091E000807FD1
:103060008093E0008091E1008E7E8093E1008DE00E
:103070008093E200559A209A81EC80937C0085B180
:10308000806F85B984B1877E84B984B1876E84B935
:103090005E9A5F988AB1806D8AB9769A6E9881B38C
:1030A000806F81BB899880B38D7080BB80E58CBDBB
:1030B00081E08DBD85E090E00E94C80C5F9A85E0BC
:1030C00090E00E94C80C5E985C98EAE7F1E0849179
:1030D0008EBD00000DB407FEFDCF319621E0E7382C
:1030E000F207A9F75C9A81E88093640080916500FB
:1030F0008160809365008AE492E00E94E20C0E9465
:10310000CD0C87FF24C05C9885EA8EBD00000DB40D
:1031100007FEFDCF5C9A2E982F982D988091640021
:1031200080628093640081E083BF889513BEFCCFEA
:103130002D980E94CD0C8478843871F00E94CD0CBB
:103140008471843131F188EC90E00E94C80C0E94B7
:10315000CD0C82FDEDCF3AC00E94C60C88EC90E009
:103160000E94C80C2F9882E090E00E9418298F3F9F
:1031700029F06FEF82E090E00E94202984EF91E037
:103180000E94C80C2F9A0E94CD0C84788438D9F301
:10319000D5CF0E94C60C88EC90E00E94C80C2E98F7
:1031A00082E090E00E941829882329F060E082E004
:1031B00090E00E94202984EF91E00E94C80C2E9A92
:1031C0000E94CD0C84718431D9F3BDCF0E94C60C0E
:1031D00082E090E00E94D50C882319F00E94DC0C5C
:1031E00002C00E94D70C81E090E00E94D50C382FDD
:1031F0003470932E81FF88C031112E9800EF1FEF9D
:10320000E8E0EE2EF12C0E94CD0C86FF05C02E9A30
:103210002F9A0E94C60C78C0992029F0043011051D
:1032200011F42E9A2F9881E00E94DA12980117FF6C
:1032300004C022273327201B310B27703327C801F6
:1032400017FD079673E0959587957A95E1F717FF37
:1032500005C00197A701421B530B9A01AC0156957B
:10326000542F44275795479546545D4FA0E0B0E052
:103270003701621A730A8F3F6FEF96074CF401967D
:10328000A85ABF4F40585F4FA03BB105A1F720C0DF
:103290005A01E4E9AE0EB11C6A0160E070E08F3FB4
:1032A000FFEF9F0711F40C94E322FB01EA0FFB1FD1
:1032B000E653FF4FE491F0E02F01022E01C0440CD1
:1032C0000A94EAF7F60184884828448A0C94E32299
:1032D0008AE492E00E94E20C8FE090E00E94C80C29
:1032E0000F5F1F4F0931110509F08DCF992011F0A3
:1032F0002F9A2D9880E991E00E94C80C0E94C60C7C
:1033000086E492E00E94A72682E390E00E94C80C27
:103310000E94CD0C8111F8CF82E4809351020E946B
:10332000E912E7E8F1E00491E8E8F1E0E49082E0F6
:10333000C82E20E030E049E851E060E070E080E035
:1033400090E00E94E30A8AE492E00E94E20C8091FD
:1033500071008D7F80937100109258018EE691E08C
:103360009093570180935601909355018093540197
:1033700089EA91E090936F0180936E018CEB92E06B
:10338000909371018093700181E891E090937301B3
:103390008093720188EE93E090937501809374019D
:1033A00080E090E890937701809376010E949109E4
:1033B00060ED77E080E090E00E946D168FB7F894A2
:1033C0004091CD065091CE066091CF067091D00607
:1033D0008FBF80915202F42FF81B8F2F90915302D0
:1033E000992331F0F0935402109253020C94D92295
:1033F00090915102F91758F48F5F891710F00C94CF
:10340000D92281E083BF889513BE0C94D92281E034
:10341000809353024093520280914D0290914E024C
:10342000019690934E0280934D0260916C017091D1
:103430006D016F5F7F4F70936D0160936C01072E7C
:10344000000C880B990B611571058105910511F030
:103450000E94B6270E94E9122DEC3CEC4CE45EE39E
:10346000609168017091690180916A0190916B018E
:103470000E94C929609368017093690180936A0171
:1034800090936B018091060190910701892B09F0BF
:10349000C8C50E94CD0C85FF16C020E030E040E892
:1034A00051E4609182017091830180918401909137
:1034B00085010E94C82960938201709383018093E3
:1034C0008401909385010E94CD0C86FF16C020E0F8
:1034D00030E040E851E46091820170918301809175
:1034E0008401909185010E94C929609382017093A3
:1034F000830180938401909385010E94CD0C87FF06
:1035000016C020E030E040E052E46091020170918A
:10351000030180910401909105010E94C9296093E3
:1035200002017093030180930401909305010E94AE
:10353000CD0C84FF16C020E030E040E052E4609102
:1035400002017091030180910401909105010E9494
:10355000C829609302017093030180930401909342
:10356000050120E030E040E050E46091640170919A
:10357000650180916601909167010E94C92960935D
:1035800064017093650180936601909367012091B7
:103590007E0130917F0140918001509181010E9414
:1035A000C92960937E0170937F018093800190937D
:1035B000810120E030E048EC53E40E94212B1816F2
:1035C0000CF0F0C08091000190910101019790935F
:1035D000010180930001181619060CF07CC01092AE
:1035E000640110926501109266011092670120E05B
:1035F00030E04AEF52E46091160270911702809118
:103600001802909119020E94C92960938201709357
:103610008301809384019093850120E030E040E7AE
:1036200052EC20937E0130937F01409380015093B0
:10363000810180E090E0AAEFB2E4809302019093D0
:103640000301A0930401B09305010CE2E02EFF24D6
:10365000F3940EE110E02CE231E04AE550E06CE238
:1036600071E08EE091E00E949F0A0E94E9124AE216
:1036700050E0509356024093550280E290E09093C0
:103680005802809357026091000170910101CE01B0
:1036900007960E94FC12CE0101960E944613BE01BD
:1036A000695F7F4FCE0101960E9466130E949913B5
:1036B00089819A810E94152C8F8198850E94152CF2
:1036C0008AE492E00E94E20C64E873E080E090E01B
:1036D0000E946D1667C010E2E12E13E0F12E0EE19C
:1036E00010E020E233E04AE550E060E273E08EE073
:1036F00091E00E949F0A0E94E912AAE2B0E0B09312
:103700005602A0935502E0E2F0E0F0935802E093F5
:1037100057026091000170910101CE0107960E944D
:10372000FC12CE0101960E944613BE01695F7F4FD5
:10373000CE0101960E9466130E94991389819A8195
:103740000E94152C8F8198850E94152C8AE492E0A6
:103750000E94E20C60E679E080E090E00E946D1645
:103760000E94E91288E290E09093560280935502FD
:1037700020E230E0309358022093570287EC97E024
:103780000E94A2138AE492E00E94E20C68EB7BE0C4
:1037900080E090E00E946D1681E090E09093070138
:1037A0008093060146EB51E05AA349A386E891E0D5
:1037B0009E8B8D8BB6EE2B2EB1E03B2EA6E1B2E0B8
:1037C000BE8FAD8F18A21F8E1C8E1B8E8091630141
:1037D0002F8D38A1032E000C440B550B2BA33CA3BB
:1037E0004DA35EA320910201309103014091040199
:1037F000509105012D873E874F87588B882309F408
:1038000059C16BA17CA18DA19EA10E94FB27698B50
:103810007A8B8B8B9C8B2D853E854F8558890E949A
:10382000C8296FA378A789A79AA780918201909150
:103830008301A0918401B09185018F8B988FA98F0E
:10384000BA8F9C01AD016D857E858F8598890E9418
:10385000C92920E030E040EA50E40E945A280E9442
:10386000262B2B013C0120E030E04AE754E46FA115
:1038700078A589A59AA50E94F42787FF5BC0A9A116
:10388000BAA1AD90BD90CD90DC9020917E01309199
:103890007F01409180015091810160E070E0CB0197
:1038A0000E94C8296BA77CA78DA79EA720E030E0C7
:1038B00040EA50E4C301B2010E945A289B01AC01C6
:1038C0006BA57CA58DA59EA50E94C9292B013C0155
:1038D0002F89388D498D5A8DED8DFE8D60817181D6
:1038E000828193810E94C829AD89BE8913962C914B
:1038F00013972F9312962C9112972F9311962C9128
:1039000011972F932C912F93F10123812F932281D3
:103910002F9321812F9320812F93EFA0F8A409A545
:103920001AA5A30192010E94AD0F0FB6F894DEBF55
:103930000FBECDBF4B8D5C8D4B30510509F0AFC133
:10394000A0906801B0906901C0906A01D0906B01AD
:1039500020E030E040E05FE36091B2017091B3019C
:103960008091B4019091B5010E945A2829893A8921
:103970004B895C890E94C9292D853E854F855889D0
:103980000E94C829698B7A8B8B8B9C8B80918201DA
:1039900090918301A0918401B09185018F8B988FC4
:1039A000A98FBA8F9C01AD016D857E858F85988921
:1039B0000E94C92920E030E040EA50E40E945A28E1
:1039C0000E94262B6D877E878F87988B80911202AD
:1039D00090911302A0911402B0911502BC01CD0187
:1039E000905820917E0130917F014091800150914B
:1039F00081010E94C82920E030E040E752E40E94A3
:103A0000C8292B013C0120E030E040EA50E46D85FC
:103A10007E858F8598890E945A289B01AC01C3013D
:103A2000B2010E94C9292B013C0120E030E040E0B6
:103A30005FE36091E2017091E3018091E401909174
:103A4000E5010E945A2820914202309143024091A0
:103A50004402509145020E94C9292F89388D498D11
:103A60005A8D0E94C8296D877E878F87988B20E0AA
:103A700030E04AE754E469897A898B899C890E94FD
:103A8000F42787FF0CC120E030E0A90169897A8919
:103A90008B899C890E94212B18160CF000C1E988A3
:103AA000FA880B891C89A30192016D857E858F851B
:103AB0009889F3C06BA17CA18DA19EA10E94FB27D8
:103AC000698B7A8B8B8B9C8B2D853E854F85588996
:103AD0000E94C8292B013C0120E030E04AE754E471
:103AE0000E94F42787FF4DC0A9A1BAA1AD90BD9057
:103AF000CD90DC9020917E0130917F01409180013A
:103B00005091810160E070E0CB010E94C8296F8B69
:103B1000788F898F9A8F2091820130918301409113
:103B2000840150918501ED8DFE8D608171818281CE
:103B300093810E94C829AD89BE8913962C91139751
:103B40002F9312962C9112972F9311962C911197D7
:103B50002F932C912F93F10123812F9322812F9367
:103B600021812F9320812F93830172012F89388D1A
:103B7000498D5A8D0E94AD0F0FB6F894DEBF0FBE6F
:103B8000CDBF4B8D5C8D4B30510509F088C0A090A6
:103B90006801B0906901C0906A01D0906B0120E08B
:103BA00030E040E05FE36091B2017091B301809139
:103BB000B4019091B5010E945A2829893A894B890C
:103BC0005C890E94C9292D853E854F8558890E94B0
:103BD000C8292B013C018091120290911302A091FF
:103BE0001402B0911502BC01CD01905820917E01C4
:103BF00030917F0140918001509181010E94C8293C
:103C000020E030E040E752E40E94C8296D877E87BB
:103C10008F87988B20E030E040E05FE36091E20125
:103C20007091E3018091E4019091E5010E945A288E
:103C3000209142023091430240914402509145024A
:103C40000E94C92920918201309183014091840111
:103C5000509185010E94C829698B7A8B8B8B9C8B34
:103C600020E030E04AE754E4C301B2010E94F427A7
:103C700087FF15C020E030E0A901C301B2010E9416
:103C8000212B181664F4830172012D853E854F8522
:103C9000588969897A898B899C890E94E50CAD8D48
:103CA000BE8D8D909D90AD90BD90BE8FAD8FC0901C
:103CB0008201D0908301E0908401F0908501A701FA
:103CC0009601C501B4010E94F42718160CF465C1D1
:103CD00020E030E04AE753E4C501B4010E94C9295D
:103CE0009B01AC01C701B6010E94F42718160CF421
:103CF00054C1C0900201D0900301E0900401F09003
:103D000005016BA17CA18DA19EA10E94FB27A701AB
:103D100096010E94F42718160CF43FC16F8D78A10C
:103D200066507F4F072E000C880B990B0E94FB27D3
:103D30009B01AC01C701B6010E94F42718160CF4D0
:103D40002CC1F10180819181A281B381BC01CD019F
:103D5000905820E030E040E752E40E94C8292091CA
:103D60007E0130917F0140918001509181010E943C
:103D7000F42787FF12C1109264011092650110921E
:103D80006601109267012B8D3C8D2B30310509F0B7
:103D9000C3C0E6E8EE2EE1E0FE2EF6EBCF2EF1E01A
:103DA000DF2EA6EEAA2EA1E0BA2E06E112E068E50B
:103DB00072E080E090E00E9477096C5271408109C6
:103DC00091090E94FB27D8016D937D938D939D935C
:103DD0008D0160E971E080E090E00E947709685C05
:103DE0007109810991090E94FB27F5016193719383
:103DF000819391935F0168EC70E080E090E00E9415
:103E000077096C597F4F8F4F9F4F0E94FB27D60138
:103E10006D937D938D939D936D0168EC70E080E0D0
:103E200090E00E9477096C597F4F8F4F9F4F0E94FF
:103E3000FB27F70161937193819391937F01F2E0E6
:103E400006341F0709F0B3CF7CE2E72EFF24F3947A
:103E500004E610E02CE231E044E650E06CE271E070
:103E60008AE090E00E949F0A0E94E9120E94E912F3
:103E700023E230E0309356022093550240E250E0B6
:103E800050935802409357028CEB97E00E94A21384
:103E90008AE492E00E94E20C8AE492E00E94E20C42
:103EA00068EE73E080E090E00E946D16109264016D
:103EB00010926501109266011092670120E030E0D7
:103EC0004AEF52E460911602709117028091180235
:103ED000909119020E94C929609382017093830115
:103EE000809384019093850180E090E0A0E7B2EC9C
:103EF00080937E0190937F01A0938001B093810114
:103F000080E090E0AAEFB2E4809302019093030175
:103F1000A0930401B093050180916301811106C053
:103F200065E070E088EE93E00E94C70A91E090930C
:103F30006301F10180819181A281B381BC01CD0136
:103F4000905820E030E040E752E40E94C8294B013D
:103F50005C01C0907E01D0907F01E0908001F090E4
:103F60008101A5019401C701B6010E94212B1816F9
:103F70004CF0C0927E01D0927F01E0928001F092DD
:103F800081010BC020E030E040E85FE3C701B601EB
:103F90000E94C8296B017C01E4CF2B8D3C8D2F5FE3
:103FA0003F4F3C8F2B8F4F8D58A14C505E4F58A3E5
:103FB0004F8F54E0250E311C8D899E8904969E8B6F
:103FC0008D8BA9A1BAA11496BAA3A9A32C3031054F
:103FD00009F0FCCB0E94CD0C83FFDEC2809163010F
:103FE000882309F4D9C220E030E040EF51EC20935F
:103FF000640130936501409366015093670110920C
:10400000630166E9E62EF12C0EE011E024E630E0D3
:104010004AE550E062E370E08EE190E00E949F0A82
:10402000BBC22DEC3CEC4CE45EE360915F0170910F
:10403000600180916101909162010E94C9296B0128
:104040007C0160935F0170936001809361019093A4
:10405000620120E030E040EC5FE30E945A280E94B9
:10406000352A4B015C01C701B6010E94262B2B01AA
:104070003C01EAEBF5E00491EBEBF5E0E49020E0A5
:1040800030E040E850E4C501B4010E945A280E9483
:10409000AC2A4B015C0120E030E040E850E4C30171
:1040A000B2010E945A280E94AC2ADC01CB0152E0E6
:1040B000C52E20E030E04CEB55E0B4010E94E30A4D
:1040C00020E030E0A90160915B0170915C0180917A
:1040D0005D0190915E010E94F42781110FC08DE572
:1040E00090E0909356028093550289E290E090937D
:1040F00058028093570283EB95E00EC082E690E071
:10410000909356028093550289E290E09093580272
:10411000809357028DEA95E00E94A21380915A0184
:1041200020E030E040E85FE3882351F160915B01DB
:1041300070915C0180915D0190915E010E94F42775
:1041400081110FC08BE490E090935602809355024A
:1041500081E390E0909358028093570284EA95E0BF
:1041600038C081E590E0909356028093550281E338
:1041700090E090935802809357028CE995E029C013
:1041800060915B0170915C0180915D0190915E0195
:104190000E94F42781110FC08BE490E090935602A7
:1041A0008093550281E390E09093580280935702E8
:1041B00082E995E00EC081E590E0909356028093ED
:1041C000550281E390E0909358028093570289E86A
:1041D00095E00E94A213809159018111BBC10E94F8
:1041E000CD0C87FF1FC020E030E040E85FE3609126
:1041F0005B0170915C0180915D0190915E010E9474
:10420000C82960935B0170935C0180935D0190937A
:104210005E0181E08093590168EC70E08EE190E0EE
:104220000E94C70A0E94CD0C84FF1FC020E030E02E
:1042300040E85FE360915B0170915C0180915D01FA
:1042400090915E010E94C92960935B0170935C01AB
:1042500080935D0190935E0181E08093590168EC49
:1042600070E08EE190E00E94C70A0E94CD0C83FFAF
:104270003DC120E030E040E85FE360915B01709178
:104280005C0180915D0190915E010E94F427811193
:104290003BC080915A01882319F010925A0134C012
:1042A00081E080935A010E94DC0C809171008D7F27
:1042B00080937100109258012EE631E0309357013F
:1042C00020935601309355012093540184E690E0E9
:1042D00090936F0180936E0184EF91E09093710150
:1042E0008093700148EC50E0509373014093720149
:1042F000909375018093740180E090E8909377012A
:10430000809376010E94910920E030E0A90160913C
:104310005B0170915C0180915D0190915E010E9452
:10432000F4278111E0C083E090E090930101809335
:10433000000106E112E026EEA22E21E0B22E36EBBD
:10434000C32E31E0D32E46E8E42E41E0F42E68E59A
:1043500072E080E090E00E9477096C527140810920
:1043600091090E94FB27D8016D937D938D939D93B6
:104370008D0160E971E080E090E00E947709685C5F
:104380007109810991090E94FB27F50161937193DD
:10439000819391935F0168EC70E080E090E00E946F
:1043A00077096C597F4F8F4F9F4F0E94FB27D60193
:1043B0006D937D938D939D936D0168EC70E080E02B
:1043C00090E00E9477096C597F4F8F4F9F4F0E945A
:1043D000FB27F70161937193819391937F01F2E041
:1043E00006341F0709F0B3CF0E94E9122AE230E039
:1043F000309356022093550240E250E05093580209
:10440000409357026091000170910101CE0107961F
:104410000E94FC12CE0101960E944613BE01695F04
:104420007F4FCE0101960E9466130E9499138981E5
:104430009A810E94152C8F8198850E94152C8AE400
:1044400092E00E94E20C10926401109265011092B9
:1044500066011092670120E030E04AEF52E460917B
:1044600016027091170280911802909119020E9411
:10447000C929609382017093830180938401909392
:10448000850180E090E0A0E7B2EC80937E019093FC
:104490007F01A0938001B093810180E090E0AAEFBA
:1044A000B2E48093020190930301A0930401B093BE
:1044B000050194EFE92EFF24F3940EE110E024EFC0
:1044C00031E040E951E064EF71E084E690E00E9461
:1044D0009F0A6CED75E080E090E00E946D161092EE
:1044E00007011092060181E08093590120E030E03D
:1044F000A90160915B0170915C0180915D019091D7
:104500005E010E94F42787FF08C010925B011092A1
:104510005C0110925D0110925E0120E030E040E805
:104520005FE360915B0170915C0180915D0190910E
:104530005E010E94212B1816CCF480E090E0A0E8E8
:10454000BFE380935B0190935C01A0935D01B09306
:104550005E010CC00E94CD0C87FD08C00E94CD0CEE
:1045600084FD04C00E94CD0C83FF51C0A0905F0168
:10457000B0906001C0906101D0906201E12CF12CFB
:1045800008E413E420E030E040EF51E460E070E044
:1045900080E791EC0E94E50C80915A01882319F084
:1045A0000E94DC0C02C00E94D70C8AE492E00E94B8
:1045B000E20C80E090E0892B11F40C94DE190E944B
:1045C00000000C94DE192115310591F0FB01EA0F72
:1045D000FB1FE653FF4FE491F0E02F01062C02C0D1
:1045E000559447940A94E2F7F50180804828408268
:1045F0006F5F7F4FFFEFAF1ABF0AEFEFCE1ADE0AF1
:104600006835710511F00C944F190C943F191092F4
:104610005901ACCFEF92FF920F931F93CF93DF938B
:10462000EDE5F2E01382128288EE93E0A0E0B0E0C4
:1046300084839583A683B78382E291E0918380830C
:104640008FEF9FEF95878487E6E4F2E01382128272
:104650001186128680E1838710861782158684E38F
:1046600091E09183808382E491E095838483108A32
:104670001786128A118A81E0838B148A858B168AA9
:1046800068E572E080E090E00E94770906E112E0C0
:104690006C527140810991090E94FB27F8016083E7
:1046A00071838283938368E572E080E090E00E94EA
:1046B00077096C527140810991090E94FB27F8012A
:1046C000648375838683978368E572E080E090E079
:1046D0000E9477096C527140810991090E94FB2761
:1046E000F801608771878287938768E572E080E0D0
:1046F00090E00E9477096C527140810991090E94F3
:10470000FB27F801648775878687978768E572E0DD
:1047100080E090E00E9477096C5271408109910914
:104720000E94FB27F801608B718B828B938B68E56D
:1047300072E080E090E00E9477096C52714081093C
:1047400091090E94FB27F801648B758B868B978BF0
:1047500068E572E080E090E00E9477096C52714059
:10476000810991090E94FB27F801608F718F828F68
:10477000938F68E572E080E090E00E9477096C52C8
:104780007140810991090E94FB27F801648F758FA0
:10479000868F978F68E572E080E090E00E9477094D
:1047A0006C527140810991090E94FB27F80160A3B6
:1047B00071A382A393A368E572E080E090E00E9479
:1047C00077096C527140810991090E94FB27F80119
:1047D00064A375A386A397A368E572E080E090E0E8
:1047E0000E9477096C527140810991090E94FB2750
:1047F000F80160A771A782A793A768E572E080E03F
:1048000090E00E9477096C527140810991090E94E1
:10481000FB27F80164A775A786A797A760E971E051
:1048200080E090E00E947709C6EED1E0685C7109F3
:10483000810991090E94FB27688379838A839B837E
:1048400060E971E080E090E00E947709685C71099E
:10485000810991090E94FB276C837D838E839F834E
:1048600060E971E080E090E00E947709685C71097E
:10487000810991090E94FB27688779878A879B872E
:1048800060E971E080E090E00E947709685C71095E
:10489000810991090E94FB276C877D878E879F87FE
:1048A00060E971E080E090E00E947709685C71093E
:1048B000810991090E94FB27688B798B8A8B9B8BDE
:1048C00060E971E080E090E00E947709685C71091E
:1048D000810991090E94FB276C8B7D8B8E8B9F8BAE
:1048E00060E971E080E090E00E947709685C7109FE
:1048F000810991090E94FB27688F798F8A8F9B8F8E
:1049000060E971E080E090E00E947709685C7109DD
:10491000810991090E94FB276C8F7D8F8E8F9F8F5D
:1049200060E971E080E090E00E947709685C7109BD
:10493000810991090E94FB2768A379A38AA39BA3FD
:1049400060E971E080E090E00E947709685C71099D
:10495000810991090E94FB276CA37DA38EA39FA3CD
:1049600060E971E080E090E00E947709685C71097D
:10497000810991090E94FB2768A779A78AA79BA7AD
:1049800060E971E080E090E00E947709685C71095D
:10499000810991090E94FB276CA77DA78EA79FA77D
:1049A00068EC70E080E090E00E94770926EBE22E50
:1049B00021E0F22E6C597F4F8F4F9F4F0E94FB27B3
:1049C000F701608371838283938368EC70E080E0F9
:1049D00090E00E9477096C597F4F8F4F9F4F0E9444
:1049E000FB27F701648375838683978368EC70E007
:1049F00080E090E00E9477096C597F4F8F4F9F4F66
:104A00000E94FB27F701608771878287938768EC94
:104A100070E080E090E00E9477096C597F4F8F4FE3
:104A20009F4F0E94FB27F7016487758786879787CA
:104A300068EC70E080E090E00E9477096C597F4F4D
:104A40008F4F9F4F0E94FB27F701608B718B828BEA
:104A5000938B68EC70E080E090E00E9477096C59DD
:104A60007F4F8F4F9F4F0E94FB27F701648B758B01
:104A7000868B978B68EC70E080E090E00E9477096D
:104A80006C597F4F8F4F9F4F0E94FB27F701608F1C
:104A9000718F828F938F68EC70E080E090E00E94CD
:104AA00077096C597F4F8F4F9F4F0E94FB27F7016B
:104AB000648F758F868F978F68EC70E080E090E050
:104AC0000E9477096C597F4F8F4F9F4F0E94FB27A1
:104AD000F70160A371A382A393A368EC70E080E068
:104AE00090E00E9477096C597F4F8F4F9F4F0E9433
:104AF000FB27F70164A375A386A397A368EC70E076
:104B000080E090E00E9477096C597F4F8F4F9F4F54
:104B10000E94FB27F70160A771A782A793A768EC03
:104B200070E080E090E00E9477096C597F4F8F4FD2
:104B30009F4F0E94FB27F70164A775A786A797A739
:104B400068EC70E080E090E00E94770936E8E32EA0
:104B500031E0F32E6C597F4F8F4F9F4F0E94FB2700
:104B6000F701608371838283938368EC70E080E057
:104B700090E00E9477096C597F4F8F4F9F4F0E94A2
:104B8000FB27F701648375838683978368EC70E065
:104B900080E090E00E9477096C597F4F8F4F9F4FC4
:104BA0000E94FB27F701608771878287938768ECF3
:104BB00070E080E090E00E9477096C597F4F8F4F42
:104BC0009F4F0E94FB27F701648775878687978729
:104BD00068EC70E080E090E00E9477096C597F4FAC
:104BE0008F4F9F4F0E94FB27F701608B718B828B49
:104BF000938B68EC70E080E090E00E9477096C593C
:104C00007F4F8F4F9F4F0E94FB27F701648B758B5F
:104C1000868B978B68EC70E080E090E00E947709CB
:104C20006C597F4F8F4F9F4F0E94FB27F701608F7A
:104C3000718F828F938F68EC70E080E090E00E942B
:104C400077096C597F4F8F4F9F4F0E94FB27F701C9
:104C5000648F758F868F978F68EC70E080E090E0AE
:104C60000E9477096C597F4F8F4F9F4F0E94FB27FF
:104C7000F70160A371A382A393A368EC70E080E0C6
:104C800090E00E9477096C597F4F8F4F9F4F0E9491
:104C9000FB27F70164A375A386A397A368EC70E0D4
:104CA00080E090E00E9477096C597F4F8F4F9F4FB3
:104CB0000E94FB27F70160A771A782A793A768EC62
:104CC00070E080E090E00E9477096C597F4F8F4F31
:104CD0009F4F0E94FB27F70164A775A786A797A798
:104CE00020E030E04AEF52E4F80160817181828176
:104CF00093810E94C92960938201709383018093FC
:104D000084019093850188819981AA81BB81B058E3
:104D100080937E0190937F01A0938001B0938101E5
:104D20008EE097E090937D0180937C0180E090E895
:104D300090937B0180937A0146983E9A47983F9AD8
:104D4000DF91CF911F910F91FF90EF9008950F93F6
:104D50001F93CF93DF93EC0181E090E00E94D50C8C
:104D600080FF2EC08AE090E00E94D50C9FEF980F44
:104D70009E3F30F522E330E0388B2F8728E330E088
:104D80003A8B298B0BE010E0E881F9810190F081EA
:104D9000E02D682FCE010995C8010E94D50C0F5F48
:104DA0001F4F0131110581F7CE0104960E94E20CDC
:104DB00088EE93E0DF91CF911F910F910C94C80C76
:104DC000DF91CF911F910F91089504970C94A7261E
:104DD000DF92EF92FF920F931F93CF93DF93D82E22
:104DE000F92EE42E062F10E0C8010196880F0E94CC
:104DF000461283E00E944612CD2DDF2D0C0F1D1FA1
:104E0000C017D10789F0E7FE03C0FE01849101C0FD
:104E100088810E944612F82E80E00E9446128F215F
:104E200021968111EDCF01C081E0DF91CF911F91DB
:104E30000F91FF90EF90DF9008958F929F92AF9225
:104E4000BF92CF92DF92EF92FF92CF93DF93EC016C
:104E5000688179818A819B81611571058105910540
:104E600021F464E279ED8BE597E02DE133EF41E049
:104E700050E00E942E2949015A019B01AC01A7EA8A
:104E8000B1E40E944D296B017C01ACEEB4EFA501A9
:104E900094010E945B29DC01CB018C0D9D1DAE1D90
:104EA000BF1DB7FF03C00197A109B048888399834C
:104EB000AA83BB83BC01CD019F77DF91CF91FF9087
:104EC000EF90DF90CF90BF90AF909F908F9008951C
:104ED0008F929F92AF92BF92CF92DF92EF92FF920A
:104EE0006091140170911501809116019091170144
:104EF000611571058105910521F464E279ED8BE579
:104F000097E02DE133EF41E050E00E942E29490166
:104F10005A019B01AC01A7EAB1E40E944D296B0143
:104F20007C01ACEEB4EFA50194010E945B29DC0189
:104F3000CB018C0D9D1DAE1DBF1DB7FF03C001979A
:104F4000A109B0488093140190931501A093160114
:104F5000B0931701BC01CD019F77FF90EF90DF90D8
:104F6000CF90BF90AF909F908F9008956093140161
:104F70007093150180931601909317010895BB2734
:104F80004A3031F4992322F4BDE2909581959F4FE8
:104F90000C94CB27BB27FB015527AA27880F991F05
:104FA000AA1FA41710F0A41B83955051B9F7A05D58
:104FB000AA3308F0A95DA193009779F7B111B193D5
:104FC0001192CB010C94E427DC01FC01672F719155
:104FD0007723E1F7329704C07C916D9370836291DF
:104FE000AE17BF07C8F308950E94362808F481E081
:104FF0000895E89409C097FB3EF4909580957095CC
:1050000061957F4F8F4F9F4F9923A9F0F92F96E914
:10501000BB279395F695879577956795B795F11189
:10502000F8CFFAF4BB0F11F460FF1BC06F5F7F4F26
:105030008F4F9F4F16C0882311F096E911C0772338
:1050400021F09EE8872F762F05C0662371F096E841
:10505000862F70E060E02AF09A95660F771F881F10
:10506000DAF7880F9695879597F90895990F0008B4
:10507000550FAA0BE0E8FEEF16161706E807F9072A
:10508000C0F012161306E407F50798F0621B730BC5
:10509000840B950B39F40A2661F0232B242B252B46
:1050A00021F408950A2609F4A140A6958FEF811DE9
:1050B000811D08950E946D280C94DE280E94D0283E
:1050C00038F00E94D72820F0952311F00C94C728BF
:1050D0000C94CD2811240C9412290E94EF2870F30F
:1050E000959FC1F3950F50E0551F629FF001729F8D
:1050F000BB27F00DB11D639FAA27F00DB11DAA1F9C
:10510000649F6627B00DA11D661F829F2227B00DE8
:10511000A11D621F739FB00DA11D621F839FA00D73
:10512000611D221F749F3327A00D611D231F849FC3
:10513000600D211D822F762F6A2F11249F5750401A
:105140009AF0F1F088234AF0EE0FFF1FBB1F661F95
:10515000771F881F91505040A9F79E3F510580F05E
:105160000C94C7280C9412295F3FE4F3983ED4F3C3
:10517000869577956795B795F795E7959F5FC1F702
:10518000FE2B880F911D9695879597F9089597F9AD
:105190009F6780E870E060E008959FEF80EC0895DD
:1051A00000240A9416161706180609060895002406
:1051B0000A9412161306140605060895092E039480
:1051C000000C11F4882352F0BB0F40F4BF2B11F4F4
:1051D00060FF04C06F5F7F4F8F4F9F4F089557FD53
:1051E0009058440F551F59F05F3F71F04795880F55
:1051F00097FB991F61F09F3F79F0879508951216EC
:1052000013061406551FF2CF4695F1DF08C0161697
:1052100017061806991FF1CF869571056105089448
:105220000895E894BB2766277727CB0197F908955F
:10523000F999FECF92BD81BDF89A992780B508955E
:10524000262FF999FECF1FBA92BD81BD20BD0FB6A2
:10525000F894FA9AF99A0FBE01960895052E97FBD5
:105260001EF400940E94452957FD07D00E949729FB
:1052700007FC03D04EF40C94452950954095309589
:1052800021953F4F4F4F5F4F0895909580957095B2
:1052900061957F4F8F4F9F4F08950E94B929A59F19
:1052A000900DB49F900DA49F800D911D1124089521
:1052B000B7FF0C944D290E944D29821B930B089532
:1052C0002F923F924F925F926F927F928F929F9216
:1052D000AF92BF92CF92DF92EF92FF920F931F9304
:1052E000CF93DF93CDB7DEB7CA1BDB0B0FB6F894B5
:1052F000DEBF0FBECDBF09942A88398848885F84F5
:105300006E847D848C849B84AA84B984C884DF8065
:10531000EE80FD800C811B81AA81B981CE0FD11D49
:105320000FB6F894DEBF0FBECDBFED010895A1E228
:105330001A2EAA1BBB1BFD010DC0AA1FBB1FEE1F0F
:10534000FF1FA217B307E407F50720F0A21BB30B5A
:10535000E40BF50B661F771F881F991F1A9469F7D6
:1053600060957095809590959B01AC01BD01CF0132
:105370000895A29FB001B39FC001A39F700D811D2E
:105380001124911DB29F700D811D1124911D08954E
:105390005058BB27AA270E94E0290C94DE280E94BF
:1053A000D02838F00E94D72820F039F49F3F19F414
:1053B00026F40C94CD280EF4E095E7FB0C94C72856
:1053C000E92F0E94EF2858F3BA1762077307840782
:1053D000950720F079F4A6F50C9411290EF4E095C8
:1053E0000B2EBA2FA02D0B01B90190010C01CA019F
:1053F000A0011124FF27591B99F0593F50F4503E4A
:1054000068F11A16F040A22F232F342F4427585F3B
:10541000F3CF469537952795A795F0405395C9F753
:105420007EF41F16BA0B620B730B840BBAF091500B
:10543000A1F0FF0FBB1F661F771F881FC2F70EC0AA
:10544000BA0F621F731F841F48F48795779567957D
:10545000B795F7959E3F08F0B0CF9395880F08F069
:105460009927EE0F9795879508950E94E42AE39572
:105470000C940D2B0E944E2A0C94DE280E94D728F3
:1054800058F00E94D02840F029F45F3F29F00C9496
:10549000C72851110C9412290C94CD280E94EF2892
:1054A00068F39923B1F3552391F3951B550BBB2753
:1054B000AA2762177307840738F09F5F5F4F220F98
:1054C000331F441FAA1FA9F335D00E2E3AF0E0E88F
:1054D00032D091505040E695001CCAF72BD0FE2FD9
:1054E00029D0660F771F881FBB1F2617370748076D
:1054F000AB07B0E809F0BB0B802DBF01FF27935825
:105500005F4F3AF09E3F510578F00C94C7280C94F9
:1055100012295F3FE4F3983ED4F38695779567951B
:10552000B795F7959F5FC9F7880F911D9695879559
:1055300097F90895E1E0660F771F881FBB1F621778
:1055400073078407BA0720F0621B730B840BBA0B36
:10555000EE1F88F7E09508950E94B32A6894B11170
:105560000C94122908950E94F72888F09F5798F00C
:10557000B92F9927B751B0F0E1F0660F771F881F58
:10558000991F1AF0BA95C9F714C0B13091F00E9472
:105590001129B1E008950C941129672F782F8827DD
:1055A000B85F39F0B93FCCF3869577956795B39599
:1055B000D9F73EF490958095709561957F4F8F4F08
:1055C0009F4F08950C94CD280E94F728D8F3E894B3
:1055D000E0E0BB279F57F0F02AED3FE049EC06C022
:1055E000EE0FBB0F661F771F881F28F0B23A6207C5
:1055F0007307840728F0B25A620B730B840BE39590
:105600009A9572F7803830F49A95BB0F661F771F12
:10561000881FD2F790480C94302BEF93E0FF07C01F
:10562000A2EA2AED3FE049EC5FEB0E94E0290E94EC
:10563000DE280F90039401FC9058ECEAF0E00C9403
:105640003C2B0E94362808F48FEF08959F930E9408
:10565000E42A0F9007FCEE5F0C940D2B9F3F31F076
:10566000915020F4879577956795B795880F911D90
:105670009695879597F908959F938F937F936F934E
:10568000FF93EF939B01AC010E945A28EF91FF9189
:105690000E94502B2F913F914F915F910C945A286B
:1056A000DF93CF931F930F93FF92EF92DF927B01D3
:1056B0008C01689406C0DA2EEF010E946D28FE016D
:1056C000E894A5912591359145915591A6F3EF0167
:1056D0000E94E029FE019701A801DA9469F7DF90A2
:1056E000EF90FF900F911F91CF91DF910895EE0FF2
:1056F000FF1F0590F491E02D09940F931F93CF9312
:10570000DF938230910510F482E090E0E091D806BA
:10571000F091D90620E030E0A0E0B0E0309719F138
:10572000408151810281138148175907C8F08417BD
:10573000950769F4109731F012960C93129713960F
:105740001C9327C00093D8061093D90622C02115B8
:10575000310519F04217530718F49A01BD01EF0102
:10576000DF01F801DBCF21153105F9F0281B390BDA
:105770002430310580F48A819B816115710521F007
:10578000FB019383828304C09093D9068093D8064B
:10579000FE01329644C0FE01E20FF31F8193919304
:1057A00022503109398328833AC02091D60630919E
:1057B000D706232B41F420911A0130911B0130931D
:1057C000D7062093D6062091180130911901211592
:1057D000310541F42DB73EB740911C0150911D0198
:1057E000241B350BE091D606F091D706E217F3079C
:1057F000A0F42E1B3F0B2817390778F0AC014E5F41
:105800005F4F2417350748F04E0F5F1F5093D706A0
:105810004093D6068193919302C0E0E0F0E0CF017F
:10582000DF91CF911F910F910895CF93DF93009750
:1058300009F481C0FC01329713821282A091D8062C
:10584000B091D906109781F420813181820F931F86
:105850002091D6063091D7062817390751F5F093D5
:10586000D706E093D60667C0ED0120E030E0CE1702
:10587000DF0740F44A815B819E0141155105F1F03B
:10588000EA01F5CFD383C28340815181840F951FF4
:10589000C817D90759F488819981840F951F0296FA
:1058A000918380838A819B81938382832115310533
:1058B00029F4F093D906E093D8063DC0E901FB83B3
:1058C000EA8349915991C40FD51FEC17FD0761F484
:1058D00080819181840F951F0296E90199838883C5
:1058E000828193819B838A83E0E0F0E012968D9120
:1058F0009C911397009719F0FD01DC01F7CF8D9172
:105900009C9111979D012E5F3F4F820F931F209115
:10591000D6063091D7062817390769F4309729F44D
:105920001092D9061092D80602C013821282B09348
:10593000D706A093D606DF91CF910895A0E0B0E0FE
:10594000E4EAFCE20C946429EC01009721F4CB0119
:105950000E947D2BB4C0FC01E60FF71F9C01225072
:105960003109E217F30708F4A8C0D9010D911C9181
:10597000119706171707B0F00530110508F49BC002
:10598000C80104978617970708F495C002501109BB
:10599000061B170B019311936D937C93CF010E940B
:1059A000152C89C05B01A01AB10A4C01800E911E12
:1059B000A091D806B091D906612C712CE12CF12C64
:1059C000109709F446C08D919C911197A815B905BF
:1059D000B1F56C0142E0C40ED11CCA14DB0478F1AD
:1059E0004C018A189B08640142E0C40ED11C129637
:1059F000BC9012971396AC91B5E0CB16D10440F051
:105A0000B282A38391828082D9016D937C9309C075
:105A10000E5F1F4F800F911FF90191838083EB2D43
:105A2000FA2FE114F10431F0D7011396FC93EE93B1
:105A3000129741C0F093D906E093D8063CC068168F
:105A4000790608F43C017D0112960D90BC91A02DC1
:105A5000B7CF8091D6069091D70688169906E1F4C3
:105A600066167706C8F48091180190911901009785
:105A700041F48DB79EB740911C0150911D01841BCC
:105A8000950BE817F907C8F4F093D706E093D6060C
:105A9000F901718360830FC0CB010E947D2B7C01D3
:105AA000009759F0A801BE010E94692DCE010E9405
:105AB000152CC70104C0CE0102C080E090E0CDB734
:105AC000DEB7EEE00C94802981E090E0F8940C942D
:105AD000792DFB01DC0102C001900D924150504034
