:100000000C94C1060C94E9060C94E9060C94E906DC
:100010000C94E9060C94E9060C94E9060C94E906A4
:100020000C94E9060C94E9060C9421120C9493129A
:100030000C94E9060C94E9060C94E9060C94E90684
:100040000C94E9060C94E9060C94E9060C94E90674
:100050000C94E9060C94E9060C94E9060C94F2174A
:100060000C94E9060C94E9060C94E9060C94E90654
:100070000C94E9060C94E9060C94E9060C94E90644
:100080000C94810A0C94E9060C94E9060C94E90698
:100090000C94E9060C94E9060C94E9060C94E90624
:1000A0000C94E9060C94E9060C94E90605A84CCDDD
:1000B000B2D44EB93836A9020C50B9918688083CA2
:1000C000A6AAAA2ABE000000803FF0F89C8E878373
:1000D000878E9CF8F00000FEFF0303030303070E66
:1000E000FCF80000FEFF0303030303070EFCF80007
:1000F00000FFFF00000000000000FFFF0000FEFF07
:100100008383838383C7EE7C380000F8FC0E0703EB
:100110000303070EFCF800003F7FE0C08080C0E0D2
:100120007F3FFFFF01010101010101FFFF0000FF0F
:10013000FF0C0C0C0C1C3E77E3C100007FFFC0C01D
:10014000C0C0C0E0703F1F00001F3F70E0C0C0C0D3
:10015000E0703F1F00007FFFC1C1C1C1C1E3773E16
:100160001C00001F3F70E0C0C0C0E0703F1F0000D7
:1001700000000001FFFF01000000D5F08D14A1C8B0
:1001800081CFD9F1AF2000804000000000000000C6
:10019000000000000000000000000000000000005F
:1001A000000000000000000000000000000000004F
:1001B000000000000000000000000000000000003F
:1001C000000000000000000000000000000000002F
:1001D000000000000000000000000000000000001F
:1001E000000000000000000000000000000000000F
:1001F00000000000000000000000000000000000FF
:1002000000000000000000000000000000000000EE
:1002100000000000000000000000000000000000DE
:1002200000000000000000000000000000000000CE
:1002300000000000000000000000000000000000BE
:1002400000000000000000000000000000000000AE
:10025000000000000000000000000000000000009E
:10026000000000000000000000000000000000008E
:10027000000000000000000000000000000000007E
:10028000000000000000000000000000000000006E
:1002900000000000000000000000008080808080DE
:1002A00080808000808080808080808080C080000E
:1002B000000000808080800000000000008000803E
:1002C0008080808080808000C0800000000080806E
:1002D000008080808080808080008080000000001E
:1002E000000000008000808080808080808000800E
:1002F000808080808080800000000000000000007E
:1003000000000000000000000000000000000000ED
:1003100000000000000000000000006F6F6D6D6DB8
:100320006D7D7D406171797D6F67636100010307B9
:100330007E7E070301007F7F0E1C1C0E7F7F007FE7
:100340007F616161617F7F007F7F070E1C387FFFC7
:1003500000FDFD0D0D0D0D0F0F007F7F60606060D3
:100360006060007F7F007F7F6D6D6D6D7F7F007FA0
:100370007F6D6D6D6D7F7F0000000000000000004C
:10038000000000000000000000000000000000006D
:10039000000000000000000000000000000000005D
:1003A000000000000000000000000000000000004D
:1003B00000000000000000000000000000F8F81835
:1003C000181898F8F800F8F8D8D8D8D8D8D800F87D
:1003D000F8C1E070381808000000000000000000BC
:1003E000000000000000000000000000000000000D
:1003F00000000000000000000000000000000000FD
:1004000000000000000000000000000000000000EC
:1004100000000000000000000000000000000000DC
:1004200000000000000000000000000000000000CC
:10043000000000000000000000000000007F3F1CE2
:100440000E0703010000070706060606060600075A
:100450000301000000000000000000000000000098
:10046000000000000000000000000000000000008C
:10047000000000000000000000000000000000007C
:10048000000000000000000000000000000000006C
:10049000000000000000000000000000000000005C
:1004A000000000000000000000000000000000004C
:1004B000000000000000000000000000000000003C
:1004C000000000000000000000000000000000002C
:1004D000000000000000000000000000000000001C
:1004E000000000000000000000000000000000000C
:1004F00000000000000000000000000000000000FC
:1005000000000000000000000000000000000000EB
:1005100000000000000000000000000000000000DB
:1005200000000000000000000000000000000000CB
:1005300000000000000000000000000000000000BB
:1005400000000000000000000000000000000000AB
:10055000000000000000000000000000000000009B
:10056000000000000000000000000000000000008B
:10057000000000000000000000000000000000007B
:10058000000000000000000000536E643A204F6637
:1005900066003E536E643A204F666600536E643ABE
:1005A000204F6E003E536E643A204F6E00537461CC
:1005B0007274003E53746172740080200000000069
:1005C000000000000000000000000000000000002B
:1005D000000000000000000000000000000000001B
:1005E000000000000000000000000000000000000B
:1005F00000000000000000000000000000000000FB
:1006000000000000000000000000000000000000EA
:1006100000000000000000000000000000000000DA
:1006200000000000000000000000000000000000CA
:1006300000000000000000000000000000000000BA
:10064000CFCFCFCFCFCFCFCFCFCFFFFFFFFF00FF99
:10065000FFFF0F0F0F0F0F0F0FFFFFFFFF00FFFF39
:10066000FF0F0F0F0F0F0F0FFFFFFFFF00FFFFFF29
:10067000CFCFCFCFCFCFCFCFCFCFCF000F0F0F0F59
:100680000FFFFFFF0F0F0F0F0F0F00FFFFFF0F0FE9
:100690000F0F0F0F0FFFFFFFFF00CFCFCFCFCFCF39
:1006A000CFCFCFCFFFFFFFFF00FFFFFFCFCFCFCFD9
:1006B000CFCFCFCFCFCFCF00000000000000000091
:1006C0003F3F3F010107070F3F3FF9F9F1F1003FBD
:1006D0003F3F383838383838383F3F3F3F003F3F9A
:1006E0003F383838383838383F3F3F3F00FFFFFF4A
:1006F00001010101010101010101010000000000EF
:10070000003F3F3F000000000000003F3F3F3838FF
:1007100038383838383F3F3F3F00FFFFFF010101C5
:100720000101010101010101003939393939393932
:100730003939393F3F3F3F00000000000000000012
:1007400000000000000000000000000001010000A7
:100750000000000000000000000000000000000099
:100760000000000000000000000000000001010087
:100770000000000000000000000000000000000079
:100780000000000000000000000000000000000069
:100790000000000000000000000001010000000057
:1007A0000000000000000000000000000000000049
:1007B0000000000000000000000000002010000009
:1007C0000000000000000000000000000000000029
:1007D0000000000000000000000000FF55FFE0A046
:1007E000E0A0E0A0E0A0E0A0E0A0E0A0E0A0E0A009
:1007F000E0A0E0A0E0A0E0A0E0A0E0BFD5FF4E6553
:1008000078742053746167650047616D65204F7689
:1008100065720000000000003E5B4F5B3E3E6B4F88
:100820006B3E1C3E7C3E1C183C7E3C181C577D5782
:100830001C1C5E7F5E1C00183C1800FFE7C3E7FF2E
:100840000018241800FFE7DBE7FF30483A060E26C1
:1008500029792926407F050507407F05253F5A3C19
:10086000E73C5A7F3E1C1C08081C1C3E7F14227F5C
:1008700022145F5F005F5F06097F017F0066899534
:100880006A606060606094A2FFA29408047E04081D
:1008900010207E201008082A1C08081C2A08081EA0
:1008A000101010100C1E0C1E0C30383E3830060E86
:1008B0003E0E06000000000000005F000000070080
:1008C0000700147F147F14242A7F2A12231308643C
:1008D0006236495620500008070300001C224100E0
:1008E0000041221C002A1C7F1C2A08083E08080020
:1008F00080703000080808080800006060002010C0
:100900000804023E5149453E00427F400072494979
:1009100049462141494D331814127F10274545455A
:10092000393C4A494931412111090736494949367B
:10093000464949291E000014000000403400000010
:100940000814224114141414140041221408020142
:100950005909063E415D594E7C1211127C7F49496E
:1009600049363E414141227F4141413E7F4949490B
:10097000417F090909013E414151737F0808087F01
:1009800000417F41002040413F017F081422417F08
:10099000404040407F021C027F7F0408107F3E41A0
:1009A00041413E7F090909063E4151215E7F0919F7
:1009B0002946264949493203017F01033F4040400F
:1009C0003F1F2040201F3F4038403F6314081463FE
:1009D00003047804036159494D43007F41414102BA
:1009E00004081020004141417F04020102044040FC
:1009F000404040000307080020545478407F2844BA
:100A000044383844444428384444287F38545454A3
:100A10001800087E090218A4A49C787F08040478B2
:100A200000447D40002040403D007F1028440000ED
:100A3000417F40007C047804787C080404783844C2
:100A4000444438FC1824241818242418FC7C080476
:100A50000408485454542404043F44243C40402097
:100A60007C1C2040201C3C4030403C442810284442
:100A70004C9090907C4464544C44000836410000F3
:100A800000770000004136080002010204023C2603
:100A900023263C1EA1A161123A4040207A385454CA
:100AA000555921555579412154547841215554784F
:100AB0004020545579400C1E5272123955555559E3
:100AC000395454545939555454580000457C410008
:100AD00002457D420001457C40F0292429F0F028A0
:100AE0002528F07C545545002054547C547C0A0938
:100AF0007F4932494949323248484832324A4848A7
:100B0000303A4141217A3A42402078009DA0A07DB0
:100B100039444444393D4040403D3C24FF2424486E
:100B20007E4943662B2FFC2F2BFF0929F620C08816
:100B30007E090320545479410000447D41304848E7
:100B40004A32384040227A007A0A0A727D0D193101
:100B50007D2629292F28262929292630484D40205D
:100B6000380808080808080808382F10C8ACBA2F39
:100B7000102834FA00007B000008142A14222214E2
:100B80002A14089500220095AA005500AAAA55AA81
:100B900055AA000000FF00101010FF00141414FFED
:100BA000001010FF00FF1010F010F0141414FC00DF
:100BB0001414F700FF0000FF00FF1414F404FC14E9
:100BC0001417101F10101F101F1414141F001010E2
:100BD00010F0000000001F101010101F1010101057
:100BE000F010000000FF101010101010101010FF77
:100BF00010000000FF140000FF00FF00001F10178E
:100C00000000FC04F414141710171414F404F40076
:100C100000FF00F714141414141414F700F714143C
:100C200014171410101F101F141414F4141010F0C3
:100C300010F000001F101F0000001F14000000FC37
:100C4000140000F010F01010FF10FF141414FF1423
:100C50001010101F00000000F010FFFFFFFFFFF05A
:100C6000F0F0F0F0FFFFFF0000000000FFFF0F0FAB
:100C70000F0F0F38444438447C2A2A3E147E020267
:100C80000606027E027E0263554941633844443CB5
:100C900004407E201E2006027E020299A5E7A59947
:100CA0001C2A492A1C4C7201724C304A4D4D30307E
:100CB00048784830BC625A463D3E494949007E0169
:100CC00001017E2A2A2A2A2A44445F444440514A88
:100CD000444040444A51400000FF0103E080FF00CF
:100CE0000008086B6B083612362436060F090F060B
:100CF000000018180000001010003040FF01010033
:100D00001F01011E00191D1712003C3C3C3C000055
:100D1000000000080B0002020201000904000001AB
:100D20000202000005240010010524010101042431
:100D3000020605240600010705810310004009048E
:100D40000100020A0000000705020240000007053A
:100D500083024000000403090412010002EF0201B3
:100D6000404123368000010102030141726475692C
:100D70006E6F204C4C430041726475626F790000C5
:100D8000292511241FBECFEFDAE0DEBFCDBF11E071
:100D9000A0E0B1E0E4E3FFE502C005900D92A835C4
:100DA000B107D9F726E0A8E5B1E001C01D92AA3E3F
:100DB000B207E1F716E0C1ECD6E004C02197FE01CE
:100DC0000E94962DC03CD107C9F70E943C180C9494
:100DD000982F0C940000CF92DF92EF92FF920F9326
:100DE0001F93CF93DF936C017A018B01C0E0D0E0B9
:100DF000CE15DF0581F0D8016D918D01D601ED9101
:100E0000FC910190F081E02DC6010995892B11F02C
:100E10002196EECF7E01C701DF91CF911F910F91F7
:100E2000FF90EF90DF90CF9008958091D002E091F5
:100E3000CE02F091CF02882349F0CF010296909321
:100E4000CF028093CE02859194910895CF010296AE
:100E50009093CF028093CE028081918108958091FA
:100E6000B802089580389105B8F460347105A0F493
:100E700090E121E061FD24E060FD220F62FD2295FA
:100E8000687F969FD0011124A80FAF52BD4F8C915F
:100E9000822B40FF82278C9308952F923F924F928E
:100EA0005F926F927F928F929F92AF92BF92CF92FA
:100EB000DF92EF92FF920F931F93CF93DF93CDB703
:100EC000DEB727970FB6F894DEBF0FBECDBF9F8366
:100ED0008E836A30A1F4DC0155962C91559751967A
:100EE0008D919C915297B8E02B9F800D911D1124FC
:100EF000EE81FF81928B818B108A1786ADC06D3099
:100F000009F4AAC0AE81BF811F960D911C91509724
:100F100000381105BCF0EE81FF812589422F50E099
:100F200087859089F6E02F9F800D911D1124AE8159
:100F3000BF8150969C938E931F9756962C912111AA
:100F400075C08AC0EE81FF8181889288F0E48F1697
:100F500091040CF7AE81BF8155963C90C801B5E075
:100F60003B9E800D911D112418161906A4F6432CE2
:100F7000512CC401E8E03E9E800D911D11241816ED
:100F800019064CF6AE81BF815496BC91BC83EE81AC
:100F9000FF81F389FD8325E0629FB0011124CB011D
:100FA0008D5E974F3C011982F3012490F981F53051
:100FB00009F4212C640128E02B8320FE03C03D812D
:100FC0003A8302C08C818A839A81911104C0AC81DA
:100FD000BD81AB17B9F078018E2D801B831590F47D
:100FE00056018A2D8C19831548F44A81B501C70131
:100FF0000E943207EFEFAE1ABE0AF3CFFFEFEF1AEF
:10100000FF0AEACF26942B8121502B83C40CD51CD8
:101010002111D3CF39813F5F3983040D151DC301E1
:1010200001963C01363009F0BFCF75CF6AEF6403FB
:101030009001659F300D112420583F4F2817390724
:101040005CF4AE81BF81ED91FC9111970190F0812C
:10105000E02D6AE0CD01099581E090E027960FB67A
:10106000F894DEBF0FBECDBFDF91CF911F910F91DE
:10107000FF90EF90DF90CF90BF90AF909F908F90B8
:101080007F906F905F904F903F902F9008950895BC
:10109000089580E090E008952F923F924F925F92E2
:1010A0006F927F928F929F92AF92BF92CF92DF9278
:1010B000EF92FF920F931F93CF93DF93CDB7DEB7DD
:1010C00066970FB6F894DEBF0FBECDBF6F87788BE3
:1010D000898B9A8B2B833C834D835E83EB8AFC8ABE
:1010E0000D8B1E8B20E030E048EC52E46FA578A910
:1010F00089A99AA90E94592C2B013C019B01AC01A2
:101100006BA57CA58DA59EA50E94592C20E030E002
:1011100040E052E40E94E82B0E94CB2C6F8378873A
:1011200089879A872F8138853A832983A301920181
:10113000C601B5010E94592C20E030E040E852E49D
:101140000E94E82B0E94CB2C6B877C878D879E8723
:101150002B843C8420E030E048EC52E4C801B70125
:101160000E94592C4B015C019B01AC016B817C817D
:101170008D819E810E94592C20E030E040E052E4B5
:101180000E94E82B0E94CB2C6B837C838D839E83F3
:101190000B811C81A50194016F85788989899A89C1
:1011A0000E94592C20E030E040E852E40E94E82BF5
:1011B0000E94CB2C5B016F807884601A710A77FEE5
:1011C00003C07194619471088B849C84861A970A79
:1011D00097FE03C0919481949108861497044CF46F
:1011E0002F8038842B853C853A832983AB80BC8053
:1011F0008B012A143B045CF4902F812F09811A8102
:1012000099838A839A2D8B2D5101292E382E7101B5
:10121000EA18FB0849805A80401A510A57FE03C059
:101220005194419451086701F7FE03C03FEFC31A80
:10123000D30AD594C79489819A810817190714F0A5
:101240008FEF01C081E0282F880F330B3A83298369
:101250002A143B04CCF041E0861497041CF4B50139
:10126000C80102C0B801C5010E943207C418D508E0
:10127000D7FE06C089819A81080F191FCE0CDF1C8A
:101280009FEFA91AB90AE4CF66960FB6F894DEBFAD
:101290000FBECDBFDF91CF911F910F91FF90EF90C7
:1012A000DF90CF90BF90AF909F908F907F906F9086
:1012B0005F904F903F902F9008950E94832F0F933F
:1012C0001F93CF93DF93EC0188819981009729F0D8
:1012D0002A813B812617370788F48B016F5F7F4F88
:1012E0000E94BD2E009761F0998388831B830A8337
:1012F0002C813D81232B11F4FC01108281E001C07F
:1013000080E0DF91CF911F910F910895CF93DF93EC
:10131000EC0188819981009711F00E94342E198286
:1013200018821D821C821B821A82DF91CF91089540
:10133000EF92FF920F931F93CF93DF93EC017B010A
:101340008A01BA010E945F09811104C0CE010E9486
:10135000860907C01D830C83B701888199810E948B
:10136000912FCE01DF91CF911F910F91FF90EF90C0
:101370000895CF92DF92EF92FF926115710581057A
:10138000910549F06B017C010E948729A701960114
:101390000E944D2B03C060E070E0CB01FF90EF9006
:1013A000DF90CF900895CF92DF92EF92FF920F934C
:1013B0001F93CF93DF930E941507811520E89207B2
:1013C00061F4809171008D7F809371001092910083
:1013D000469847981092BB028BC021E02093BB0235
:1013E000813020E8920751F48091CC029091CD0297
:1013F0009093CF028093CE020E94150797FD05C0FF
:101400002091BA02222309F43FC02091B902211190
:101410003BC021E02093BC02EC01DF77209769F408
:1014200081E08093BD0246983FE9C32E3FE0D32E72
:10143000E12CF12CCAEFD0E014C08E0120E030E0A6
:1014400060E472E48FE090E0A90198010E944D2BC6
:1014500069017A0181E0C81AD108E108F108109207
:10146000BD02E0918701F09188010995811103C0C7
:1014700081E08093BD028091BC028823B9F1809104
:10148000BD02811133C003C01092BC02C5CF469982
:101490002DC0479A0E941507009771F09C01DE014C
:1014A0000E94D82BDC01CB0129E0B595A795979533
:1014B00087952A95D1F703C08FEF9FEFDC0110923B
:1014C00090002AE020939100D0929900C092980059
:1014D0008093BE029093BF02A093C002B093C1025A
:1014E0008091710082608093710002C04798D2CFD2
:1014F000DF91CF911F910F91FF90EF90DF90CF90F0
:1015000008951F920F920FB60F9211242F933F93BD
:101510004F935F936F937F938F939F93AF93BF93FB
:10152000EF93FF938091BE029091BF02A091C00201
:10153000B091C102892B8A2B8B2B81F18091BD0246
:1015400081110BC098B180E4892788B98091BC02D1
:10155000882319F088B1805888B98091BE02909193
:10156000BF02A091C002B091C102181619061A0656
:101570001B06B4F48091BE029091BF02A091C002FC
:10158000B091C1020197A109B1098093BE02909365
:10159000BF02A093C002B093C10202C00E94D3094F
:1015A000FF91EF91BF91AF919F918F917F916F913B
:1015B0005F914F913F912F910F900FBE0F901F9011
:1015C0001895EF92FF920F931F93DC01E1E7F0E093
:1015D00090819D7F90831092D002E9E7F1E0F09333
:1015E000CF02E093CE02F093CD02E093CC02B18320
:1015F000A083738362835583448337832683118753
:101600000087F386E2861F910F91FF90EF900C9474
:10161000D309DC01E1E7F0E090819D7F9083109297
:10162000D002E9E7F1E0F093CF02E093CE02F0932D
:10163000CD02E093CC02B183A08373836283558390
:1016400044833783268380E090E8918780870C94D9
:10165000D3092D9A0895BC0180E090E00C94D11438
:101660008FB18095807F669B88601C9B8460089505
:101670000C94372B1092B8023E983F9808953E9AEA
:101680003F9A81E08093B802089580E00C94911510
:101690002F923F924F925F926F927F928F929F9282
:1016A000AF92BF92CF92DF92EF92FF920F931F9370
:1016B000CF93DF93CDB7DEB766970FB6F894DEBF52
:1016C0000FBECDBF69837A838B839C832E8B3D8B2A
:1016D000942E852E2BED3FE049E450E4C601B50180
:1016E0000E94E82B6D837E838F8398870E94542C01
:1016F00020E030E040EA51E40E94792AA8019701F5
:101700000E94E82B6F87788B898B9A8B6D817E8105
:101710008F8198850E94452D20E030E040EA51E419
:101720000E94792A29813A814B815C810E94E82BB1
:101730006B877C878D879E87C601B5010E94542CDC
:1017400020E030E040EA51E40E94792AA8019701A4
:101750000E94E82B362E272E8B8B9C8BC601B50161
:101760000E94452D20E030E040EA51E40E94792AB1
:1017700029813A814B815C810E94E82B2B013C013D
:101780008A898F9399899F9388898F939F859F9347
:101790008F929F928D898F939E899F93AB84BC84F7
:1017A000CD84DE8491019B898C89E32EF22E092F52
:1017B000182F8E8989839D899D8399868A869C01AD
:1017C000492D582DC301B2010E944C0820E030E0A1
:1017D00040E252E4B981AD81F985EA856B2F7A2F19
:1017E0008F2F9E2F0E94E82B4B018E8B9D8B8A8919
:1017F0008F9399899F9388898F939F859F938D89D4
:101800008F939E899F939F928F92AB84BC84CD844B
:10181000DE8491019B898C89E32EF22E092F182FEB
:101820009E898D89282D392D492F582FC301B2014A
:101830000E944C088C898F939B899F932F923F9293
:101840008D898F939E899F939F928F9263015201FE
:1018500091019B898C89E32EF22E092F182F798113
:101860006D8199858A85272F362F492F582FC301DF
:10187000B2010E944C088A898F9399899F93888925
:101880008F939F859F938D898F939E899F939F921E
:101890008F92AB84BC84CD84DE843F85288999896E
:1018A0008A89E32EF22E092F182F79816D8199856F
:1018B0008A85272F362F492F582FC601B5010E9440
:1018C0004C080FB6F894DEBF0FBECDBF66960FB6BC
:1018D000F894DEBF0FBECDBFDF91CF911F910F9166
:1018E000FF90EF90DF90CF90BF90AF909F908F9040
:1018F0007F906F905F904F903F902F9008952F9220
:101900003F924F925F926F927F928F929F92AF928F
:10191000BF92CF92DF92EF92FF920F931F93CF93DC
:10192000DF93CDB7DEB7A8970FB6F894DEBF0FBE32
:10193000CDBF2B013C01922E3B874F87852EAD8278
:10194000BE82CF82D8862BED3FE049EC5FE3C60133
:10195000B5010E94E82B5B016C010E94542C20E031
:1019600030E040EA51E40E94792AE982FA820B834E
:101970001C839701A8010E94E82B6C8F7D8F8E8FAE
:101980009F8FC601B5010E94452D20E030E040EA5E
:1019900051E40E94792AA30192010E94E82B688BEE
:1019A000798B8A8B9B8B6D817E818F8198850E943C
:1019B000542C20E030E040EA51E40E94792A2E2D98
:1019C0003F2D402F512F0E94E82B6C8B7D8B8E8BEF
:1019D0009F8B6D817E818F8198850E94452D20E0AF
:1019E00030E040EA51E40E94792AA30192010E946A
:1019F000E82B688F798F8A8F9B8F8F8D8F939E8D29
:101A00009F938D8D8F939C8D9F938F928F858F93B6
:101A10009B859F939F92A888B988CA88DB88EC88A9
:101A2000FD880E891F89292C98A78FA3382C292D72
:101A3000392F482F582D688D798D8A8D9B8D0E9466
:101A40004C082BED3FE049E450E46D817E818F81AD
:101A500098850E94E82B6B017C010E94542C20E0A9
:101A600030E040EA51E40E94792AB981AA81FB81E1
:101A7000EC812B2F3A2F4F2F5E2F0E94E82B6F8780
:101A800078A389A39AA3C701B6010E94452D20E03F
:101A900030E040EA51E40E94792AA30192010E94B9
:101AA000E82B6B877C878D879E878AA18F9399A16E
:101AB0009F9388A18F939F859F938F928FA18F93E0
:101AC00098A59F939F92AB84BC84CD84DE843C8D8B
:101AD0002D8D9E8D8F8DE32EF22E092F182F68A548
:101AE0009FA1292D362F492F582D688979898A89F8
:101AF0009B890E944C0824EE3BEC46E950E46D8142
:101B00007E818F8198850E94E82B6B017C010E9469
:101B1000542C20E030E040EA51E40E94792AB98157
:101B2000AA81FB81EC812B2F3A2F4F2F5E2F0E9431
:101B3000E82B6BA37CA38DA39EA3C701B6010E94D3
:101B4000452D20E030E040EA51E40E94792AA301CB
:101B500092010E94E82B6D837E838F8398878EA1EC
:101B60008F939DA19F938CA18F939BA19F938F9205
:101B70008FA18F9398A59F939F92AD80BE80CF80B9
:101B8000D8843F8528A199A18AA1E32EF22E092F9E
:101B9000182F68A59FA1292D362F492F582D6B8509
:101BA0007C858D859E850E944C088EA18F939DA17A
:101BB0009F938CA18F939BA19F938F928FA18F93C3
:101BC00098A59F939F92AD80BE80CF80D884EC88EB
:101BD000FD880E891F8968A59FA1292D362F492FC1
:101BE000582D688D798D8A8D9B8D0E944C0820E040
:101BF00030E040EF51E4A8A5FFA1692D7A2F8F2F87
:101C0000982D0E94E82B4B0189879A870FB6F8948C
:101C1000DEBF0FBECDBF9C819F938B818F939A8136
:101C20009F9389818F939A859F9389858F939F92A4
:101C30008F9263015201EC88FD880E891F8968A587
:101C40009FA1222D362F492F532D688D798D8A8D96
:101C50009B8D0E944C089C819F938B818F939A81CE
:101C60009F9389818F939A859F9389858F939F9264
:101C70008F923C8D2D8D9E8D8F8DE32EF22E092F10
:101C8000182F68A59FA1222D362F492F532D688923
:101C900079898A899B890E944C089C819F938B81BA
:101CA0008F939A819F9389818F939A859F9389853A
:101CB0008F939F928F923F8528A199A18AA1E32EAD
:101CC000F22E092F182F68A59FA1222D362F492FFC
:101CD000532D6B857C858D859E850E944C089C814B
:101CE0009F938B818F939A819F9389818F939A85FC
:101CF0009F9389858F939F928F923BA12CA19DA149
:101D00008EA1E32EF22E092F182F68A59FA1222D58
:101D1000362F492F532D6D817E818F8198850E94AA
:101D20004C0820E030E040EF51E4A8A5FFA1622D6F
:101D30007A2F8F2F932D0E94E72B4B0189879A874B
:101D40000FB6F894DEBF0FBECDBF9C819F938B81F1
:101D50008F939A819F9389818F939A859F93898589
:101D60008F939F928F92EC88FD880E891F8968A5BA
:101D70009FA1222D362F492F532D688D798D8A8D65
:101D80009B8D0E944C089C819F938B818F939A819D
:101D90009F9389818F939A859F9389858F939F9233
:101DA0008F923C8D2D8D9E8D8F8DE32EF22E092FDF
:101DB000182F68A59FA1222D362F492F532D6889F2
:101DC00079898A899B890E944C089C819F938B8189
:101DD0008F939A819F9389818F939A859F93898509
:101DE0008F939F928F923F8528A199A18AA1E32E7C
:101DF000F22E092F182F68A59FA1222D362F492FCB
:101E0000532D6B857C858D859E850E944C089C8119
:101E10009F938B818F939A819F9389818F939A85CA
:101E20009F9389858F939F928F923BA12CA19DA117
:101E30008EA1E32EF22E092F182F68A59FA1222D27
:101E4000362F492F532D6D817E818F8198850E9479
:101E50004C080FB6F894DEBF0FBECDBFA8960FB6E4
:101E6000F894DEBF0FBECDBFDF91CF911F910F91D0
:101E7000FF90EF90DF90CF90BF90AF909F908F90AA
:101E80007F906F905F904F903F902F9008952F928A
:101E90003F924F925F926F927F928F929F92AF92FA
:101EA000BF92CF92DF92EF92FF920F931F93CF9347
:101EB000DF93CDB7DEB766970FB6F894DEBF0FBEDF
:101EC000CDBF6D837E838F83988729873A874B8721
:101ED0005C8717014801AD86BE86CF86D88A20E090
:101EE00030E0A9016E2D732D802F992D0E94402D79
:101EF00018160CF0DCC02FA538A949A95AA96E2DD7
:101F0000732D802F992D0E94E82B6B8B7C8B8D8BF2
:101F10009E8B2BA53CA54DA55EA569857A858B85F5
:101F20009C850E94E72B69837A838B839C838E89AF
:101F30008F939D899F938C898F939B899F938C818D
:101F40008F939B819F938A818F9399819F93AD807B
:101F5000BE80CF80D884F32C192D79816A819B8132
:101F60008C81272F362F492F582FC601B5010E948B
:101F70004C082D853E854F8558896D817E818F81E6
:101F800098850E94E82B2B013C018E898F939D89B7
:101F90009F938C898F939B899F938C818F939B8137
:101FA0009F938A818F9399819F9363015201E22CC1
:101FB000F32C082D192D79816A819B818C81272F23
:101FC000362F492F582FC301B2010E944C089F920F
:101FD0008F923F922F928C818F939B819F938A81C6
:101FE0008F9399819F93E22CF32C082D192D7981E1
:101FF0006A819B818C81272F362F492F582F6D8125
:102000007E818F8198850E944C0820E030E041E677
:1020100054E469857A858B859C850E94E82B6B8BBF
:102020007C8B8D8B9E8B9F928F923F922F929F9352
:102030008F938C898F939B899F93E22CF32C082D8F
:10204000192D79816A819B818C81272F362F492F09
:10205000582FC301B2010E944C080FB6F894DEBF9E
:102060000FBECDBF9F928F923F922F929E899F93DA
:102070008D898F939C899F938B898F93AD80BE8030
:10208000CF80D884E22CF32C082D192D79816A8118
:102090009B818C81272F362F492F582FC601B501E0
:1020A0000E944C080FB6F894DEBF0FBECDBF2FA51F
:1020B00038A949A95AA9622D732D882D992D0E94FE
:1020C000E82B3B014C0120E030E0A901772D882D61
:1020D000992D0E94402D18160CF085C02D853E8547
:1020E0004F8558896D817E818F8198850E94E82B6C
:1020F0001B012C012BA53CA54DA55EA569857A8504
:102100008B859C850E94E72B69837A838B839C83D4
:102110009F928F927F926F929F938F939A819F93BA
:1021200089818F9362015101E62CF72C082D192D1E
:1021300079816A819B818C81272F362F492F582FD7
:102140006D817E818F8198850E944C0820E030E06F
:1021500041E654E469857A858B859C850E94E82B4D
:1021600069877D87898B9A8B9F928F927F926F92DE
:102170009F938F939D859F9389858F93E62CF72C52
:10218000082D192D79816A819B818C81272F362F0B
:10219000492F582FC201B1010E944C089F928F9283
:1021A0007F926F929A899F9389898F939D859F9340
:1021B00089858F93AD80BE80CF80D884E62CF72CA4
:1021C000082D192D79816A819B818C81272F362FCB
:1021D000492F582FC601B5010E944C080FB6F8943C
:1021E000DEBF0FBECDBF66960FB6F894DEBF0FBE42
:1021F000CDBFDF91CF911F910F91FF90EF90DF90B6
:10220000CF90BF90AF909F908F907F906F905F9096
:102210004F903F902F900895CF93DF931F92CDB7AB
:10222000DEB76983DC01ED91FC910280F381E02D42
:1022300041E050E0BE016F5F7F4F09950F90DF9145
:10224000CF91089583E08093E9008091F200882384
:1022500019F08AE38093E8000895FC018485958550
:1022600097FD0BC09FB7F89482E08093E9008091BE
:10227000F2009FBF90E0019608959FB7F89482E026
:102280008093E9008091F2009FBF90E00895409113
:10229000C6025091C7022091C4023091C502421774
:1022A0005307B4F49091E8009570E1F39091E80041
:1022B00092FD19C08093F1008091C6029091C702EF
:1022C00001968F739927892B19F48EEF8093E8007C
:1022D0008091C6029091C70201969093C7028093A5
:1022E000C60281E0089580E00895DF92EF92FF92A8
:1022F0000F931F93CF93DF93D82E8A017B01E40EB7
:10230000F51EEB01CE15DF0571F0D7FE03C0FE010F
:10231000849101C088810E94471121968111F2CFDA
:102320008FEF9FEF01C0C801DF91CF911F910F91F7
:10233000FF90EF90DF900895615030F02091F10010
:10234000FC0120830196F8CF289884E68093CA0286
:1023500008950E94A81790E008950F931F93CF93BC
:10236000DF931F92CDB7DEB78C01FC018485958584
:1023700097FF0EC0CE0101960E947A17019719F4BB
:10238000898190E002C08FEF9FEFF80195878487E5
:10239000F801848595850F90DF91CF911F910F9162
:1023A0000895CF93DF931F92CDB7DEB7FC018485EC
:1023B000958597FD05C02FEF3FEF358724870BC02C
:1023C000CE0101960E947A17019719F4898190E055
:1023D00002C08FEF9FEF0F90DF91CF9108950F9381
:1023E0001F93CF93DF931F92CDB7DEB782E089832F
:1023F00042E450E063E17DE080E80E9475110E94B4
:10240000B917DC0112960D911C9113970115110556
:1024100089F0D801ED91FC910280F381E02DBE019D
:102420006F5F7F4FC801099597FD04C0F8010085D3
:102430001185ECCF89810F90DF91CF911F910F9182
:1024400008951F920F920FB60F9211248F939F93AE
:102450008091E1009091E100937F9093E10083FFF0
:102460000FC01092E90091E09093EB001092EC0005
:1024700092E39093ED001092CB0298E09093F000DD
:1024800082FF20C093E09093E9009091F20099239D
:1024900019F09AE39093E8009091C902992339F0DA
:1024A0009091C90291509093C902992389F190911A
:1024B000CA02992339F09091CA0291509093CA02AE
:1024C000992341F184FF10C08091E2008E7E8160EB
:1024D0008093E2008091E1008F7E8093E100809103
:1024E000C3028E7E806111C080FF16C08091E20021
:1024F0008E7E80618093E2008091E1008E7E8093E9
:10250000E1008091C3028E7E81608093C30204C08B
:102510005D9ACDCF289AD6CF9F918F910F900FBE05
:102520000F901F9018951F920F920FB60F921124C3
:10253000CF92DF92EF92FF920F931F932F933F93CF
:102540004F935F936F937F938F939F93AF93BF93BB
:10255000EF93FF93CF93DF93CDB7DEB76C97DEBFDA
:10256000CDBF1092E9008091E80083FFFBC168E0D5
:10257000CE0145960E949C1182EF8093E8008D89E0
:1025800087FF05C09091E80090FFFCCF03C09EEF4D
:102590009093E800982F907609F0C6C09E894F89E5
:1025A000588D2F89F88C91110CC0803829F48091B6
:1025B000C2028093F10002C01092F1001092F1006B
:1025C00045C1913051F4811141C14130510509F0AB
:1025D0003DC18091C2028D7F0BC0933061F48111A7
:1025E00035C14130510509F031C18091C20282608C
:1025F0008093C2022BC1953049F48091E80080FF9E
:10260000FCCF822F80688093E30020C1963009F0D0
:102610005EC00B8D1C8D22E01092E9001092C70263
:102620001092C602F21232C01092C5021092C40279
:102630000E94EF1199E0BE016F5F7F4FDB01E92F30
:102640001D92EA95E9F79983FA8291E09E8390EAD8
:1026500098879AEF99872091C6023091C702275F29
:102660003F4F3C832B838D831092E9001092C70269
:102670001092C6021093C5020093C40249E050E0D4
:1026800080E00E9475110E94EF11E0C01093C50216
:102690000093C4020E94B917DC0112960D911C919F
:1026A00013970115110509F4BBC0D801ED91FC91F8
:1026B0000480F581E02DBE016B5E7F4FC801099556
:1026C000009709F0C7C0F80100851185EACF97305F
:1026D00009F445C1983021F481E08093F100B6C03F
:1026E000993009F0B3C0837009F039C1E5E4F1E035
:1026F00081E031E096E32081211109C08EE78093CB
:10270000EA001092EA008F898093CB029FC08093E9
:10271000E9003093EB0021912093EC009093ED00C1
:102720008F5F873041F7EACF8B8D9C8D1092E90047
:102730001092C7021092C6029093C5028093C40201
:10274000898D811153C08E899D89913A49F48132D6
:1027500009F005C147E050E06CE071E080E0BBC0EB
:10276000913209F0FCC0833269F48F89988DA0E022
:10277000B0E08093080190930901A0930A01B093FF
:102780000B0164C0803269F48091E80082FFFCCFC5
:1027900067E08CE091E00E949C118BEF8093E80051
:1027A00055C0823209F052C08F8980931301EEEF39
:1027B000FFE7859194918B3F9C4D19F0E0E0F8E0A4
:1027C00002C0EEEFFAE080910C0190910D01A09112
:1027D0000E01B0910F01803B9440A105B10509F0B5
:1027E0009EC08091130180FF79C099C00E94B917E3
:1027F000FC01028113810115110509F4B0C0D80153
:10280000ED91FC910190F081E02DBE016B5E7F4F58
:10281000C801099581111AC0F80100851185EBCF17
:10282000F1E0FF1609F44EC0F3E0FF1298C08F8963
:10283000882309F44AC0823089F440E867E087E7DA
:102840009DE00E940729882309F489C08EEF8093B8
:10285000E80088C018161906CCF381C0813029F42D
:1028600040E86BE08BE69DE0ECCF833009F077C069
:102870000E94B917DC011296ED90FC9013978E011F
:102880000F5F1F4F6801E114F10479F0D701ED915A
:10289000FC910680F781E02DB801C7010995080F6A
:1028A000111DF701E084F184EECFD8011C92F601EE
:1028B00001900020E9F73197BF016C197D0940E0D4
:1028C000C601BFCF69E57DE002C065E57DE0FB01A3
:1028D000449150E080E80E947511B8CFEE3F2AE0A5
:1028E000F20751F0808191818737A7E79A0721F09D
:1028F0009093FF0A8093FE0A87E797E7918380838E
:10290000809160008093C8029BE088E10FB6F89444
:10291000A895809360000FBE9093600097CF808150
:1029200091818737974709F091CFA89580916000F2
:102930008861809360008091C80280936000EE3FC0
:10294000BAE0FB0739F08091FE0A9091FF0A91836B
:1029500080837CCF1092FF0A1092FE0A77CF81E22B
:102960008093EB006C960FB6F894DEBF0FBECDBF20
:10297000DF91CF91FF91EF91BF91AF919F918F9197
:102980007F916F915F914F913F912F911F910F9187
:10299000FF90EF90DF90CF900F900FBE0F901F90A1
:1029A00018958F929F92AF92BF92CF92DF92EF9243
:1029B000FF926B017C010E94CD174B015C01C11499
:1029C000D104E104F104F1F00E94CD17DC01CB0148
:1029D00088199909AA09BB09883E9340A105B10548
:1029E00070F321E0C21AD108E108F10888EE880EE0
:1029F00083E0981EA11CB11CC114D104E104F104B0
:102A000019F7DDCFFF90EF90DF90CF90BF90AF90A0
:102A10009F908F9008958F929F92AF92BF92CF9286
:102A2000DF92EF92FF920F931F93CF93DF936C018E
:102A30007B018A0180911301882309F45CC0809195
:102A4000CB02882309F457C08091C30280FF05C0E0
:102A50008091E00082608093E000E801B12C8AEF71
:102A6000A82E93E0892E2AE3922E209711F4BB2002
:102A7000D9F10E94A81781110AC0AA94AA20D9F1FD
:102A800061E070E080E090E00E94D114EECF282F4A
:102A900030E0C217D3070CF48C2F9FB7F8948092C4
:102AA000E9002091E80025FF1DC0282F30E0C21B5F
:102AB000D30BF701815020F041914093F100FACF00
:102AC000E20EF31EBB2019F09092E8000AC080913C
:102AD000E80085FD07C09092E800BB24B3942097DE
:102AE00009F0B12C9FBFC1CF5D9884E68093C902E5
:102AF0001016110644F081E090E0F6019383828382
:102B000080E090E001C0C801DF91CF911F910F914B
:102B1000FF90EF90DF90CF90BF90AF909F908F90FD
:102B20000895E1EDF2E0A0E0B8E000800EBC811174
:102B3000012C1197A0FDFDCF0192B9F70DB40895B6
:102B40004F925F926F927F928F929F92AF92BF92BD
:102B5000CF92DF92EF92FF920F931F93CF93DF9369
:102B600000D000D0CDB7DEB7DC014115510509F426
:102B7000B5C0FA01F4903196E491CF2CD12C8601A6
:102B8000080F191F101611060CF0A8C08038910507
:102B90000CF0A4C0CB018E0F911D181619060CF075
:102BA0009DC0603471050CF099C0F62FF770BF2EF0
:102BB0009B0177FF02C0295F3F4F83E03595279542
:102BC0008A95E1F7822F77FF04C0BB2011F08FEFC9
:102BD000820FB7FF05C0882499248A1A9B0A02C075
:102BE000812C912C0038110524F070E87A1B672E97
:102BF00001C06F2C6818282F082E000C330B8F3F54
:102C00001CF4F22FF09501C0F0E091E06E2F677098
:102C100009F490E0E695E695E6959E0F290F311DA3
:102C20002930310514F098E0981B6F2F680F4E5F24
:102C30005F4F9401FF9E200D311D1124420F531F41
:102C400001E010E00B2C02C0000F111F0A94E2F704
:102C50002FEF209F7001219FF00C1124E094F0943D
:102C6000FC82EB82AC809D0170E86703200D311D72
:102C70001124280D391D2F523D4F992E980E96166E
:102C800069F1D9012A01842D841B861508F5F2010A
:102C90008490809EC001819E900D11249A83898327
:102CA00067FD04C09C919E21892B8C93BB2059F019
:102CB00067304CF4CD0180589F4FFC0180808A2002
:102CC0007A8087288082FFEF4F1A5F0A1196DBCF48
:102CD0006F5F4C0D5D1D20583F4FD1CF0F900F906F
:102CE0000F900F90DF91CF911F910F91FF90EF9078
:102CF000DF90CF90BF90AF909F908F907F906F901C
:102D00005F904F90089580E0E1EDF2E081118FEF48
:102D1000002481938193819381930394D1F7E1E51A
:102D2000F2E0128A118A108A17860895EF92FF92B4
:102D30000F931F93CF93DF93CDB7DEB762970FB694
:102D4000F894DEBF0FBECDBF8C01CB01F80111821C
:102D5000108213821282158214824AE09E012F5F34
:102D60003F4F7901B9010E94DE29F701019000204F
:102D7000E9F73197AF014E195F09B701C8010E9409
:102D8000980962960FB6F894DEBF0FBECDBFDF91F3
:102D9000CF911F910F91FF90EF900895FC01118248
:102DA0001082138212821582148247E050E06BE495
:102DB00071E00C949809EF92FF920F931F93CF93B9
:102DC000DF93EC01FB0104811581E080F180E114C7
:102DD000F104C9F001151105C9F08C819D81080F1E
:102DE000191FB801CE010E945F09882361F0288174
:102DF00039818C819D81B701820F931F0E94912F91
:102E00001D830C8303C0CE010E948609CE01DF9191
:102E1000CF911F910F91FF90EF900895FC01448195
:102E200055816081718181E592E00C94EB06FC0193
:102E3000808191810C94342E0F931F93CF93DF9355
:102E40008C01C0E0D0E0F801EC0FFD1F6491662317
:102E500041F081E592E00E944D07892B11F0219607
:102E6000F2CFCE01DF91CF911F910F9108950F9373
:102E70001F93CF93DF93EC010C811D810D5F1F4FDA
:102E8000B8010E945F09882369F0288139818C810B
:102E90009D8163E571E0820F931F0E94912F1D8336
:102EA0000C8303C0CE010E948609CE01DF91CF9131
:102EB0001F910F910895E1E7F0E080818D7F80837D
:102EC0001092D002E9E7F1E0F093CF02E093CE0256
:102ED000F093CD02E093CC028EE190E09183808369
:102EE00088EC90E09383828380E090E895838483EC
:102EF0000C94D3092091CB02211103C08FEF9FEFD7
:102F000008955FB7F89422E02093E9002091F20041
:102F100030E01216130614F421E030E0422FFC01D9
:102F200084E6415038F028988093CA029091F100CD
:102F30009193F7CF2115310521F08091F20088237C
:102F400019F05FBFC90108958BE68093E800F9CFBF
:102F50002FB7F89483E08093E9009091E800892FDF
:102F6000807295FF04C09091F20080E4891B2FBF0E
:102F700008958091D50681110DC082E08093D1061D
:102F800084E08093D2061092D4061092D30681E09A
:102F90008093D50681ED96E008953FB7F89480912F
:102FA000E2069091E306A091E406B091E50626B50D
:102FB000A89B05C02F3F19F00196A11DB11D3FBF71
:102FC000BA2FA92F982F8827820F911DA11DB11DFF
:102FD000BC01CD0142E0660F771F881F991F4A95FB
:102FE000D1F708951F920F920FB60F9211242F93CD
:102FF0003F938F939F93AF93BF938091DD06909102
:10300000DE06A091DF06B091E0063091E10623E0F4
:10301000230F2D3720F40196A11DB11D05C026E810
:10302000230F0296A11DB11D2093E1068093DD06BA
:103030009093DE06A093DF06B093E0068091E2064F
:103040009091E306A091E406B091E5060196A11DDA
:10305000B11D8093E2069093E306A093E406B0933B
:10306000E506BF91AF919F918F913F912F910F9066
:103070000FBE0F901F901895CF93DF93CDB7DEB79B
:10308000E2970FB6F894DEBF0FBECDBF789484B53B
:10309000826084BD84B5816084BD85B5826085BD54
:1030A00085B5816085BD80916E00816080936E00E2
:1030B00010928100809181008260809381008091D4
:1030C0008100816080938100809180008160809385
:1030D00080008091910082608093910080919100A6
:1030E0008160809391008091900081608093900036
:1030F0008091C10084608093C1008091C100826092
:103100008093C1008091C10081608093C100809153
:10311000C30081608093C3008091C000826080936F
:10312000C0008091C20081608093C20080917A00CB
:10313000846080937A0080917A00826080937A0024
:1031400080917A00816080937A0080917A00806813
:1031500080937A001092CB021092C2021092C302A6
:103160008091D70081608093D70080EA8093D80057
:1031700089B5806189BD89B5826089BD09B400FEC9
:10318000FDCF61E070E080E090E00E94D11480917A
:10319000D8008F7C80618093D8008091E000807F90
:1031A0008093E0008091E1008E7E8093E1008DE0CD
:1031B0008093E200559A209A81EC80937C0085B13F
:1031C000806F85B984B1877E84B984B1876E84B9F4
:1031D0005E9A5F988AB1806D8AB9769A6E9881B34B
:1031E000806F81BB899880B38D7080BB80E58CBD7A
:1031F00081E08DBD85E090E00E942B0B5F9A85E019
:1032000090E00E942B0B5E985C98EAE7F1E08491D5
:103210008EBD00000DB407FEFDCF319621E0E738EA
:10322000F207A9F75C9A81E88093640080916500B9
:1032300081608093650085E592E00E94450B0E94C5
:10324000300B87FF24C05C9885EA8EBD00000DB46A
:1032500007FEFDCF5C9A2E982F982D9880916400E0
:1032600080628093640081E083BF889513BEFCCFA9
:103270002D980E94300B8478843871F00E94300BB6
:103280008471843131F188EC90E00E942B0B0E9414
:10329000300B82FDEDCF3AC00E94290B88EC90E004
:1032A0000E942B0B2F9882E090E00E94372B8F3FDB
:1032B00029F06FEF82E090E00E943F2B84EF91E0D5
:1032C0000E942B0B2F9A0E94300B84788438D9F3FC
:1032D000D5CF0E94290B88EC90E00E942B0B2E98F2
:1032E00082E090E00E94372B882329F060E082E0A2
:1032F00090E00E943F2B84EF91E00E942B0B2E9ACE
:103300000E94300B84718431D9F3BDCF0E94290B08
:1033100082E090E00E94380B882319F00E943F0B56
:1033200002C00E943A0B81E090E00E94380B81FFBE
:103330008BC0382F3470732E82FD2E9800EF1FEF54
:10334000E8E0EE2EF12C0E94300B86FF05C02E9A8D
:103350002F9A0E94290B78C0772029F0043011059C
:1033600011F42E9A2F9881E00E949115980117FF71
:1033700004C022273327201B310B27703327C801B5
:1033800017FD079673E0959587957A95E1F717FFF6
:1033900005C00197A701421B530B9A01AC0156953A
:1033A000542F4427579547954F525D4F60E070E08A
:1033B0004701821A930A8F3FAFEF9A074CF40196A8
:1033C000685A7F4F40585F4F603B7105A1F720C09E
:1033D0005A01B4E9AB0EB11C6A01A0E0B0E08F3F26
:1033E000EFEF9E0711F40C940325FD01E60FF71F84
:1033F000E653FF4FE491F0E02F01022E01C0440C90
:103400000A94EAF7F60164884628448A0C94032556
:1034100085E592E00E94450B8FE090E00E942B0B27
:103420000F5F1F4F0931110509F08DCF772011F083
:103430002F9A2D9880E991E00E942B0B0E94290B76
:1034400081E592E00E94C62882E390E00E942B0B67
:103450000E94300B8111F8CF82E480935C020E94BD
:10346000831647E851E060E070E080E090E00E9461
:10347000A01585E592E00E94450B28EE33E041E877
:1034800051E06CEB72E089EA91E00E94090B60ED7B
:1034900077E080E090E00E94D1148FB7F8944091DB
:1034A000DD065091DE066091DF067091E0068FBF69
:1034B00080915D02F42FF81B8F2F90915E0299236B
:1034C00031F0F0935F0210925E020C94F924909117
:1034D0005C02F91758F48F5F891710F00C94F924E7
:1034E00081E083BF889513BE0C94F92481E080931A
:1034F0005E0240935D0280915802909159020196BC
:1035000090935902809358026091770170917801ED
:103510006F5F7F4F7093780160937701072E000CE7
:10352000880B990B611571058105910511F00E94B9
:10353000D5290E9483162DEC3CEC4CE45EE36091AF
:1035400073017091740180917501909176010E94D0
:10355000E82B6093730170937401809375019093CD
:1035600076018091060190910701892B09F094C79B
:103570000E94300B85FF16C020E030E040E851E4A7
:1035800060918D0170918E0180918F0190919001D9
:103590000E94E72B60938D0170938E0180938F01C1
:1035A000909390010E94300B86FF16C020E030E01F
:1035B00040E851E460918D0170918E0180918F01FE
:1035C000909190010E94E82B60938D0170938E0181
:1035D00080938F01909390010E94300B87FF16C05B
:1035E00020E030E040E052E460910201709103017C
:1035F00080910401909105010E94E82B60930201E3
:103600007093030180930401909305010E94300B95
:1036100084FF16C020E030E040E052E460910201F7
:103620007091030180910401909105010E94E72BA4
:10363000609302017093030180930401909305014C
:1036400020E030E040E050E460916F017091700143
:1036500080917101909172010E94E82B60936F013B
:103660007093700180937101909372012091890190
:1036700030918A0140918B0150918C010E94E82B7E
:103680006093890170938A0180938B0190938C01E0
:1036900020E030E048EC53E40E94402D18160CF076
:1036A000F0C0809100019091010101979093010178
:1036B00080930001181619060CF07CC010926F015F
:1036C00010927001109271011092720120E030E0AE
:1036D0004AEF52E46091210270912202809123020C
:1036E000909124020E94E82B60938D0170938E01CB
:1036F00080938F019093900120E030E040E752ECFE
:103700002093890130938A0140938B0150938C015F
:1037100080E090E0AAEFB2E480930201909303016D
:10372000A0930401B09305018CE2E82EFF24F394EA
:103730000EE110E02CE231E04AE550E06CE271E08D
:103740008EE091E00E94E10A0E9483164AE250E076
:10375000509361024093600280E290E09093630294
:10376000809362026091000170910101CE01079681
:103770000E949616CE0101960E94CE16BE01695F88
:103780007F4FCE0101960E94DB160E940E17CE01DC
:1037900001960E941717CE0107960E94171785E51C
:1037A00092E00E94450B64E873E080E090E00E94A4
:1037B000D11467C000E2E02E03E0F02E0EE110E02D
:1037C00020E233E04AE550E060E273E08EE091E011
:1037D0000E94E10A0E948316AAE2B0E0B09361025F
:1037E000A0936002E0E2F0E0F0936302E0936202F3
:1037F0006091000170910101CE0107960E9496161A
:10380000CE0101960E94CE16BE01695F7F4FCE01A8
:1038100001960E94DB160E940E17CE0101960E94AF
:103820001717CE0107960E94171785E592E00E94B0
:10383000450B60E679E080E090E00E94D1140E94A0
:10384000831688E290E0909361028093600220E208
:1038500030E0309363022093620289E098E00E9496
:103860001C1785E592E00E94450B68EB7BE080E049
:1038700090E00E94D11481E090E090930701809342
:10388000060142E651E05EA34DA381E991E09E8BE3
:103890008D8BA1ECB1E0BE8FAD8F58A34F8F11EF90
:1038A000212E11E0312E21E232E03AA329A31CA2FD
:1038B0001BA21C8E1B8E80916E012BA13CA1032E9E
:1038C000000C440B550B2FA338A749A75AA72091EA
:1038D00002013091030140910401509105012D87AF
:1038E0003E874F87588B882309F4FCC16FA178A5C8
:1038F00089A59AA50E941A2A698B7A8B8B8B9C8B3F
:103900002D853E854F8558890E94E72B6BA77CA7A4
:103910008DA79EA780918D0190918E01A0918F011E
:10392000B09190018F8B988FA98FBA8F9C01AD01B8
:103930006D857E858F8598890E94E82B20E030E098
:1039400040EA50E40E94792A0E94452D2B013C0157
:1039500020E030E04AE754E46BA57CA58DA59EA548
:103960000E94132A87FF5BC0AD8DBE8DAD90BD90C8
:10397000CD90DC902091890130918A0140918B019A
:1039800050918C0160E070E0CB010E94E72B6FA7A3
:1039900078AB89AB9AAB20E030E040EA50E4C30159
:1039A000B2010E94792A9B01AC016FA578A989A96F
:1039B0009AA90E94E82B2B013C012F89388D498D53
:1039C0005A8DE9A1FAA160817181828193810E945F
:1039D000E72BAD89BE8913962C9113972F931296DE
:1039E0002C9112972F9311962C9111972F932C9124
:1039F0002F93F10123812F9322812F9321812F93E4
:103A000020812F93EBA4FCA40DA51EA5A301920178
:103A10000E94470F0FB6F894DEBF0FBECDBF409097
:103A20008D0150908E0160908F01709090014B8DB0
:103A30005C8D4B30510509F0B0C0A0907301B0907F
:103A40007401C0907501D090760120E030E040E034
:103A50005FE36091BD017091BE018091BF019091C3
:103A6000C0010E94792A29893A894B895C890E9480
:103A7000E82B2D853E854F8558890E94E72B698B61
:103A80007A8B8B8B9C8BA30192016D857E858F85B4
:103A900098890E94E82B20E030E040EA50E40E9440
:103AA000792A0E94452D6D877E878F87988B80911C
:103AB0001D0290911E02A0911F02B0912002BC0134
:103AC000CD0190582091890130918A0140918B015C
:103AD00050918C010E94E72B20E030E040E752E457
:103AE0000E94E72B6F8B788F898F9A8F20E030E0D0
:103AF00040EA50E46D857E858F8598890E94792AF9
:103B00009B01AC016F89788D898D9A8D0E94E82B7D
:103B10006D877E878F87988B20E030E040E05FE301
:103B20006091ED017091EE018091EF019091F001B3
:103B30000E94792A20914D0230914E0240914F020D
:103B4000509150020E94E82BA30192010E94E72BA2
:103B50002B013C0120E030E04AE754E469897A898E
:103B60008B899C890E94132A87FF2DC220E030E0B8
:103B7000A90169897A898B899C890E94402D181630
:103B80000CF021C2E988FA880B891C892D853E85B5
:103B90004F855889C301B20199C1AF8DB8A18C91ED
:103BA000882309F410C220E030E040E05FE3ED89B3
:103BB000FE8960817181828193810E94792A29899D
:103BC0003A894B895C890E94E82B2D853E854F857B
:103BD00058890E94E72B698B7A8B8B8B9C8BA30176
:103BE00092016D857E858F8598890E94E82B20E063
:103BF00030E040EA50E40E94792A0E94452D6D870A
:103C00007E878F87988B20E030E04AE754E469890B
:103C10007A898B899C890E94132A87FFD4C120E06E
:103C200030E0A90169897A898B899C890E94402D9D
:103C300018160CF0C8C1A0907301B0907401C09028
:103C40007501D0907601F10180819181A281B381CB
:103C5000BC01CD0190582091890130918A01409199
:103C60008B0150918C010E94E72B20E030E040E76F
:103C700052E40E94E72B6F8B788F898F9A8F20E018
:103C800030E040EA50E46D857E858F8598890E94FA
:103C9000792A9B01AC016F89788D898D9A8D0E945C
:103CA000E82B6D877E878F87988B20E030E040E09F
:103CB0005FE3AD8DBE8D6D917D918D919C910E9444
:103CC000792AE9A1FAA120813181428153810E94A0
:103CD000E82BA30192010E94E72BE988FA880B895F
:103CE0001C896BC16FA178A589A59AA50E941A2A83
:103CF0002B013C012D853E854F8558890E94E72B7D
:103D0000698B7A8B8B8B9C8B20E030E04AE754E404
:103D10000E94132A87FF4FC0AD8DBE8DAD90BD9020
:103D2000CD90DC902091890130918A0140918B01E6
:103D300050918C0160E070E0CB010E94E72B6F8B0B
:103D4000788F898F9A8F20918D0130918E014091CB
:103D50008F0150919001E9A1FAA160817181828166
:103D600093810E94E72BAD89BE8913962C911397FE
:103D70002F9312962C9112972F9311962C911197A5
:103D80002F932C912F93F10123812F9322812F9335
:103D900021812F9320812F93E988FA880B891C8930
:103DA0002F89388D498D5A8D0E94470F0FB6F89490
:103DB000DEBF0FBECDBF4B8D5C8D4B30510509F082
:103DC00088C0A0907301B0907401C0907501D0902C
:103DD000760120E030E040E05FE36091BD0170914A
:103DE000BE018091BF019091C0010E94792AA30178
:103DF00092010E94E82B2D853E854F8558890E94AF
:103E0000E72B2B013C0180911D0290911E02A09195
:103E10001F02B0912002BC01CD0190582091890170
:103E200030918A0140918B0150918C010E94E72BC7
:103E300020E030E040E752E40E94E72B6D877E8768
:103E40008F87988B20E030E040E05FE36091ED01E8
:103E50007091EE018091EF019091F0010E94792A1A
:103E600020914D0230914E0240914F0250915002EC
:103E70000E94E82B20918D0130918E0140918F019D
:103E8000509190010E94E72B698B7A8B8B8B9C8BD6
:103E900020E030E04AE754E4C301B2010E94132A53
:103EA00087FF91C020E030E0A901C301B2010E9468
:103EB000402D18160CF087C0830172012D853E85B8
:103EC0004F85588969897A898B899C890E947F0CE2
:103ED0007AC0AF8DB8A18C91882309F474C020E01A
:103EE00030E040E05FE3ED89FE896081718182818D
:103EF00093810E94792AA30192010E94E82B2D85CB
:103F00003E854F8558890E94E72B2B013C0120E01C
:103F100030E04AE754E40E94132A87FF54C020E0AF
:103F200030E0A901C301B2010E94402D18160CF027
:103F30004AC0A0907301B0907401C0907501D090F8
:103F40007601F10180819181A281B381BC01CD0113
:103F500090582091890130918A0140918B015091B4
:103F60008C010E94E72B20E030E040E752E40E9401
:103F7000E72B6D877E878F87988B20E030E040E0CD
:103F80005FE3AD8DBE8D6D917D918D919C910E9471
:103F9000792AE9A1FAA120813181428153810E94CD
:103FA000E82B20918D0130918E0140918F0150912D
:103FB00090010E94E72B830172012D853E854F857C
:103FC00058890E94480BA9A1BAA18D909D90AD90EF
:103FD000BD90BAA3A9A3C0908D01D0908E01E090AE
:103FE0008F01F0909001A7019601C501B4010E94D4
:103FF000132A18160CF4C4C120E030E04AE753E459
:10400000C501B4010E94E82B9B01AC01C701B601B8
:104010000E94132A18160CF4B3C1C0900201D0906C
:104020000301E0900401F09005016FA178A589A536
:104030009AA50E941A2AA70196010E94132A18160F
:104040000CF49EC16BA17CA166507F4F072E000C23
:10405000880B990B0E941A2A9B01AC01C701B6017B
:104060000E94132A18160CF48BC1F10180819181F2
:10407000A281B381BC01CD01905820E030E040E73F
:1040800052E40E94E72B2091890130918A014091EE
:104090008B0150918C010E94132A87FF71C11092ED
:1040A0006F011092700110927101109272012B8DAC
:1040B0003C8D2B30310509F01AC1BCE2EB2EFF24F8
:1040C000F39404E610E02CE231E044E650E06CE2C8
:1040D00071E08AE090E00E94E10A0E94831643E2C8
:1040E00050E0509361024093600280E290E0909330
:1040F0006302809362028EEF97E00E941C174CEBE4
:1041000057E060E070E080E090E00E94A015E2E6F9
:10411000F1E060E070E08191811102C06F5F7F4F3C
:10412000ADE6B1E0AE17BF07B1F710926102109291
:1041300060021092630210926202CE0101960E9408
:10414000961618861F821A8619861C861B86698118
:104150007A816115710531F04D815E81CE0107963E
:104160000E949809CE0107960E9437170E940E17E9
:10417000CE0107960E941717CE0101960E941717CD
:1041800085E592E00E94450B02E611E071E9E72E19
:1041900071E0F72EE1ECCE2EE1E0DE2EF1EFAF2E56
:1041A000F1E0BF2EA1E28A2EA2E09A2E412C512CE2
:1041B000320168E572E080E090E00E94B9096C523B
:1041C0007140810991090E941A2AF4016193719347
:1041D000819391934F016CE271E080E090E00E9446
:1041E000B909DC01CB018C529140A109B109BC0194
:1041F000CD01640D751D861D971D0E941A2AD501DB
:104200006D937D938D939D935D0168EC70E080E0EC
:1042100090E00E94B9096C597F4F8F4F9F4F0E94C9
:104220001A2AF60161937193819391936F0168EC5F
:1042300070E080E090E00E94B9096C597F4F8F4F89
:104240009F4F0E941A2AD7016D937D938D939D9362
:104250007D01F80121E021938F0138EC430E511CC0
:10426000611C711C40E6441649E054066104710467
:1042700009F09FCF68EE73E080E090E00E94D114D7
:1042800010926F01109270011092710110927201E0
:1042900020E030E04AEF52E4609121027091220266
:1042A00080912302909124020E94E82B60938D015B
:1042B00070938E0180938F019093900180E090E045
:1042C000A8E4B3EC8093890190938A01A0938B01B9
:1042D000B0938C0180E090E0AAEFB2E480930201F9
:1042E00090930301A0930401B093050112C0AF8D18
:1042F000B8A18C91882369F0AF8DB8A11C9224E1FC
:1043000030E048EE53E064E170E084EF91E00E9419
:10431000090BB1E0B0936E01F10180819181A2811E
:10432000B381BC01CD01905820E030E040E752E479
:104330000E94E72B4B015C01C0908901D0908A015B
:10434000E0908B01F0908C01A5019401C701B601AA
:104350000E94402D18164CF0C0928901D0928A011B
:10436000E0928B01F0928C010BC020E030E040E83D
:104370005FE3C701B6010E94E72B6B017C01E4CF2C
:104380002B8D3C8D2F5F3F4F3C8F2B8F4BA15CA122
:104390004C505E4F5CA34BA354E0250E311C8F8D17
:1043A00098A1019698A38F8FAD8DBE8D1496BE8F68
:1043B000AD8FED89FE893496FE8BED8B2C30310567
:1043C00009F079CA0E94300B83FF21C080916E01F1
:1043D0008823E9F020E030E040EF51EC20936F01BA
:1043E00030937001409371015093720110926E01ED
:1043F00066E9E62EF12C0EE011E024E630E04AE515
:1044000050E062E370E08EE190E00E94E10A00E09B
:1044100010E0ADA1BEA18D91BEA3ADA3811102C0DC
:104420000F5F1F4FEDA1FEA1ED56F14091F74CEB50
:1044300057E060E070E080E090E00E94A0151092EC
:104440006102109260021092630210926202B8013F
:10445000CE0101960E94961618861F821A8619862A
:104460001C861B8669817A816115710531F04D8149
:104470005E81CE0107960E949809CE0107960E94A0
:1044800037170E940E17CE0107960E941717CE010C
:1044900001960E941717A0C22DEC3CEC4CE45EE3A1
:1044A00060915E0170915F01809160019091610166
:1044B0000E94E82B6B017C0160935E0170935F01A9
:1044C000809360019093610120E030E040EC5FE375
:1044D0000E94792A0E94542C4B015C01C701B6014D
:1044E0000E94452D6B017C0120E030E040E850E463
:1044F000C501B4010E94792A0E94CB2C4B015C01BA
:1045000020E030E040E850E4C701B6010E94792A7B
:104510000E94CB2CDC01CB014AEB55E0B4010E9498
:10452000A01520E030E0A90160915A0170915B0173
:1045300080915C0190915D010E94132A81110FC04E
:104540008DE590E0909361028093600289E290E0B3
:10455000909363028093620283EB95E00EC082E643
:1045600090E0909361028093600289E290E09093E2
:104570006302809362028DEA95E00E941C1780918D
:10458000590120E030E040E85FE3882351F1609179
:104590005A0170915B0180915C0190915D010E94D4
:1045A000132A81110FC08BE490E0909361028093F5
:1045B000600281E390E0909363028093620284EA58
:1045C00095E038C081E590E09093610280936002AD
:1045D00081E390E090936302809362028CE995E01E
:1045E00029C060915A0170915B0180915C019091AA
:1045F0005D010E94132A81110FC08BE490E090931B
:1046000061028093600281E390E090936302809363
:10461000620282E995E00EC081E590E0909361022C
:104620008093600281E390E0909363028093620242
:1046300089E895E00E941C17809158018111AAC158
:104640000E94300B87FF1BC020E030E040E85FE3B2
:1046500060915A0170915B0180915C0190915D01C4
:104660000E94E72B60935A0170935B0180935C0179
:1046700090935D0181E0809358010E945B170E9436
:10468000300B84FF1BC020E030E040E85FE3609126
:104690005A0170915B0180915C0190915D010E94D3
:1046A000E82B60935A0170935B0180935C019093B7
:1046B0005D0181E0809358010E945B170E94300BDE
:1046C00083FF34C120E030E040E85FE360915A01AD
:1046D00070915B0180915C0190915D010E94132AB1
:1046E000811116C080915901882319F01092590147
:1046F0000FC081E0809359010E943F0B24EF31E00D
:1047000048EC50E064EF71E084E690E00E94090B11
:1047100020E030E0A90160915A0170915B01809125
:104720005C0190915D010E94132A8111FCC043E05D
:1047300050E0509301014093000121E2822E22E0DB
:10474000922E31EFA32E31E0B32E41ECC42E41E086
:10475000D42E51E9E52E51E0F52E02E611E0412C70
:10476000512C32013324339468E572E080E090E00C
:104770000E94B9096C527140810991090E941A2A5C
:10478000D4016D937D938D939D934D016CE271E007
:1047900080E090E00E94B909DC01CB018C5291408D
:1047A000A109B109BC01CD01640D751D861D971DC0
:1047B0000E941A2AF50161937193819391935F018D
:1047C00068EC70E080E090E00E94B9096C597F4F7E
:1047D0008F4F9F4F0E941A2AD6016D937D938D9320
:1047E0009D936D0168EC70E080E090E00E94B90953
:1047F0006C597F4F8F4F9F4F0E941A2AF701619388
:104800007193819391937F01D8013D928D01B8EC12
:104810004B0E511C611C711CE0E64E16E9E05E0671
:104820006104710409F0A0CF0E9483162AE230E0EF
:10483000309361022093600240E250E050936302A3
:10484000409362026091000170910101CE010796D0
:104850000E949616CE0101960E94CE16BE01695F97
:104860007F4FCE0101960E94DB160E940E17CE01EB
:1048700001960E941717CE0107960E94171785E52B
:1048800092E00E94450B10926F01109270011092FD
:1048900071011092720120E030E04AEF52E4609121
:1048A00021027091220280912302909124020E94A1
:1048B000E82B60938D0170938E0180938F0190930C
:1048C000900180E090E0A0E7B2EC809389019093A2
:1048D0008A01A0938B01B0938C0180E090E0AAEF55
:1048E000B2E48093020190930301A0930401B0937A
:1048F000050194EFE92EFF24F3940EE110E024EF7C
:1049000031E040E951E064EF71E084E690E00E941C
:10491000E10A6CED75E080E090E00E94D114109205
:1049200007011092060181E08093580120E030E0F9
:10493000A90160915A0170915B0180915C01909195
:104940005D010E94132A87FF08C010925A0110923D
:104950005B0110925C0110925D0120E030E040E8C4
:104960005FE360915A0170915B0180915C019091CD
:104970005D010E94402D1816CCF480E090E0A0E884
:10498000BFE380935A0190935B01A0935C01B093C5
:104990005D010CC00E94300B87FD08C00E94300BE7
:1049A00084FD04C00E94300B83FF50C0A0905E01C4
:1049B000B0905F01C0906001D0906101E12CF12CBA
:1049C00008E413E420E030E040EF51E460E070E000
:1049D00080E791EC0E947F0C80915901882319F0A7
:1049E0000E943F0B02C00E943A0B85E592E00E94B4
:1049F000450B80E090E0892B11F40C944D1A0E9435
:104A000000000C944D1A2115310591F0FD01E60FBF
:104A1000F71FE653FF4FE491F0E02F01082C02C08E
:104A2000559447940A94E2F7F50160804628408245
:104A30001196FFEFAF1ABF0AEFEFCE1ADE0AA835C4
:104A4000B10511F00C94EF190C94DF191092580174
:104A5000ADCFEF92FF920F931F93CF93DF93E8E6D2
:104A6000F2E01382128288EE93E0A0E0B0E084834B
:104A70009583A683B78382E291E0918380838FEF51
:104A80009FEF95878487E1E5F2E013821282118619
:104A9000128680E1838710861782158684E391E071
:104AA0009183808382E491E095838483108A1786C2
:104AB000128A118A81E0838B148A858B168A68E5B5
:104AC00072E080E090E00E94B90901E212E06C52CD
:104AD0007140810991090E941A2AF801608371834B
:104AE0008283938368E572E080E090E00E94B909D8
:104AF0006C527140810991090E941A2AF80164835D
:104B000075838683978368E572E080E090E00E9479
:104B1000B9096C527140810991090E941A2AF80161
:104B2000608771878287938768E572E080E090E014
:104B30000E94B9096C527140810991090E941A2A98
:104B4000F801648775878687978768E572E080E05B
:104B500090E00E94B9096C527140810991090E944C
:104B60001A2AF801608B718B828B938B68E572E057
:104B700080E090E00E94B9096C527140810991096E
:104B80000E941A2AF801648B758B868B978B68E5D7
:104B900072E080E090E00E94B9096C527140810996
:104BA00091090E941A2AF801608F718F828F938F6A
:104BB00068E572E080E090E00E94B9096C527140B3
:104BC000810991090E941A2AF801648F758F868FD6
:104BD000978F68E572E080E090E00E94B9096C521E
:104BE0007140810991090E941A2AF80160A371A3FA
:104BF00082A393A368E572E080E090E00E94B90987
:104C00006C527140810991090E941A2AF80164A32B
:104C100075A386A397A368E572E080E090E00E9408
:104C2000B9096C527140810991090E941A2AF80150
:104C300060A771A782A793A768E572E080E090E083
:104C40000E94B9096C527140810991090E941A2A87
:104C5000F80164A775A786A797A760E971E080E0CF
:104C600090E00E94B909C1EFD1E0685C7109810947
:104C700091090E941A2A688379838A839B8360E959
:104C800071E080E090E00E94B909685C71098109D7
:104C900091090E941A2A6C837D838E839F8360E929
:104CA00071E080E090E00E94B909685C71098109B7
:104CB00091090E941A2A688779878A879B8760E909
:104CC00071E080E090E00E94B909685C7109810997
:104CD00091090E941A2A6C877D878E879F8760E9D9
:104CE00071E080E090E00E94B909685C7109810977
:104CF00091090E941A2A688B798B8A8B9B8B60E9B9
:104D000071E080E090E00E94B909685C7109810956
:104D100091090E941A2A6C8B7D8B8E8B9F8B60E988
:104D200071E080E090E00E94B909685C7109810936
:104D300091090E941A2A688F798F8A8F9B8F60E968
:104D400071E080E090E00E94B909685C7109810916
:104D500091090E941A2A6C8F7D8F8E8F9F8F60E938
:104D600071E080E090E00E94B909685C71098109F6
:104D700091090E941A2A68A379A38AA39BA360E9D8
:104D800071E080E090E00E94B909685C71098109D6
:104D900091090E941A2A6CA37DA38EA39FA360E9A8
:104DA00071E080E090E00E94B909685C71098109B6
:104DB00091090E941A2A68A779A78AA79BA760E988
:104DC00071E080E090E00E94B909685C7109810996
:104DD00091090E941A2A6CA77DA78EA79FA768EC4D
:104DE00070E080E090E00E94B90921ECE22E21E021
:104DF000F22E6C597F4F8F4F9F4F0E941A2AF70156
:104E0000608371838283938368EC70E080E090E03C
:104E10000E94B9096C597F4F8F4F9F4F0E941A2AE9
:104E2000F701648375838683978368EC70E080E084
:104E300090E00E94B9096C597F4F8F4F9F4F0E949D
:104E40001A2AF701608771878287938768EC70E080
:104E500080E090E00E94B9096C597F4F8F4F9F4FBF
:104E60000E941A2AF701648775878687978768ECFE
:104E700070E080E090E00E94B9096C597F4F8F4F3D
:104E80009F4F0E941A2AF701608B718B828B938B44
:104E900068EC70E080E090E00E94B9096C597F4FA7
:104EA0008F4F9F4F0E941A2AF701648B758B868B58
:104EB000978B68EC70E080E090E00E94B9096C5933
:104EC0007F4F8F4F9F4F0E941A2AF701608F718F7B
:104ED000828F938F68EC70E080E090E00E94B909C7
:104EE0006C597F4F8F4F9F4F0E941A2AF701648F92
:104EF000758F868F978F68EC70E080E090E00E945D
:104F0000B9096C597F4F8F4F9F4F0E941A2AF701A2
:104F100060A371A382A393A368EC70E080E090E0AB
:104F20000E94B9096C597F4F8F4F9F4F0E941A2AD8
:104F3000F70164A375A386A397A368EC70E080E0F3
:104F400090E00E94B9096C597F4F8F4F9F4F0E948C
:104F50001A2AF70160A771A782A793A768EC70E0EF
:104F600080E090E00E94B9096C597F4F8F4F9F4FAE
:104F70000E941A2AF70164A775A786A797A768EC6D
:104F800070E080E090E00E94B90931E9E32E31E061
:104F9000F32E6C597F4F8F4F9F4F0E941A2AF701B3
:104FA000608371838283938368EC70E080E090E09B
:104FB0000E94B9096C597F4F8F4F9F4F0E941A2A48
:104FC000F701648375838683978368EC70E080E0E3
:104FD00090E00E94B9096C597F4F8F4F9F4F0E94FC
:104FE0001A2AF701608771878287938768EC70E0DF
:104FF00080E090E00E94B9096C597F4F8F4F9F4F1E
:105000000E941A2AF701648775878687978768EC5C
:1050100070E080E090E00E94B9096C597F4F8F4F9B
:105020009F4F0E941A2AF701608B718B828B938BA2
:1050300068EC70E080E090E00E94B9096C597F4F05
:105040008F4F9F4F0E941A2AF701648B758B868BB6
:10505000978B68EC70E080E090E00E94B9096C5991
:105060007F4F8F4F9F4F0E941A2AF701608F718FD9
:10507000828F938F68EC70E080E090E00E94B90925
:105080006C597F4F8F4F9F4F0E941A2AF701648FF0
:10509000758F868F978F68EC70E080E090E00E94BB
:1050A000B9096C597F4F8F4F9F4F0E941A2AF70101
:1050B00060A371A382A393A368EC70E080E090E00A
:1050C0000E94B9096C597F4F8F4F9F4F0E941A2A37
:1050D000F70164A375A386A397A368EC70E080E052
:1050E00090E00E94B9096C597F4F8F4F9F4F0E94EB
:1050F0001A2AF70160A771A782A793A768EC70E04E
:1051000080E090E00E94B9096C597F4F8F4F9F4F0C
:105110000E941A2AF70164A775A786A797A720E01F
:1051200030E04AEF52E4F80160817181828193811D
:105130000E94E82B60938D0170938E0180938F0104
:105140009093900188819981AA81BB81B058809306
:10515000890190938A01A0938B01B0938C018FE217
:1051600097E0909388018093870180E090E8909386
:1051700086018093850146983E9A47983F9ADF9131
:10518000CF911F910F91FF90EF9008950F931F9370
:10519000CF93DF93EC0181E090E00E94380B80FF19
:1051A0002EC08AE090E00E94380B9FEF980F9E3F40
:1051B00030F522E330E0388B2F8728E330E03A8B5C
:1051C000298B0BE010E0E881F9810190F081E02D5E
:1051D000682FCE010995C8010E94380B0F5F1F4F41
:1051E0000131110581F7CE0104960E94450B88EE2E
:1051F00093E0DF91CF911F910F910C942B0BDF91D6
:10520000CF911F910F91089504970C94C628DF92B7
:10521000EF92FF920F931F93CF93DF93D82EF92E27
:10522000E42E062F10E0C8010196880F0E94471156
:1052300083E00E944711CD2DDF2D0C0F1D1FC017DD
:10524000D10789F0E7FE03C0FE01849101C0888187
:105250000E944711F82E80E00E9447118F2121966D
:105260008111EDCF01C081E0DF91CF911F910F91AE
:10527000FF90EF90DF9008958F929F92AF92BF9230
:10528000CF92DF92EF92FF92CF93DF93EC01688190
:1052900079818A819B81611571058105910521F4D0
:1052A00064E279ED8BE597E02DE133EF41E050E0EA
:1052B0000E944D2B49015A019B01AC01A7EAB1E4C0
:1052C0000E946C2B6B017C01ACEEB4EFA501940144
:1052D0000E947A2BDC01CB018C0D9D1DAE1DBF1DE4
:1052E000B7FF03C00197A109B04888839983AA83B7
:1052F000BB83BC01CD019F77DF91CF91FF90EF90F1
:10530000DF90CF90BF90AF909F908F9008958F9235
:105310009F92AF92BF92CF92DF92EF92FF926091F5
:10532000140170911501809116019091170161157A
:1053300071058105910521F464E279ED8BE597E033
:105340002DE133EF41E050E00E944D2B49015A011D
:105350009B01AC01A7EAB1E40E946C2B6B017C01BC
:10536000ACEEB4EFA50194010E947A2BDC01CB01D5
:105370008C0D9D1DAE1DBF1DB7FF03C00197A10978
:10538000B0488093140190931501A0931601B09337
:105390001701BC01CD019F77FF90EF90DF90CF9078
:1053A000BF90AF909F908F90089560931401709379
:1053B000150180931601909317010895BB274A3079
:1053C00031F4992322F4BDE2909581959F4F0C947E
:1053D000EA29BB27FB015527AA27880F991FAA1F77
:1053E000A41710F0A41B83955051B9F7A05DAA3300
:1053F00008F0A95DA193009779F7B111B1931192CB
:10540000CB010C94032ADC01FC01672F71917723F7
:10541000E1F7329704C07C916D9370836291AE176F
:10542000BF07C8F308950E94552A08F481E0089543
:10543000E89409C097FB3EF490958095709561952E
:105440007F4F8F4F9F4F9923A9F0F92F96E9BB27E4
:105450009395F695879577956795B795F111F8CF60
:10546000FAF4BB0F11F460FF1BC06F5F7F4F8F4FCB
:105470009F4F16C0882311F096E911C0772321F0C1
:105480009EE8872F762F05C0662371F096E8862F59
:1054900070E060E02AF09A95660F771F881FDAF7B0
:1054A000880F9695879597F90895990F0008550FDD
:1054B000AA0BE0E8FEEF16161706E807F907C0F09A
:1054C00012161306E407F50798F0621B730B840BA2
:1054D000950B39F40A2661F0232B242B252B21F47C
:1054E00008950A2609F4A140A6958FEF811D811D1C
:1054F00008950E948C2A0C94FD2A0E94EF2A38F00D
:105500000E94F62A20F0952311F00C94E62A0C94C0
:10551000EC2A11240C94312B0E940E2B70F3959FD2
:10552000C1F3950F50E0551F629FF001729FBB279A
:10553000F00DB11D639FAA27F00DB11DAA1F649F36
:105540006627B00DA11D661F829F2227B00DA11DE9
:10555000621F739FB00DA11D621F839FA00D611D6F
:10556000221F749F3327A00D611D231F849F600D90
:10557000211D822F762F6A2F11249F5750409AF0B9
:10558000F1F088234AF0EE0FFF1FBB1F661F771F45
:10559000881F91505040A9F79E3F510580F00C9410
:1055A000E62A0C94312B5F3FE4F3983ED4F38695C2
:1055B00077956795B795F795E7959F5FC1F7FE2BB0
:1055C000880F911D9695879597F9089597F99F678C
:1055D00080E870E060E008959FEF80EC089500247B
:1055E0000A941616170618060906089500240A9448
:1055F00012161306140605060895092E0394000CCE
:1056000011F4882352F0BB0F40F4BF2B11F460FF5C
:1056100004C06F5F7F4F8F4F9F4F089557FD905885
:10562000440F551F59F05F3F71F04795880F97FB66
:10563000991F61F09F3F79F0879508951216130620
:105640001406551FF2CF4695F1DF08C0161617064F
:105650001806991FF1CF8695710561050894089584
:10566000E894BB2766277727CB0197F90895F99926
:10567000FECF92BD81BDF89A992780B50895262F57
:10568000F999FECF1FBA92BD81BD20BD0FB6F89427
:10569000FA9AF99A0FBE01960895052E97FB1EF40B
:1056A00000940E94642B57FD07D00E94B62B07FC84
:1056B00003D04EF40C94642B509540953095219571
:1056C0003F4F4F4F5F4F089590958095709561952E
:1056D0007F4F8F4F9F4F08950E94D82BA59F900D0D
:1056E000B49F900DA49F800D911D11240895B7FFC4
:1056F0000C946C2B0E946C2B821B930B08952F92A1
:105700003F924F925F926F927F928F929F92AF9251
:10571000BF92CF92DF92EF92FF920F931F93CF939E
:10572000DF93CDB7DEB7CA1BDB0B0FB6F894DEBF35
:105730000FBECDBF09942A88398848885F846E845B
:105740007D848C849B84AA84B984C884DF80EE80A5
:10575000FD800C811B81AA81B981CE0FD11D0FB6AE
:10576000F894DEBF0FBECDBFED010895A1E21A2E61
:10577000AA1BBB1BFD010DC0AA1FBB1FEE1FFF1FF5
:10578000A217B307E407F50720F0A21BB30BE40B45
:10579000F50B661F771F881F991F1A9469F760958C
:1057A0007095809590959B01AC01BD01CF01089546
:1057B000A29FB001B39FC001A39F700D811D112452
:1057C000911DB29F700D811D1124911D0895505897
:1057D000BB27AA270E94FF2B0C94FD2A0E94EF2AC8
:1057E00038F00E94F62A20F039F49F3F19F426F48D
:1057F0000C94EC2A0EF4E095E7FB0C94E62AE92FD2
:105800000E940E2B58F3BA17620773078407950797
:1058100020F079F4A6F50C94302B0EF4E0950B2EC5
:10582000BA2FA02D0B01B90190010C01CA01A001F2
:105830001124FF27591B99F0593F50F4503E68F14D
:105840001A16F040A22F232F342F4427585FF3CF8E
:10585000469537952795A795F0405395C9F77EF45F
:105860001F16BA0B620B730B840BBAF09150A1F0A8
:10587000FF0FBB1F661F771F881FC2F70EC0BA0F2E
:10588000621F731F841F48F4879577956795B795B6
:10589000F7959E3F08F0B0CF9395880F08F09927B1
:1058A000EE0F9795879508950E94032DE3950C942C
:1058B0002C2D0E946D2C0C94FD2A0E94F62A58F083
:1058C0000E94EF2A40F029F45F3F29F00C94E62A69
:1058D00051110C94312B0C94EC2A0E940E2B68F37E
:1058E0009923B1F3552391F3951B550BBB27AA2799
:1058F00062177307840738F09F5F5F4F220F331FD3
:10590000441FAA1FA9F335D00E2E3AF0E0E832D09A
:1059100091505040E695001CCAF72BD0FE2F29D09D
:10592000660F771F881FBB1F261737074807AB076F
:10593000B0E809F0BB0B802DBF01FF2793585F4FE4
:105940003AF09E3F510578F00C94E62A0C94312BE6
:105950005F3FE4F3983ED4F3869577956795B795C6
:10596000F7959F5FC9F7880F911D9695879597F9D1
:105970000895E1E0660F771F881FBB1F621773074A
:105980008407BA0720F0621B730B840BBA0BEE1F5F
:1059900088F7E09508950E94D22C6894B1110C9478
:1059A000312B08950E94162B88F09F5798F0B92F3D
:1059B0009927B751B0F0E1F0660F771F881F991F44
:1059C0001AF0BA95C9F714C0B13091F00E94302B8B
:1059D000B1E008950C94302B672F782F8827B85F9B
:1059E00039F0B93FCCF3869577956795B395D9F79C
:1059F0003EF490958095709561957F4F8F4F9F4FA6
:105A000008950C94EC2A0E94162BD8F3E894E0E059
:105A1000BB279F57F0F02AED3FE049EC06C0EE0FA0
:105A2000BB0F661F771F881F28F0B23A6207730703
:105A3000840728F0B25A620B730B840BE3959A9596
:105A400072F7803830F49A95BB0F661F771F881F56
:105A5000D2F790480C944F2DEF93E0FF07C0A2EAD5
:105A60002AED3FE049EC5FEB0E94FF2B0E94FD2AEC
:105A70000F90039401FC9058ECEAF0E00C945B2D3D
:105A80000E94552A08F48FEF08959F930E94032DDA
:105A90000F9007FCEE5F0C942C2D9F3F31F091503E
:105AA00020F4879577956795B795880F911D969502
:105AB000879597F908959F938F937F936F93FF93A3
:105AC000EF939B01AC010E94792AEF91FF910E9414
:105AD0006F2D2F913F914F915F910C94792ADF9315
